{
  "contracts/TokenizedAssetManagement.sol": {
    "TokenizedAssetManagement": {
      "abi": [
        {
          "inputs": [
            {
              "internalType": "address",
              "name": "priceFeedAddress",
              "type": "address"
            }
          ],
          "stateMutability": "nonpayable",
          "type": "constructor"
        },
        {
          "anonymous": false,
          "inputs": [
            {
              "indexed": true,
              "internalType": "address",
              "name": "buyer",
              "type": "address"
            },
            {
              "indexed": true,
              "internalType": "address",
              "name": "tokenAddress",
              "type": "address"
            },
            {
              "indexed": false,
              "internalType": "uint256",
              "name": "amount",
              "type": "uint256"
            }
          ],
          "name": "AssetBought",
          "type": "event"
        },
        {
          "anonymous": false,
          "inputs": [
            {
              "indexed": true,
              "internalType": "address",
              "name": "creator",
              "type": "address"
            },
            {
              "indexed": true,
              "internalType": "address",
              "name": "tokenAddress",
              "type": "address"
            },
            {
              "indexed": false,
              "internalType": "string",
              "name": "uri",
              "type": "string"
            },
            {
              "indexed": false,
              "internalType": "uint256",
              "name": "priceUSD",
              "type": "uint256"
            }
          ],
          "name": "AssetCreated",
          "type": "event"
        },
        {
          "inputs": [
            {
              "internalType": "address",
              "name": "",
              "type": "address"
            },
            {
              "internalType": "uint256",
              "name": "",
              "type": "uint256"
            }
          ],
          "name": "assets",
          "outputs": [
            {
              "internalType": "address",
              "name": "tokenAddress",
              "type": "address"
            },
            {
              "internalType": "string",
              "name": "uri",
              "type": "string"
            },
            {
              "internalType": "uint256",
              "name": "priceUSD",
              "type": "uint256"
            }
          ],
          "stateMutability": "view",
          "type": "function"
        },
        {
          "inputs": [
            {
              "internalType": "address",
              "name": "tokenAddress",
              "type": "address"
            }
          ],
          "name": "buyAsset",
          "outputs": [],
          "stateMutability": "payable",
          "type": "function"
        },
        {
          "inputs": [
            {
              "internalType": "string",
              "name": "name",
              "type": "string"
            },
            {
              "internalType": "string",
              "name": "symbol",
              "type": "string"
            },
            {
              "internalType": "uint256",
              "name": "totalSupply",
              "type": "uint256"
            },
            {
              "internalType": "uint256",
              "name": "priceUSD",
              "type": "uint256"
            },
            {
              "internalType": "string",
              "name": "uri",
              "type": "string"
            }
          ],
          "name": "createAsset",
          "outputs": [],
          "stateMutability": "nonpayable",
          "type": "function"
        },
        {
          "inputs": [],
          "name": "owner",
          "outputs": [
            {
              "internalType": "address",
              "name": "",
              "type": "address"
            }
          ],
          "stateMutability": "view",
          "type": "function"
        }
      ],
      "evm": {
        "bytecode": {
          "linkReferences": {},
          "object": "60806040523480156200001157600080fd5b5060405162003f6a38038062003f6a833981810160405281019062000037919062000129565b336000806101000a81548173ffffffffffffffffffffffffffffffffffffffff021916908373ffffffffffffffffffffffffffffffffffffffff16021790555080600160006101000a81548173ffffffffffffffffffffffffffffffffffffffff021916908373ffffffffffffffffffffffffffffffffffffffff160217905550506200015b565b600080fd5b600073ffffffffffffffffffffffffffffffffffffffff82169050919050565b6000620000f182620000c4565b9050919050565b6200010381620000e4565b81146200010f57600080fd5b50565b6000815190506200012381620000f8565b92915050565b600060208284031215620001425762000141620000bf565b5b6000620001528482850162000112565b91505092915050565b613dff806200016b6000396000f3fe608060405260043610620000445760003560e01c806351eb27c0146200004957806386bb5a48146200008f5780638da5cb5b14620000af578063c55f468214620000df575b600080fd5b3480156200005657600080fd5b506200007560048036038101906200006f919062000b34565b6200010d565b604051620000869392919062000c37565b60405180910390f35b620000ad6004803603810190620000a7919062000c7b565b62000205565b005b348015620000bc57600080fd5b50620000c76200072a565b604051620000d6919062000cad565b60405180910390f35b348015620000ec57600080fd5b506200010b600480360381019062000105919062000e1b565b6200074e565b005b600260205281600052604060002081815481106200012a57600080fd5b9060005260206000209060030201600091509150508060000160009054906101000a900473ffffffffffffffffffffffffffffffffffffffff1690806001018054620001769062000f2f565b80601f0160208091040260200160405190810160405280929190818152602001828054620001a49062000f2f565b8015620001f55780601f10620001c957610100808354040283529160200191620001f5565b820191906000526020600020905b815481529060010190602001808311620001d757829003601f168201915b5050505050908060020154905083565b6000600260003373ffffffffffffffffffffffffffffffffffffffff1673ffffffffffffffffffffffffffffffffffffffff168152602001908152602001600020805480602002602001604051908101604052809291908181526020016000905b828210156200039457838290600052602060002090600302016040518060600160405290816000820160009054906101000a900473ffffffffffffffffffffffffffffffffffffffff1673ffffffffffffffffffffffffffffffffffffffff1673ffffffffffffffffffffffffffffffffffffffff168152602001600182018054620002f29062000f2f565b80601f0160208091040260200160405190810160405280929190818152602001828054620003209062000f2f565b8015620003715780601f10620003455761010080835404028352916020019162000371565b820191906000526020600020905b8154815290600101906020018083116200035357829003601f168201915b505050505081526020016002820154815250508152602001906001019062000266565b5050505090506000620003a662000a3b565b60005b835181101562000440578473ffffffffffffffffffffffffffffffffffffffff16848281518110620003e057620003df62000f64565b5b60200260200101516000015173ffffffffffffffffffffffffffffffffffffffff160362000432578381815181106200041e576200041d62000f64565b5b602002602001015191506001925062000440565b8080600101915050620003a9565b508162000484576040517f08c379a00000000000000000000000000000000000000000000000000000000081526004016200047b9062001009565b60405180910390fd5b60006200049062000997565b905060008113620004d8576040517f08c379a0000000000000000000000000000000000000000000000000000000008152600401620004cf906200107b565b60405180910390fd5b60006305f5e1008234620004ed9190620010cc565b620004f9919062001146565b90506000811162000541576040517f08c379a00000000000000000000000000000000000000000000000000000000081526004016200053890620011ce565b60405180910390fd5b60008360400151670de0b6b3a7640000836200055e9190620010cc565b6200056a919062001146565b90506000879050818173ffffffffffffffffffffffffffffffffffffffff166370a08231306040518263ffffffff1660e01b8152600401620005ad919062000cad565b602060405180830381865afa158015620005cb573d6000803e3d6000fd5b505050506040513d601f19601f82011682018060405250810190620005f1919062001207565b101562000635576040517f08c379a00000000000000000000000000000000000000000000000000000000081526004016200062c9062001289565b60405180910390fd5b8073ffffffffffffffffffffffffffffffffffffffff1663a9059cbb33846040518363ffffffff1660e01b815260040162000672929190620012ab565b6020604051808303816000875af115801562000692573d6000803e3d6000fd5b505050506040513d601f19601f82011682018060405250810190620006b8919062001315565b508773ffffffffffffffffffffffffffffffffffffffff163373ffffffffffffffffffffffffffffffffffffffff167fa5d5e5898103a502fa4b6a25b2afacdc96e4db96d19ab4fb886f767b98eca3fb8460405162000718919062001347565b60405180910390a35050505050505050565b60008054906101000a900473ffffffffffffffffffffffffffffffffffffffff1681565b60008054906101000a900473ffffffffffffffffffffffffffffffffffffffff1673ffffffffffffffffffffffffffffffffffffffff163373ffffffffffffffffffffffffffffffffffffffff1614620007df576040517f08c379a0000000000000000000000000000000000000000000000000000000008152600401620007d690620013da565b60405180910390fd5b600085858533604051620007f39062000a72565b620008029493929190620013fc565b604051809103906000f0801580156200081f573d6000803e3d6000fd5b509050600260003373ffffffffffffffffffffffffffffffffffffffff1673ffffffffffffffffffffffffffffffffffffffff16815260200190815260200160002060405180606001604052808373ffffffffffffffffffffffffffffffffffffffff16815260200184815260200185815250908060018154018082558091505060019003906000526020600020906003020160009091909190915060008201518160000160006101000a81548173ffffffffffffffffffffffffffffffffffffffff021916908373ffffffffffffffffffffffffffffffffffffffff160217905550602082015181600101908162000919919062001629565b506040820151816002015550508073ffffffffffffffffffffffffffffffffffffffff163373ffffffffffffffffffffffffffffffffffffffff167fe08aab1d483faf2d4cb376b9b80d9c8f5a288dd6cd1dcaa278044fe30e79610e84866040516200098792919062001710565b60405180910390a3505050505050565b600080600160009054906101000a900473ffffffffffffffffffffffffffffffffffffffff1673ffffffffffffffffffffffffffffffffffffffff1663feaf968c6040518163ffffffff1660e01b815260040160a060405180830381865afa15801562000a08573d6000803e3d6000fd5b505050506040513d601f19601f8201168201806040525081019062000a2e9190620017c6565b5050509150508091505090565b6040518060600160405280600073ffffffffffffffffffffffffffffffffffffffff16815260200160608152602001600081525090565b61257b806200184f83390190565b6000604051905090565b600080fd5b600080fd5b600073ffffffffffffffffffffffffffffffffffffffff82169050919050565b600062000ac18262000a94565b9050919050565b62000ad38162000ab4565b811462000adf57600080fd5b50565b60008135905062000af38162000ac8565b92915050565b6000819050919050565b62000b0e8162000af9565b811462000b1a57600080fd5b50565b60008135905062000b2e8162000b03565b92915050565b6000806040838503121562000b4e5762000b4d62000a8a565b5b600062000b5e8582860162000ae2565b925050602062000b718582860162000b1d565b9150509250929050565b62000b868162000ab4565b82525050565b600081519050919050565b600082825260208201905092915050565b60005b8381101562000bc857808201518184015260208101905062000bab565b60008484015250505050565b6000601f19601f8301169050919050565b600062000bf28262000b8c565b62000bfe818562000b97565b935062000c1081856020860162000ba8565b62000c1b8162000bd4565b840191505092915050565b62000c318162000af9565b82525050565b600060608201905062000c4e600083018662000b7b565b818103602083015262000c62818562000be5565b905062000c73604083018462000c26565b949350505050565b60006020828403121562000c945762000c9362000a8a565b5b600062000ca48482850162000ae2565b91505092915050565b600060208201905062000cc4600083018462000b7b565b92915050565b600080fd5b600080fd5b7f4e487b7100000000000000000000000000000000000000000000000000000000600052604160045260246000fd5b62000d0e8262000bd4565b810181811067ffffffffffffffff8211171562000d305762000d2f62000cd4565b5b80604052505050565b600062000d4562000a80565b905062000d53828262000d03565b919050565b600067ffffffffffffffff82111562000d765762000d7562000cd4565b5b62000d818262000bd4565b9050602081019050919050565b82818337600083830152505050565b600062000db462000dae8462000d58565b62000d39565b90508281526020810184848401111562000dd35762000dd262000ccf565b5b62000de084828562000d8e565b509392505050565b600082601f83011262000e005762000dff62000cca565b5b813562000e1284826020860162000d9d565b91505092915050565b600080600080600060a0868803121562000e3a5762000e3962000a8a565b5b600086013567ffffffffffffffff81111562000e5b5762000e5a62000a8f565b5b62000e698882890162000de8565b955050602086013567ffffffffffffffff81111562000e8d5762000e8c62000a8f565b5b62000e9b8882890162000de8565b945050604062000eae8882890162000b1d565b935050606062000ec18882890162000b1d565b925050608086013567ffffffffffffffff81111562000ee55762000ee462000a8f565b5b62000ef38882890162000de8565b9150509295509295909350565b7f4e487b7100000000000000000000000000000000000000000000000000000000600052602260045260246000fd5b6000600282049050600182168062000f4857607f821691505b60208210810362000f5e5762000f5d62000f00565b5b50919050565b7f4e487b7100000000000000000000000000000000000000000000000000000000600052603260045260246000fd5b7f417373657420646f6573206e6f7420657869737420666f72207468652075736560008201527f7200000000000000000000000000000000000000000000000000000000000000602082015250565b600062000ff160218362000b97565b915062000ffe8262000f93565b604082019050919050565b60006020820190508181036000830152620010248162000fe2565b9050919050565b7f496e76616c6964204554482f5553442070726963650000000000000000000000600082015250565b60006200106360158362000b97565b915062001070826200102b565b602082019050919050565b60006020820190508181036000830152620010968162001054565b9050919050565b7f4e487b7100000000000000000000000000000000000000000000000000000000600052601160045260246000fd5b6000620010d98262000af9565b9150620010e68362000af9565b9250828202620010f68162000af9565b9150828204841483151762001110576200110f6200109d565b5b5092915050565b7f4e487b7100000000000000000000000000000000000000000000000000000000600052601260045260246000fd5b6000620011538262000af9565b9150620011608362000af9565b92508262001173576200117262001117565b5b828204905092915050565b7f496e73756666696369656e74207061796d656e74000000000000000000000000600082015250565b6000620011b660148362000b97565b9150620011c3826200117e565b602082019050919050565b60006020820190508181036000830152620011e981620011a7565b9050919050565b600081519050620012018162000b03565b92915050565b60006020828403121562001220576200121f62000a8a565b5b60006200123084828501620011f0565b91505092915050565b7f4e6f7420656e6f75676820746f6b656e7320617661696c61626c650000000000600082015250565b600062001271601b8362000b97565b91506200127e8262001239565b602082019050919050565b60006020820190508181036000830152620012a48162001262565b9050919050565b6000604082019050620012c2600083018562000b7b565b620012d1602083018462000c26565b9392505050565b60008115159050919050565b620012ef81620012d8565b8114620012fb57600080fd5b50565b6000815190506200130f81620012e4565b92915050565b6000602082840312156200132e576200132d62000a8a565b5b60006200133e84828501620012fe565b91505092915050565b60006020820190506200135e600083018462000c26565b92915050565b7f4f6e6c7920746865206f776e65722063616e2063616c6c20746869732066756e60008201527f6374696f6e000000000000000000000000000000000000000000000000000000602082015250565b6000620013c260258362000b97565b9150620013cf8262001364565b604082019050919050565b60006020820190508181036000830152620013f581620013b3565b9050919050565b6000608082019050818103600083015262001418818762000be5565b905081810360208301526200142e818662000be5565b90506200143f604083018562000c26565b6200144e606083018462000b7b565b95945050505050565b60008190508160005260206000209050919050565b60006020601f8301049050919050565b600082821b905092915050565b600060088302620014bb7fffffffffffffffffffffffffffffffffffffffffffffffffffffffffffffffff826200147c565b620014c786836200147c565b95508019841693508086168417925050509392505050565b6000819050919050565b60006200150a62001504620014fe8462000af9565b620014df565b62000af9565b9050919050565b6000819050919050565b6200152683620014e9565b6200153e620015358262001511565b84845462001489565b825550505050565b600090565b6200155562001546565b620015628184846200151b565b505050565b5b818110156200158a576200157e6000826200154b565b60018101905062001568565b5050565b601f821115620015d957620015a38162001457565b620015ae846200146c565b81016020851015620015be578190505b620015d6620015cd856200146c565b83018262001567565b50505b505050565b600082821c905092915050565b6000620015fe60001984600802620015de565b1980831691505092915050565b6000620016198383620015eb565b9150826002028217905092915050565b620016348262000b8c565b67ffffffffffffffff81111562001650576200164f62000cd4565b5b6200165c825462000f2f565b620016698282856200158e565b600060209050601f831160018114620016a157600084156200168c578287015190505b6200169885826200160b565b86555062001708565b601f198416620016b18662001457565b60005b82811015620016db57848901518255600182019150602085019450602081019050620016b4565b86831015620016fb5784890151620016f7601f891682620015eb565b8355505b6001600288020188555050505b505050505050565b600060408201905081810360008301526200172c818562000be5565b90506200173d602083018462000c26565b9392505050565b600069ffffffffffffffffffff82169050919050565b620017658162001744565b81146200177157600080fd5b50565b60008151905062001785816200175a565b92915050565b6000819050919050565b620017a0816200178b565b8114620017ac57600080fd5b50565b600081519050620017c08162001795565b92915050565b600080600080600060a08688031215620017e557620017e462000a8a565b5b6000620017f58882890162001774565b95505060206200180888828901620017af565b94505060406200181b88828901620011f0565b93505060606200182e88828901620011f0565b9250506080620018418882890162001774565b915050929550929590935056fe60a06040523480156200001157600080fd5b506040516200257b3803806200257b83398181016040528101906200003791906200080d565b838381600390816200004a919062000afe565b5080600490816200005c919062000afe565b505050620000917f9f2df0fed2c77648de5860a4cc508cd0818c85b8b8a1ab4ceeef8d981c8956a682620000cc60201b60201c565b670de0b6b3a764000082620000a7919062000c14565b60808181525050620000c2816080516200010660201b60201c565b5050505062000d7b565b620000dd826200019360201b60201c565b620000ee81620001b360201b60201c565b620001008383620001d760201b60201c565b50505050565b600073ffffffffffffffffffffffffffffffffffffffff168273ffffffffffffffffffffffffffffffffffffffff16036200017b5760006040517fec442f0500000000000000000000000000000000000000000000000000000000815260040162000172919062000c70565b60405180910390fd5b6200018f60008383620002db60201b60201c565b5050565b600060056000838152602001908152602001600020600101549050919050565b620001d481620001c86200050b60201b60201c565b6200051360201b60201c565b50565b6000620001eb83836200056f60201b60201c565b620002d05760016005600085815260200190815260200160002060000160008473ffffffffffffffffffffffffffffffffffffffff1673ffffffffffffffffffffffffffffffffffffffff16815260200190815260200160002060006101000a81548160ff0219169083151502179055506200026c6200050b60201b60201c565b73ffffffffffffffffffffffffffffffffffffffff168273ffffffffffffffffffffffffffffffffffffffff16847f2f8788117e7eff1d82e926ec794901d17c78024a50270940304540a733656f0d60405160405180910390a460019050620002d5565b600090505b92915050565b600073ffffffffffffffffffffffffffffffffffffffff168373ffffffffffffffffffffffffffffffffffffffff16036200033157806002600082825462000324919062000c8d565b9250508190555062000407565b60008060008573ffffffffffffffffffffffffffffffffffffffff1673ffffffffffffffffffffffffffffffffffffffff16815260200190815260200160002054905081811015620003c0578381836040517fe450d38c000000000000000000000000000000000000000000000000000000008152600401620003b79392919062000cd9565b60405180910390fd5b8181036000808673ffffffffffffffffffffffffffffffffffffffff1673ffffffffffffffffffffffffffffffffffffffff16815260200190815260200160002081905550505b600073ffffffffffffffffffffffffffffffffffffffff168273ffffffffffffffffffffffffffffffffffffffff16036200045257806002600082825403925050819055506200049f565b806000808473ffffffffffffffffffffffffffffffffffffffff1673ffffffffffffffffffffffffffffffffffffffff168152602001908152602001600020600082825401925050819055505b8173ffffffffffffffffffffffffffffffffffffffff168373ffffffffffffffffffffffffffffffffffffffff167fddf252ad1be2c89b69c2b068fc378daa952ba7f163c4a11628f55a4df523b3ef83604051620004fe919062000d16565b60405180910390a3505050565b600033905090565b6200052582826200056f60201b60201c565b6200056b5780826040517fe2517d3f0000000000000000000000000000000000000000000000000000000081526004016200056292919062000d4e565b60405180910390fd5b5050565b60006005600084815260200190815260200160002060000160008373ffffffffffffffffffffffffffffffffffffffff1673ffffffffffffffffffffffffffffffffffffffff16815260200190815260200160002060009054906101000a900460ff16905092915050565b6000604051905090565b600080fd5b600080fd5b600080fd5b600080fd5b6000601f19601f8301169050919050565b7f4e487b7100000000000000000000000000000000000000000000000000000000600052604160045260246000fd5b6200064382620005f8565b810181811067ffffffffffffffff8211171562000665576200066462000609565b5b80604052505050565b60006200067a620005da565b905062000688828262000638565b919050565b600067ffffffffffffffff821115620006ab57620006aa62000609565b5b620006b682620005f8565b9050602081019050919050565b60005b83811015620006e3578082015181840152602081019050620006c6565b60008484015250505050565b60006200070662000700846200068d565b6200066e565b905082815260208101848484011115620007255762000724620005f3565b5b62000732848285620006c3565b509392505050565b600082601f830112620007525762000751620005ee565b5b815162000764848260208601620006ef565b91505092915050565b6000819050919050565b62000782816200076d565b81146200078e57600080fd5b50565b600081519050620007a28162000777565b92915050565b600073ffffffffffffffffffffffffffffffffffffffff82169050919050565b6000620007d582620007a8565b9050919050565b620007e781620007c8565b8114620007f357600080fd5b50565b6000815190506200080781620007dc565b92915050565b600080600080608085870312156200082a5762000829620005e4565b5b600085015167ffffffffffffffff8111156200084b576200084a620005e9565b5b62000859878288016200073a565b945050602085015167ffffffffffffffff8111156200087d576200087c620005e9565b5b6200088b878288016200073a565b93505060406200089e8782880162000791565b9250506060620008b187828801620007f6565b91505092959194509250565b600081519050919050565b7f4e487b7100000000000000000000000000000000000000000000000000000000600052602260045260246000fd5b600060028204905060018216806200091057607f821691505b602082108103620009265762000925620008c8565b5b50919050565b60008190508160005260206000209050919050565b60006020601f8301049050919050565b600082821b905092915050565b600060088302620009907fffffffffffffffffffffffffffffffffffffffffffffffffffffffffffffffff8262000951565b6200099c868362000951565b95508019841693508086168417925050509392505050565b6000819050919050565b6000620009df620009d9620009d3846200076d565b620009b4565b6200076d565b9050919050565b6000819050919050565b620009fb83620009be565b62000a1362000a0a82620009e6565b8484546200095e565b825550505050565b600090565b62000a2a62000a1b565b62000a37818484620009f0565b505050565b5b8181101562000a5f5762000a5360008262000a20565b60018101905062000a3d565b5050565b601f82111562000aae5762000a78816200092c565b62000a838462000941565b8101602085101562000a93578190505b62000aab62000aa28562000941565b83018262000a3c565b50505b505050565b600082821c905092915050565b600062000ad36000198460080262000ab3565b1980831691505092915050565b600062000aee838362000ac0565b9150826002028217905092915050565b62000b0982620008bd565b67ffffffffffffffff81111562000b255762000b2462000609565b5b62000b318254620008f7565b62000b3e82828562000a63565b600060209050601f83116001811462000b76576000841562000b61578287015190505b62000b6d858262000ae0565b86555062000bdd565b601f19841662000b86866200092c565b60005b8281101562000bb05784890151825560018201915060208501945060208101905062000b89565b8683101562000bd0578489015162000bcc601f89168262000ac0565b8355505b6001600288020188555050505b505050505050565b7f4e487b7100000000000000000000000000000000000000000000000000000000600052601160045260246000fd5b600062000c21826200076d565b915062000c2e836200076d565b925082820262000c3e816200076d565b9150828204841483151762000c585762000c5762000be5565b5b5092915050565b62000c6a81620007c8565b82525050565b600060208201905062000c87600083018462000c5f565b92915050565b600062000c9a826200076d565b915062000ca7836200076d565b925082820190508082111562000cc25762000cc162000be5565b5b92915050565b62000cd3816200076d565b82525050565b600060608201905062000cf0600083018662000c5f565b62000cff602083018562000cc8565b62000d0e604083018462000cc8565b949350505050565b600060208201905062000d2d600083018462000cc8565b92915050565b6000819050919050565b62000d488162000d33565b82525050565b600060408201905062000d65600083018562000c5f565b62000d74602083018462000d3d565b9392505050565b6080516117e462000d97600039600061084401526117e46000f3fe608060405234801561001057600080fd5b50600436106101215760003560e01c806340c10f19116100ad578063a9059cbb11610071578063a9059cbb14610330578063d539139314610360578063d547741f1461037e578063d5abeb011461039a578063dd62ed3e146103b857610121565b806340c10f191461027857806370a082311461029457806391d14854146102c457806395d89b41146102f4578063a217fddf1461031257610121565b806323b872dd116100f457806323b872dd146101c2578063248a9ca3146101f25780632f2ff15d14610222578063313ce5671461023e57806336568abe1461025c57610121565b806301ffc9a71461012657806306fdde0314610156578063095ea7b31461017457806318160ddd146101a4575b600080fd5b610140600480360381019061013b919061121e565b6103e8565b60405161014d9190611266565b60405180910390f35b61015e610462565b60405161016b9190611311565b60405180910390f35b61018e600480360381019061018991906113c7565b6104f4565b60405161019b9190611266565b60405180910390f35b6101ac610517565b6040516101b99190611416565b60405180910390f35b6101dc60048036038101906101d79190611431565b610521565b6040516101e99190611266565b60405180910390f35b61020c600480360381019061020791906114ba565b610550565b60405161021991906114f6565b60405180910390f35b61023c60048036038101906102379190611511565b610570565b005b610246610592565b604051610253919061156d565b60405180910390f35b61027660048036038101906102719190611511565b61059b565b005b610292600480360381019061028d91906113c7565b610616565b005b6102ae60048036038101906102a99190611588565b61068d565b6040516102bb9190611416565b60405180910390f35b6102de60048036038101906102d99190611511565b6106d5565b6040516102eb9190611266565b60405180910390f35b6102fc610740565b6040516103099190611311565b60405180910390f35b61031a6107d2565b60405161032791906114f6565b60405180910390f35b61034a600480360381019061034591906113c7565b6107d9565b6040516103579190611266565b60405180910390f35b6103686107fc565b60405161037591906114f6565b60405180910390f35b61039860048036038101906103939190611511565b610820565b005b6103a2610842565b6040516103af9190611416565b60405180910390f35b6103d260048036038101906103cd91906115b5565b610866565b6040516103df9190611416565b60405180910390f35b60007f7965db0b000000000000000000000000000000000000000000000000000000007bffffffffffffffffffffffffffffffffffffffffffffffffffffffff1916827bffffffffffffffffffffffffffffffffffffffffffffffffffffffff1916148061045b575061045a826108ed565b5b9050919050565b60606003805461047190611624565b80601f016020809104026020016040519081016040528092919081815260200182805461049d90611624565b80156104ea5780601f106104bf576101008083540402835291602001916104ea565b820191906000526020600020905b8154815290600101906020018083116104cd57829003601f168201915b5050505050905090565b6000806104ff610957565b905061050c81858561095f565b600191505092915050565b6000600254905090565b60008061052c610957565b9050610539858285610971565b610544858585610a05565b60019150509392505050565b600060056000838152602001908152602001600020600101549050919050565b61057982610550565b61058281610af9565b61058c8383610b0d565b50505050565b60006012905090565b6105a3610957565b73ffffffffffffffffffffffffffffffffffffffff168173ffffffffffffffffffffffffffffffffffffffff1614610607576040517f6697b23200000000000000000000000000000000000000000000000000000000815260040160405180910390fd5b6106118282610bff565b505050565b6106407f9f2df0fed2c77648de5860a4cc508cd0818c85b8b8a1ab4ceeef8d981c8956a6336106d5565b61067f576040517f08c379a0000000000000000000000000000000000000000000000000000000008152600401610676906116a1565b60405180910390fd5b6106898282610cf2565b5050565b60008060008373ffffffffffffffffffffffffffffffffffffffff1673ffffffffffffffffffffffffffffffffffffffff168152602001908152602001600020549050919050565b60006005600084815260200190815260200160002060000160008373ffffffffffffffffffffffffffffffffffffffff1673ffffffffffffffffffffffffffffffffffffffff16815260200190815260200160002060009054906101000a900460ff16905092915050565b60606004805461074f90611624565b80601f016020809104026020016040519081016040528092919081815260200182805461077b90611624565b80156107c85780601f1061079d576101008083540402835291602001916107c8565b820191906000526020600020905b8154815290600101906020018083116107ab57829003601f168201915b5050505050905090565b6000801b81565b6000806107e4610957565b90506107f1818585610a05565b600191505092915050565b7f9f2df0fed2c77648de5860a4cc508cd0818c85b8b8a1ab4ceeef8d981c8956a681565b61082982610550565b61083281610af9565b61083c8383610bff565b50505050565b7f000000000000000000000000000000000000000000000000000000000000000081565b6000600160008473ffffffffffffffffffffffffffffffffffffffff1673ffffffffffffffffffffffffffffffffffffffff16815260200190815260200160002060008373ffffffffffffffffffffffffffffffffffffffff1673ffffffffffffffffffffffffffffffffffffffff16815260200190815260200160002054905092915050565b60007f01ffc9a7000000000000000000000000000000000000000000000000000000007bffffffffffffffffffffffffffffffffffffffffffffffffffffffff1916827bffffffffffffffffffffffffffffffffffffffffffffffffffffffff1916149050919050565b600033905090565b61096c8383836001610d74565b505050565b600061097d8484610866565b90507fffffffffffffffffffffffffffffffffffffffffffffffffffffffffffffffff81146109ff57818110156109ef578281836040517ffb8f41b20000000000000000000000000000000000000000000000000000000081526004016109e6939291906116d0565b60405180910390fd5b6109fe84848484036000610d74565b5b50505050565b600073ffffffffffffffffffffffffffffffffffffffff168373ffffffffffffffffffffffffffffffffffffffff1603610a775760006040517f96c6fd1e000000000000000000000000000000000000000000000000000000008152600401610a6e9190611707565b60405180910390fd5b600073ffffffffffffffffffffffffffffffffffffffff168273ffffffffffffffffffffffffffffffffffffffff1603610ae95760006040517fec442f05000000000000000000000000000000000000000000000000000000008152600401610ae09190611707565b60405180910390fd5b610af4838383610f4b565b505050565b610b0a81610b05610957565b611170565b50565b6000610b1983836106d5565b610bf45760016005600085815260200190815260200160002060000160008473ffffffffffffffffffffffffffffffffffffffff1673ffffffffffffffffffffffffffffffffffffffff16815260200190815260200160002060006101000a81548160ff021916908315150217905550610b91610957565b73ffffffffffffffffffffffffffffffffffffffff168273ffffffffffffffffffffffffffffffffffffffff16847f2f8788117e7eff1d82e926ec794901d17c78024a50270940304540a733656f0d60405160405180910390a460019050610bf9565b600090505b92915050565b6000610c0b83836106d5565b15610ce75760006005600085815260200190815260200160002060000160008473ffffffffffffffffffffffffffffffffffffffff1673ffffffffffffffffffffffffffffffffffffffff16815260200190815260200160002060006101000a81548160ff021916908315150217905550610c84610957565b73ffffffffffffffffffffffffffffffffffffffff168273ffffffffffffffffffffffffffffffffffffffff16847ff6391f5c32d9c69d2a47ea670b442974b53935d1edc7fd64eb21e047a839171b60405160405180910390a460019050610cec565b600090505b92915050565b600073ffffffffffffffffffffffffffffffffffffffff168273ffffffffffffffffffffffffffffffffffffffff1603610d645760006040517fec442f05000000000000000000000000000000000000000000000000000000008152600401610d5b9190611707565b60405180910390fd5b610d7060008383610f4b565b5050565b600073ffffffffffffffffffffffffffffffffffffffff168473ffffffffffffffffffffffffffffffffffffffff1603610de65760006040517fe602df05000000000000000000000000000000000000000000000000000000008152600401610ddd9190611707565b60405180910390fd5b600073ffffffffffffffffffffffffffffffffffffffff168373ffffffffffffffffffffffffffffffffffffffff1603610e585760006040517f94280d62000000000000000000000000000000000000000000000000000000008152600401610e4f9190611707565b60405180910390fd5b81600160008673ffffffffffffffffffffffffffffffffffffffff1673ffffffffffffffffffffffffffffffffffffffff16815260200190815260200160002060008573ffffffffffffffffffffffffffffffffffffffff1673ffffffffffffffffffffffffffffffffffffffff168152602001908152602001600020819055508015610f45578273ffffffffffffffffffffffffffffffffffffffff168473ffffffffffffffffffffffffffffffffffffffff167f8c5be1e5ebec7d5bd14f71427d1e84f3dd0314c0f7b2291e5b200ac8c7c3b92584604051610f3c9190611416565b60405180910390a35b50505050565b600073ffffffffffffffffffffffffffffffffffffffff168373ffffffffffffffffffffffffffffffffffffffff1603610f9d578060026000828254610f919190611751565b92505081905550611070565b60008060008573ffffffffffffffffffffffffffffffffffffffff1673ffffffffffffffffffffffffffffffffffffffff16815260200190815260200160002054905081811015611029578381836040517fe450d38c000000000000000000000000000000000000000000000000000000008152600401611020939291906116d0565b60405180910390fd5b8181036000808673ffffffffffffffffffffffffffffffffffffffff1673ffffffffffffffffffffffffffffffffffffffff16815260200190815260200160002081905550505b600073ffffffffffffffffffffffffffffffffffffffff168273ffffffffffffffffffffffffffffffffffffffff16036110b95780600260008282540392505081905550611106565b806000808473ffffffffffffffffffffffffffffffffffffffff1673ffffffffffffffffffffffffffffffffffffffff168152602001908152602001600020600082825401925050819055505b8173ffffffffffffffffffffffffffffffffffffffff168373ffffffffffffffffffffffffffffffffffffffff167fddf252ad1be2c89b69c2b068fc378daa952ba7f163c4a11628f55a4df523b3ef836040516111639190611416565b60405180910390a3505050565b61117a82826106d5565b6111bd5780826040517fe2517d3f0000000000000000000000000000000000000000000000000000000081526004016111b4929190611785565b60405180910390fd5b5050565b600080fd5b60007fffffffff0000000000000000000000000000000000000000000000000000000082169050919050565b6111fb816111c6565b811461120657600080fd5b50565b600081359050611218816111f2565b92915050565b600060208284031215611234576112336111c1565b5b600061124284828501611209565b91505092915050565b60008115159050919050565b6112608161124b565b82525050565b600060208201905061127b6000830184611257565b92915050565b600081519050919050565b600082825260208201905092915050565b60005b838110156112bb5780820151818401526020810190506112a0565b60008484015250505050565b6000601f19601f8301169050919050565b60006112e382611281565b6112ed818561128c565b93506112fd81856020860161129d565b611306816112c7565b840191505092915050565b6000602082019050818103600083015261132b81846112d8565b905092915050565b600073ffffffffffffffffffffffffffffffffffffffff82169050919050565b600061135e82611333565b9050919050565b61136e81611353565b811461137957600080fd5b50565b60008135905061138b81611365565b92915050565b6000819050919050565b6113a481611391565b81146113af57600080fd5b50565b6000813590506113c18161139b565b92915050565b600080604083850312156113de576113dd6111c1565b5b60006113ec8582860161137c565b92505060206113fd858286016113b2565b9150509250929050565b61141081611391565b82525050565b600060208201905061142b6000830184611407565b92915050565b60008060006060848603121561144a576114496111c1565b5b60006114588682870161137c565b93505060206114698682870161137c565b925050604061147a868287016113b2565b9150509250925092565b6000819050919050565b61149781611484565b81146114a257600080fd5b50565b6000813590506114b48161148e565b92915050565b6000602082840312156114d0576114cf6111c1565b5b60006114de848285016114a5565b91505092915050565b6114f081611484565b82525050565b600060208201905061150b60008301846114e7565b92915050565b60008060408385031215611528576115276111c1565b5b6000611536858286016114a5565b92505060206115478582860161137c565b9150509250929050565b600060ff82169050919050565b61156781611551565b82525050565b6000602082019050611582600083018461155e565b92915050565b60006020828403121561159e5761159d6111c1565b5b60006115ac8482850161137c565b91505092915050565b600080604083850312156115cc576115cb6111c1565b5b60006115da8582860161137c565b92505060206115eb8582860161137c565b9150509250929050565b7f4e487b7100000000000000000000000000000000000000000000000000000000600052602260045260246000fd5b6000600282049050600182168061163c57607f821691505b60208210810361164f5761164e6115f5565b5b50919050565b7f43616c6c6572206973206e6f742061206d696e74657200000000000000000000600082015250565b600061168b60168361128c565b915061169682611655565b602082019050919050565b600060208201905081810360008301526116ba8161167e565b9050919050565b6116ca81611353565b82525050565b60006060820190506116e560008301866116c1565b6116f26020830185611407565b6116ff6040830184611407565b949350505050565b600060208201905061171c60008301846116c1565b92915050565b7f4e487b7100000000000000000000000000000000000000000000000000000000600052601160045260246000fd5b600061175c82611391565b915061176783611391565b925082820190508082111561177f5761177e611722565b5b92915050565b600060408201905061179a60008301856116c1565b6117a760208301846114e7565b939250505056fea2646970667358221220a485c53f0cb9ae9c20366940c3fcf996db368670e29f8ea1d8e27dee69f6258e64736f6c63430008180033a2646970667358221220f9bded45f129a350689a50cc7f832eede2036c97b5f6d69b6f2e7c7777f7124e64736f6c63430008180033",
          "opcodes": "PUSH1 0x80 PUSH1 0x40 MSTORE CALLVALUE DUP1 ISZERO PUSH3 0x11 JUMPI PUSH1 0x0 DUP1 REVERT JUMPDEST POP PUSH1 0x40 MLOAD PUSH3 0x3F6A CODESIZE SUB DUP1 PUSH3 0x3F6A DUP4 CODECOPY DUP2 DUP2 ADD PUSH1 0x40 MSTORE DUP2 ADD SWAP1 PUSH3 0x37 SWAP2 SWAP1 PUSH3 0x129 JUMP JUMPDEST CALLER PUSH1 0x0 DUP1 PUSH2 0x100 EXP DUP2 SLOAD DUP2 PUSH20 0xFFFFFFFFFFFFFFFFFFFFFFFFFFFFFFFFFFFFFFFF MUL NOT AND SWAP1 DUP4 PUSH20 0xFFFFFFFFFFFFFFFFFFFFFFFFFFFFFFFFFFFFFFFF AND MUL OR SWAP1 SSTORE POP DUP1 PUSH1 0x1 PUSH1 0x0 PUSH2 0x100 EXP DUP2 SLOAD DUP2 PUSH20 0xFFFFFFFFFFFFFFFFFFFFFFFFFFFFFFFFFFFFFFFF MUL NOT AND SWAP1 DUP4 PUSH20 0xFFFFFFFFFFFFFFFFFFFFFFFFFFFFFFFFFFFFFFFF AND MUL OR SWAP1 SSTORE POP POP PUSH3 0x15B JUMP JUMPDEST PUSH1 0x0 DUP1 REVERT JUMPDEST PUSH1 0x0 PUSH20 0xFFFFFFFFFFFFFFFFFFFFFFFFFFFFFFFFFFFFFFFF DUP3 AND SWAP1 POP SWAP2 SWAP1 POP JUMP JUMPDEST PUSH1 0x0 PUSH3 0xF1 DUP3 PUSH3 0xC4 JUMP JUMPDEST SWAP1 POP SWAP2 SWAP1 POP JUMP JUMPDEST PUSH3 0x103 DUP2 PUSH3 0xE4 JUMP JUMPDEST DUP2 EQ PUSH3 0x10F JUMPI PUSH1 0x0 DUP1 REVERT JUMPDEST POP JUMP JUMPDEST PUSH1 0x0 DUP2 MLOAD SWAP1 POP PUSH3 0x123 DUP2 PUSH3 0xF8 JUMP JUMPDEST SWAP3 SWAP2 POP POP JUMP JUMPDEST PUSH1 0x0 PUSH1 0x20 DUP3 DUP5 SUB SLT ISZERO PUSH3 0x142 JUMPI PUSH3 0x141 PUSH3 0xBF JUMP JUMPDEST JUMPDEST PUSH1 0x0 PUSH3 0x152 DUP5 DUP3 DUP6 ADD PUSH3 0x112 JUMP JUMPDEST SWAP2 POP POP SWAP3 SWAP2 POP POP JUMP JUMPDEST PUSH2 0x3DFF DUP1 PUSH3 0x16B PUSH1 0x0 CODECOPY PUSH1 0x0 RETURN INVALID PUSH1 0x80 PUSH1 0x40 MSTORE PUSH1 0x4 CALLDATASIZE LT PUSH3 0x44 JUMPI PUSH1 0x0 CALLDATALOAD PUSH1 0xE0 SHR DUP1 PUSH4 0x51EB27C0 EQ PUSH3 0x49 JUMPI DUP1 PUSH4 0x86BB5A48 EQ PUSH3 0x8F JUMPI DUP1 PUSH4 0x8DA5CB5B EQ PUSH3 0xAF JUMPI DUP1 PUSH4 0xC55F4682 EQ PUSH3 0xDF JUMPI JUMPDEST PUSH1 0x0 DUP1 REVERT JUMPDEST CALLVALUE DUP1 ISZERO PUSH3 0x56 JUMPI PUSH1 0x0 DUP1 REVERT JUMPDEST POP PUSH3 0x75 PUSH1 0x4 DUP1 CALLDATASIZE SUB DUP2 ADD SWAP1 PUSH3 0x6F SWAP2 SWAP1 PUSH3 0xB34 JUMP JUMPDEST PUSH3 0x10D JUMP JUMPDEST PUSH1 0x40 MLOAD PUSH3 0x86 SWAP4 SWAP3 SWAP2 SWAP1 PUSH3 0xC37 JUMP JUMPDEST PUSH1 0x40 MLOAD DUP1 SWAP2 SUB SWAP1 RETURN JUMPDEST PUSH3 0xAD PUSH1 0x4 DUP1 CALLDATASIZE SUB DUP2 ADD SWAP1 PUSH3 0xA7 SWAP2 SWAP1 PUSH3 0xC7B JUMP JUMPDEST PUSH3 0x205 JUMP JUMPDEST STOP JUMPDEST CALLVALUE DUP1 ISZERO PUSH3 0xBC JUMPI PUSH1 0x0 DUP1 REVERT JUMPDEST POP PUSH3 0xC7 PUSH3 0x72A JUMP JUMPDEST PUSH1 0x40 MLOAD PUSH3 0xD6 SWAP2 SWAP1 PUSH3 0xCAD JUMP JUMPDEST PUSH1 0x40 MLOAD DUP1 SWAP2 SUB SWAP1 RETURN JUMPDEST CALLVALUE DUP1 ISZERO PUSH3 0xEC JUMPI PUSH1 0x0 DUP1 REVERT JUMPDEST POP PUSH3 0x10B PUSH1 0x4 DUP1 CALLDATASIZE SUB DUP2 ADD SWAP1 PUSH3 0x105 SWAP2 SWAP1 PUSH3 0xE1B JUMP JUMPDEST PUSH3 0x74E JUMP JUMPDEST STOP JUMPDEST PUSH1 0x2 PUSH1 0x20 MSTORE DUP2 PUSH1 0x0 MSTORE PUSH1 0x40 PUSH1 0x0 KECCAK256 DUP2 DUP2 SLOAD DUP2 LT PUSH3 0x12A JUMPI PUSH1 0x0 DUP1 REVERT JUMPDEST SWAP1 PUSH1 0x0 MSTORE PUSH1 0x20 PUSH1 0x0 KECCAK256 SWAP1 PUSH1 0x3 MUL ADD PUSH1 0x0 SWAP2 POP SWAP2 POP POP DUP1 PUSH1 0x0 ADD PUSH1 0x0 SWAP1 SLOAD SWAP1 PUSH2 0x100 EXP SWAP1 DIV PUSH20 0xFFFFFFFFFFFFFFFFFFFFFFFFFFFFFFFFFFFFFFFF AND SWAP1 DUP1 PUSH1 0x1 ADD DUP1 SLOAD PUSH3 0x176 SWAP1 PUSH3 0xF2F JUMP JUMPDEST DUP1 PUSH1 0x1F ADD PUSH1 0x20 DUP1 SWAP2 DIV MUL PUSH1 0x20 ADD PUSH1 0x40 MLOAD SWAP1 DUP2 ADD PUSH1 0x40 MSTORE DUP1 SWAP3 SWAP2 SWAP1 DUP2 DUP2 MSTORE PUSH1 0x20 ADD DUP3 DUP1 SLOAD PUSH3 0x1A4 SWAP1 PUSH3 0xF2F JUMP JUMPDEST DUP1 ISZERO PUSH3 0x1F5 JUMPI DUP1 PUSH1 0x1F LT PUSH3 0x1C9 JUMPI PUSH2 0x100 DUP1 DUP4 SLOAD DIV MUL DUP4 MSTORE SWAP2 PUSH1 0x20 ADD SWAP2 PUSH3 0x1F5 JUMP JUMPDEST DUP3 ADD SWAP2 SWAP1 PUSH1 0x0 MSTORE PUSH1 0x20 PUSH1 0x0 KECCAK256 SWAP1 JUMPDEST DUP2 SLOAD DUP2 MSTORE SWAP1 PUSH1 0x1 ADD SWAP1 PUSH1 0x20 ADD DUP1 DUP4 GT PUSH3 0x1D7 JUMPI DUP3 SWAP1 SUB PUSH1 0x1F AND DUP3 ADD SWAP2 JUMPDEST POP POP POP POP POP SWAP1 DUP1 PUSH1 0x2 ADD SLOAD SWAP1 POP DUP4 JUMP JUMPDEST PUSH1 0x0 PUSH1 0x2 PUSH1 0x0 CALLER PUSH20 0xFFFFFFFFFFFFFFFFFFFFFFFFFFFFFFFFFFFFFFFF AND PUSH20 0xFFFFFFFFFFFFFFFFFFFFFFFFFFFFFFFFFFFFFFFF AND DUP2 MSTORE PUSH1 0x20 ADD SWAP1 DUP2 MSTORE PUSH1 0x20 ADD PUSH1 0x0 KECCAK256 DUP1 SLOAD DUP1 PUSH1 0x20 MUL PUSH1 0x20 ADD PUSH1 0x40 MLOAD SWAP1 DUP2 ADD PUSH1 0x40 MSTORE DUP1 SWAP3 SWAP2 SWAP1 DUP2 DUP2 MSTORE PUSH1 0x20 ADD PUSH1 0x0 SWAP1 JUMPDEST DUP3 DUP3 LT ISZERO PUSH3 0x394 JUMPI DUP4 DUP3 SWAP1 PUSH1 0x0 MSTORE PUSH1 0x20 PUSH1 0x0 KECCAK256 SWAP1 PUSH1 0x3 MUL ADD PUSH1 0x40 MLOAD DUP1 PUSH1 0x60 ADD PUSH1 0x40 MSTORE SWAP1 DUP2 PUSH1 0x0 DUP3 ADD PUSH1 0x0 SWAP1 SLOAD SWAP1 PUSH2 0x100 EXP SWAP1 DIV PUSH20 0xFFFFFFFFFFFFFFFFFFFFFFFFFFFFFFFFFFFFFFFF AND PUSH20 0xFFFFFFFFFFFFFFFFFFFFFFFFFFFFFFFFFFFFFFFF AND PUSH20 0xFFFFFFFFFFFFFFFFFFFFFFFFFFFFFFFFFFFFFFFF AND DUP2 MSTORE PUSH1 0x20 ADD PUSH1 0x1 DUP3 ADD DUP1 SLOAD PUSH3 0x2F2 SWAP1 PUSH3 0xF2F JUMP JUMPDEST DUP1 PUSH1 0x1F ADD PUSH1 0x20 DUP1 SWAP2 DIV MUL PUSH1 0x20 ADD PUSH1 0x40 MLOAD SWAP1 DUP2 ADD PUSH1 0x40 MSTORE DUP1 SWAP3 SWAP2 SWAP1 DUP2 DUP2 MSTORE PUSH1 0x20 ADD DUP3 DUP1 SLOAD PUSH3 0x320 SWAP1 PUSH3 0xF2F JUMP JUMPDEST DUP1 ISZERO PUSH3 0x371 JUMPI DUP1 PUSH1 0x1F LT PUSH3 0x345 JUMPI PUSH2 0x100 DUP1 DUP4 SLOAD DIV MUL DUP4 MSTORE SWAP2 PUSH1 0x20 ADD SWAP2 PUSH3 0x371 JUMP JUMPDEST DUP3 ADD SWAP2 SWAP1 PUSH1 0x0 MSTORE PUSH1 0x20 PUSH1 0x0 KECCAK256 SWAP1 JUMPDEST DUP2 SLOAD DUP2 MSTORE SWAP1 PUSH1 0x1 ADD SWAP1 PUSH1 0x20 ADD DUP1 DUP4 GT PUSH3 0x353 JUMPI DUP3 SWAP1 SUB PUSH1 0x1F AND DUP3 ADD SWAP2 JUMPDEST POP POP POP POP POP DUP2 MSTORE PUSH1 0x20 ADD PUSH1 0x2 DUP3 ADD SLOAD DUP2 MSTORE POP POP DUP2 MSTORE PUSH1 0x20 ADD SWAP1 PUSH1 0x1 ADD SWAP1 PUSH3 0x266 JUMP JUMPDEST POP POP POP POP SWAP1 POP PUSH1 0x0 PUSH3 0x3A6 PUSH3 0xA3B JUMP JUMPDEST PUSH1 0x0 JUMPDEST DUP4 MLOAD DUP2 LT ISZERO PUSH3 0x440 JUMPI DUP5 PUSH20 0xFFFFFFFFFFFFFFFFFFFFFFFFFFFFFFFFFFFFFFFF AND DUP5 DUP3 DUP2 MLOAD DUP2 LT PUSH3 0x3E0 JUMPI PUSH3 0x3DF PUSH3 0xF64 JUMP JUMPDEST JUMPDEST PUSH1 0x20 MUL PUSH1 0x20 ADD ADD MLOAD PUSH1 0x0 ADD MLOAD PUSH20 0xFFFFFFFFFFFFFFFFFFFFFFFFFFFFFFFFFFFFFFFF AND SUB PUSH3 0x432 JUMPI DUP4 DUP2 DUP2 MLOAD DUP2 LT PUSH3 0x41E JUMPI PUSH3 0x41D PUSH3 0xF64 JUMP JUMPDEST JUMPDEST PUSH1 0x20 MUL PUSH1 0x20 ADD ADD MLOAD SWAP2 POP PUSH1 0x1 SWAP3 POP PUSH3 0x440 JUMP JUMPDEST DUP1 DUP1 PUSH1 0x1 ADD SWAP2 POP POP PUSH3 0x3A9 JUMP JUMPDEST POP DUP2 PUSH3 0x484 JUMPI PUSH1 0x40 MLOAD PUSH32 0x8C379A000000000000000000000000000000000000000000000000000000000 DUP2 MSTORE PUSH1 0x4 ADD PUSH3 0x47B SWAP1 PUSH3 0x1009 JUMP JUMPDEST PUSH1 0x40 MLOAD DUP1 SWAP2 SUB SWAP1 REVERT JUMPDEST PUSH1 0x0 PUSH3 0x490 PUSH3 0x997 JUMP JUMPDEST SWAP1 POP PUSH1 0x0 DUP2 SGT PUSH3 0x4D8 JUMPI PUSH1 0x40 MLOAD PUSH32 0x8C379A000000000000000000000000000000000000000000000000000000000 DUP2 MSTORE PUSH1 0x4 ADD PUSH3 0x4CF SWAP1 PUSH3 0x107B JUMP JUMPDEST PUSH1 0x40 MLOAD DUP1 SWAP2 SUB SWAP1 REVERT JUMPDEST PUSH1 0x0 PUSH4 0x5F5E100 DUP3 CALLVALUE PUSH3 0x4ED SWAP2 SWAP1 PUSH3 0x10CC JUMP JUMPDEST PUSH3 0x4F9 SWAP2 SWAP1 PUSH3 0x1146 JUMP JUMPDEST SWAP1 POP PUSH1 0x0 DUP2 GT PUSH3 0x541 JUMPI PUSH1 0x40 MLOAD PUSH32 0x8C379A000000000000000000000000000000000000000000000000000000000 DUP2 MSTORE PUSH1 0x4 ADD PUSH3 0x538 SWAP1 PUSH3 0x11CE JUMP JUMPDEST PUSH1 0x40 MLOAD DUP1 SWAP2 SUB SWAP1 REVERT JUMPDEST PUSH1 0x0 DUP4 PUSH1 0x40 ADD MLOAD PUSH8 0xDE0B6B3A7640000 DUP4 PUSH3 0x55E SWAP2 SWAP1 PUSH3 0x10CC JUMP JUMPDEST PUSH3 0x56A SWAP2 SWAP1 PUSH3 0x1146 JUMP JUMPDEST SWAP1 POP PUSH1 0x0 DUP8 SWAP1 POP DUP2 DUP2 PUSH20 0xFFFFFFFFFFFFFFFFFFFFFFFFFFFFFFFFFFFFFFFF AND PUSH4 0x70A08231 ADDRESS PUSH1 0x40 MLOAD DUP3 PUSH4 0xFFFFFFFF AND PUSH1 0xE0 SHL DUP2 MSTORE PUSH1 0x4 ADD PUSH3 0x5AD SWAP2 SWAP1 PUSH3 0xCAD JUMP JUMPDEST PUSH1 0x20 PUSH1 0x40 MLOAD DUP1 DUP4 SUB DUP2 DUP7 GAS STATICCALL ISZERO DUP1 ISZERO PUSH3 0x5CB JUMPI RETURNDATASIZE PUSH1 0x0 DUP1 RETURNDATACOPY RETURNDATASIZE PUSH1 0x0 REVERT JUMPDEST POP POP POP POP PUSH1 0x40 MLOAD RETURNDATASIZE PUSH1 0x1F NOT PUSH1 0x1F DUP3 ADD AND DUP3 ADD DUP1 PUSH1 0x40 MSTORE POP DUP2 ADD SWAP1 PUSH3 0x5F1 SWAP2 SWAP1 PUSH3 0x1207 JUMP JUMPDEST LT ISZERO PUSH3 0x635 JUMPI PUSH1 0x40 MLOAD PUSH32 0x8C379A000000000000000000000000000000000000000000000000000000000 DUP2 MSTORE PUSH1 0x4 ADD PUSH3 0x62C SWAP1 PUSH3 0x1289 JUMP JUMPDEST PUSH1 0x40 MLOAD DUP1 SWAP2 SUB SWAP1 REVERT JUMPDEST DUP1 PUSH20 0xFFFFFFFFFFFFFFFFFFFFFFFFFFFFFFFFFFFFFFFF AND PUSH4 0xA9059CBB CALLER DUP5 PUSH1 0x40 MLOAD DUP4 PUSH4 0xFFFFFFFF AND PUSH1 0xE0 SHL DUP2 MSTORE PUSH1 0x4 ADD PUSH3 0x672 SWAP3 SWAP2 SWAP1 PUSH3 0x12AB JUMP JUMPDEST PUSH1 0x20 PUSH1 0x40 MLOAD DUP1 DUP4 SUB DUP2 PUSH1 0x0 DUP8 GAS CALL ISZERO DUP1 ISZERO PUSH3 0x692 JUMPI RETURNDATASIZE PUSH1 0x0 DUP1 RETURNDATACOPY RETURNDATASIZE PUSH1 0x0 REVERT JUMPDEST POP POP POP POP PUSH1 0x40 MLOAD RETURNDATASIZE PUSH1 0x1F NOT PUSH1 0x1F DUP3 ADD AND DUP3 ADD DUP1 PUSH1 0x40 MSTORE POP DUP2 ADD SWAP1 PUSH3 0x6B8 SWAP2 SWAP1 PUSH3 0x1315 JUMP JUMPDEST POP DUP8 PUSH20 0xFFFFFFFFFFFFFFFFFFFFFFFFFFFFFFFFFFFFFFFF AND CALLER PUSH20 0xFFFFFFFFFFFFFFFFFFFFFFFFFFFFFFFFFFFFFFFF AND PUSH32 0xA5D5E5898103A502FA4B6A25B2AFACDC96E4DB96D19AB4FB886F767B98ECA3FB DUP5 PUSH1 0x40 MLOAD PUSH3 0x718 SWAP2 SWAP1 PUSH3 0x1347 JUMP JUMPDEST PUSH1 0x40 MLOAD DUP1 SWAP2 SUB SWAP1 LOG3 POP POP POP POP POP POP POP POP JUMP JUMPDEST PUSH1 0x0 DUP1 SLOAD SWAP1 PUSH2 0x100 EXP SWAP1 DIV PUSH20 0xFFFFFFFFFFFFFFFFFFFFFFFFFFFFFFFFFFFFFFFF AND DUP2 JUMP JUMPDEST PUSH1 0x0 DUP1 SLOAD SWAP1 PUSH2 0x100 EXP SWAP1 DIV PUSH20 0xFFFFFFFFFFFFFFFFFFFFFFFFFFFFFFFFFFFFFFFF AND PUSH20 0xFFFFFFFFFFFFFFFFFFFFFFFFFFFFFFFFFFFFFFFF AND CALLER PUSH20 0xFFFFFFFFFFFFFFFFFFFFFFFFFFFFFFFFFFFFFFFF AND EQ PUSH3 0x7DF JUMPI PUSH1 0x40 MLOAD PUSH32 0x8C379A000000000000000000000000000000000000000000000000000000000 DUP2 MSTORE PUSH1 0x4 ADD PUSH3 0x7D6 SWAP1 PUSH3 0x13DA JUMP JUMPDEST PUSH1 0x40 MLOAD DUP1 SWAP2 SUB SWAP1 REVERT JUMPDEST PUSH1 0x0 DUP6 DUP6 DUP6 CALLER PUSH1 0x40 MLOAD PUSH3 0x7F3 SWAP1 PUSH3 0xA72 JUMP JUMPDEST PUSH3 0x802 SWAP5 SWAP4 SWAP3 SWAP2 SWAP1 PUSH3 0x13FC JUMP JUMPDEST PUSH1 0x40 MLOAD DUP1 SWAP2 SUB SWAP1 PUSH1 0x0 CREATE DUP1 ISZERO DUP1 ISZERO PUSH3 0x81F JUMPI RETURNDATASIZE PUSH1 0x0 DUP1 RETURNDATACOPY RETURNDATASIZE PUSH1 0x0 REVERT JUMPDEST POP SWAP1 POP PUSH1 0x2 PUSH1 0x0 CALLER PUSH20 0xFFFFFFFFFFFFFFFFFFFFFFFFFFFFFFFFFFFFFFFF AND PUSH20 0xFFFFFFFFFFFFFFFFFFFFFFFFFFFFFFFFFFFFFFFF AND DUP2 MSTORE PUSH1 0x20 ADD SWAP1 DUP2 MSTORE PUSH1 0x20 ADD PUSH1 0x0 KECCAK256 PUSH1 0x40 MLOAD DUP1 PUSH1 0x60 ADD PUSH1 0x40 MSTORE DUP1 DUP4 PUSH20 0xFFFFFFFFFFFFFFFFFFFFFFFFFFFFFFFFFFFFFFFF AND DUP2 MSTORE PUSH1 0x20 ADD DUP5 DUP2 MSTORE PUSH1 0x20 ADD DUP6 DUP2 MSTORE POP SWAP1 DUP1 PUSH1 0x1 DUP2 SLOAD ADD DUP1 DUP3 SSTORE DUP1 SWAP2 POP POP PUSH1 0x1 SWAP1 SUB SWAP1 PUSH1 0x0 MSTORE PUSH1 0x20 PUSH1 0x0 KECCAK256 SWAP1 PUSH1 0x3 MUL ADD PUSH1 0x0 SWAP1 SWAP2 SWAP1 SWAP2 SWAP1 SWAP2 POP PUSH1 0x0 DUP3 ADD MLOAD DUP2 PUSH1 0x0 ADD PUSH1 0x0 PUSH2 0x100 EXP DUP2 SLOAD DUP2 PUSH20 0xFFFFFFFFFFFFFFFFFFFFFFFFFFFFFFFFFFFFFFFF MUL NOT AND SWAP1 DUP4 PUSH20 0xFFFFFFFFFFFFFFFFFFFFFFFFFFFFFFFFFFFFFFFF AND MUL OR SWAP1 SSTORE POP PUSH1 0x20 DUP3 ADD MLOAD DUP2 PUSH1 0x1 ADD SWAP1 DUP2 PUSH3 0x919 SWAP2 SWAP1 PUSH3 0x1629 JUMP JUMPDEST POP PUSH1 0x40 DUP3 ADD MLOAD DUP2 PUSH1 0x2 ADD SSTORE POP POP DUP1 PUSH20 0xFFFFFFFFFFFFFFFFFFFFFFFFFFFFFFFFFFFFFFFF AND CALLER PUSH20 0xFFFFFFFFFFFFFFFFFFFFFFFFFFFFFFFFFFFFFFFF AND PUSH32 0xE08AAB1D483FAF2D4CB376B9B80D9C8F5A288DD6CD1DCAA278044FE30E79610E DUP5 DUP7 PUSH1 0x40 MLOAD PUSH3 0x987 SWAP3 SWAP2 SWAP1 PUSH3 0x1710 JUMP JUMPDEST PUSH1 0x40 MLOAD DUP1 SWAP2 SUB SWAP1 LOG3 POP POP POP POP POP POP JUMP JUMPDEST PUSH1 0x0 DUP1 PUSH1 0x1 PUSH1 0x0 SWAP1 SLOAD SWAP1 PUSH2 0x100 EXP SWAP1 DIV PUSH20 0xFFFFFFFFFFFFFFFFFFFFFFFFFFFFFFFFFFFFFFFF AND PUSH20 0xFFFFFFFFFFFFFFFFFFFFFFFFFFFFFFFFFFFFFFFF AND PUSH4 0xFEAF968C PUSH1 0x40 MLOAD DUP2 PUSH4 0xFFFFFFFF AND PUSH1 0xE0 SHL DUP2 MSTORE PUSH1 0x4 ADD PUSH1 0xA0 PUSH1 0x40 MLOAD DUP1 DUP4 SUB DUP2 DUP7 GAS STATICCALL ISZERO DUP1 ISZERO PUSH3 0xA08 JUMPI RETURNDATASIZE PUSH1 0x0 DUP1 RETURNDATACOPY RETURNDATASIZE PUSH1 0x0 REVERT JUMPDEST POP POP POP POP PUSH1 0x40 MLOAD RETURNDATASIZE PUSH1 0x1F NOT PUSH1 0x1F DUP3 ADD AND DUP3 ADD DUP1 PUSH1 0x40 MSTORE POP DUP2 ADD SWAP1 PUSH3 0xA2E SWAP2 SWAP1 PUSH3 0x17C6 JUMP JUMPDEST POP POP POP SWAP2 POP POP DUP1 SWAP2 POP POP SWAP1 JUMP JUMPDEST PUSH1 0x40 MLOAD DUP1 PUSH1 0x60 ADD PUSH1 0x40 MSTORE DUP1 PUSH1 0x0 PUSH20 0xFFFFFFFFFFFFFFFFFFFFFFFFFFFFFFFFFFFFFFFF AND DUP2 MSTORE PUSH1 0x20 ADD PUSH1 0x60 DUP2 MSTORE PUSH1 0x20 ADD PUSH1 0x0 DUP2 MSTORE POP SWAP1 JUMP JUMPDEST PUSH2 0x257B DUP1 PUSH3 0x184F DUP4 CODECOPY ADD SWAP1 JUMP JUMPDEST PUSH1 0x0 PUSH1 0x40 MLOAD SWAP1 POP SWAP1 JUMP JUMPDEST PUSH1 0x0 DUP1 REVERT JUMPDEST PUSH1 0x0 DUP1 REVERT JUMPDEST PUSH1 0x0 PUSH20 0xFFFFFFFFFFFFFFFFFFFFFFFFFFFFFFFFFFFFFFFF DUP3 AND SWAP1 POP SWAP2 SWAP1 POP JUMP JUMPDEST PUSH1 0x0 PUSH3 0xAC1 DUP3 PUSH3 0xA94 JUMP JUMPDEST SWAP1 POP SWAP2 SWAP1 POP JUMP JUMPDEST PUSH3 0xAD3 DUP2 PUSH3 0xAB4 JUMP JUMPDEST DUP2 EQ PUSH3 0xADF JUMPI PUSH1 0x0 DUP1 REVERT JUMPDEST POP JUMP JUMPDEST PUSH1 0x0 DUP2 CALLDATALOAD SWAP1 POP PUSH3 0xAF3 DUP2 PUSH3 0xAC8 JUMP JUMPDEST SWAP3 SWAP2 POP POP JUMP JUMPDEST PUSH1 0x0 DUP2 SWAP1 POP SWAP2 SWAP1 POP JUMP JUMPDEST PUSH3 0xB0E DUP2 PUSH3 0xAF9 JUMP JUMPDEST DUP2 EQ PUSH3 0xB1A JUMPI PUSH1 0x0 DUP1 REVERT JUMPDEST POP JUMP JUMPDEST PUSH1 0x0 DUP2 CALLDATALOAD SWAP1 POP PUSH3 0xB2E DUP2 PUSH3 0xB03 JUMP JUMPDEST SWAP3 SWAP2 POP POP JUMP JUMPDEST PUSH1 0x0 DUP1 PUSH1 0x40 DUP4 DUP6 SUB SLT ISZERO PUSH3 0xB4E JUMPI PUSH3 0xB4D PUSH3 0xA8A JUMP JUMPDEST JUMPDEST PUSH1 0x0 PUSH3 0xB5E DUP6 DUP3 DUP7 ADD PUSH3 0xAE2 JUMP JUMPDEST SWAP3 POP POP PUSH1 0x20 PUSH3 0xB71 DUP6 DUP3 DUP7 ADD PUSH3 0xB1D JUMP JUMPDEST SWAP2 POP POP SWAP3 POP SWAP3 SWAP1 POP JUMP JUMPDEST PUSH3 0xB86 DUP2 PUSH3 0xAB4 JUMP JUMPDEST DUP3 MSTORE POP POP JUMP JUMPDEST PUSH1 0x0 DUP2 MLOAD SWAP1 POP SWAP2 SWAP1 POP JUMP JUMPDEST PUSH1 0x0 DUP3 DUP3 MSTORE PUSH1 0x20 DUP3 ADD SWAP1 POP SWAP3 SWAP2 POP POP JUMP JUMPDEST PUSH1 0x0 JUMPDEST DUP4 DUP2 LT ISZERO PUSH3 0xBC8 JUMPI DUP1 DUP3 ADD MLOAD DUP2 DUP5 ADD MSTORE PUSH1 0x20 DUP2 ADD SWAP1 POP PUSH3 0xBAB JUMP JUMPDEST PUSH1 0x0 DUP5 DUP5 ADD MSTORE POP POP POP POP JUMP JUMPDEST PUSH1 0x0 PUSH1 0x1F NOT PUSH1 0x1F DUP4 ADD AND SWAP1 POP SWAP2 SWAP1 POP JUMP JUMPDEST PUSH1 0x0 PUSH3 0xBF2 DUP3 PUSH3 0xB8C JUMP JUMPDEST PUSH3 0xBFE DUP2 DUP6 PUSH3 0xB97 JUMP JUMPDEST SWAP4 POP PUSH3 0xC10 DUP2 DUP6 PUSH1 0x20 DUP7 ADD PUSH3 0xBA8 JUMP JUMPDEST PUSH3 0xC1B DUP2 PUSH3 0xBD4 JUMP JUMPDEST DUP5 ADD SWAP2 POP POP SWAP3 SWAP2 POP POP JUMP JUMPDEST PUSH3 0xC31 DUP2 PUSH3 0xAF9 JUMP JUMPDEST DUP3 MSTORE POP POP JUMP JUMPDEST PUSH1 0x0 PUSH1 0x60 DUP3 ADD SWAP1 POP PUSH3 0xC4E PUSH1 0x0 DUP4 ADD DUP7 PUSH3 0xB7B JUMP JUMPDEST DUP2 DUP2 SUB PUSH1 0x20 DUP4 ADD MSTORE PUSH3 0xC62 DUP2 DUP6 PUSH3 0xBE5 JUMP JUMPDEST SWAP1 POP PUSH3 0xC73 PUSH1 0x40 DUP4 ADD DUP5 PUSH3 0xC26 JUMP JUMPDEST SWAP5 SWAP4 POP POP POP POP JUMP JUMPDEST PUSH1 0x0 PUSH1 0x20 DUP3 DUP5 SUB SLT ISZERO PUSH3 0xC94 JUMPI PUSH3 0xC93 PUSH3 0xA8A JUMP JUMPDEST JUMPDEST PUSH1 0x0 PUSH3 0xCA4 DUP5 DUP3 DUP6 ADD PUSH3 0xAE2 JUMP JUMPDEST SWAP2 POP POP SWAP3 SWAP2 POP POP JUMP JUMPDEST PUSH1 0x0 PUSH1 0x20 DUP3 ADD SWAP1 POP PUSH3 0xCC4 PUSH1 0x0 DUP4 ADD DUP5 PUSH3 0xB7B JUMP JUMPDEST SWAP3 SWAP2 POP POP JUMP JUMPDEST PUSH1 0x0 DUP1 REVERT JUMPDEST PUSH1 0x0 DUP1 REVERT JUMPDEST PUSH32 0x4E487B7100000000000000000000000000000000000000000000000000000000 PUSH1 0x0 MSTORE PUSH1 0x41 PUSH1 0x4 MSTORE PUSH1 0x24 PUSH1 0x0 REVERT JUMPDEST PUSH3 0xD0E DUP3 PUSH3 0xBD4 JUMP JUMPDEST DUP2 ADD DUP2 DUP2 LT PUSH8 0xFFFFFFFFFFFFFFFF DUP3 GT OR ISZERO PUSH3 0xD30 JUMPI PUSH3 0xD2F PUSH3 0xCD4 JUMP JUMPDEST JUMPDEST DUP1 PUSH1 0x40 MSTORE POP POP POP JUMP JUMPDEST PUSH1 0x0 PUSH3 0xD45 PUSH3 0xA80 JUMP JUMPDEST SWAP1 POP PUSH3 0xD53 DUP3 DUP3 PUSH3 0xD03 JUMP JUMPDEST SWAP2 SWAP1 POP JUMP JUMPDEST PUSH1 0x0 PUSH8 0xFFFFFFFFFFFFFFFF DUP3 GT ISZERO PUSH3 0xD76 JUMPI PUSH3 0xD75 PUSH3 0xCD4 JUMP JUMPDEST JUMPDEST PUSH3 0xD81 DUP3 PUSH3 0xBD4 JUMP JUMPDEST SWAP1 POP PUSH1 0x20 DUP2 ADD SWAP1 POP SWAP2 SWAP1 POP JUMP JUMPDEST DUP3 DUP2 DUP4 CALLDATACOPY PUSH1 0x0 DUP4 DUP4 ADD MSTORE POP POP POP JUMP JUMPDEST PUSH1 0x0 PUSH3 0xDB4 PUSH3 0xDAE DUP5 PUSH3 0xD58 JUMP JUMPDEST PUSH3 0xD39 JUMP JUMPDEST SWAP1 POP DUP3 DUP2 MSTORE PUSH1 0x20 DUP2 ADD DUP5 DUP5 DUP5 ADD GT ISZERO PUSH3 0xDD3 JUMPI PUSH3 0xDD2 PUSH3 0xCCF JUMP JUMPDEST JUMPDEST PUSH3 0xDE0 DUP5 DUP3 DUP6 PUSH3 0xD8E JUMP JUMPDEST POP SWAP4 SWAP3 POP POP POP JUMP JUMPDEST PUSH1 0x0 DUP3 PUSH1 0x1F DUP4 ADD SLT PUSH3 0xE00 JUMPI PUSH3 0xDFF PUSH3 0xCCA JUMP JUMPDEST JUMPDEST DUP2 CALLDATALOAD PUSH3 0xE12 DUP5 DUP3 PUSH1 0x20 DUP7 ADD PUSH3 0xD9D JUMP JUMPDEST SWAP2 POP POP SWAP3 SWAP2 POP POP JUMP JUMPDEST PUSH1 0x0 DUP1 PUSH1 0x0 DUP1 PUSH1 0x0 PUSH1 0xA0 DUP7 DUP9 SUB SLT ISZERO PUSH3 0xE3A JUMPI PUSH3 0xE39 PUSH3 0xA8A JUMP JUMPDEST JUMPDEST PUSH1 0x0 DUP7 ADD CALLDATALOAD PUSH8 0xFFFFFFFFFFFFFFFF DUP2 GT ISZERO PUSH3 0xE5B JUMPI PUSH3 0xE5A PUSH3 0xA8F JUMP JUMPDEST JUMPDEST PUSH3 0xE69 DUP9 DUP3 DUP10 ADD PUSH3 0xDE8 JUMP JUMPDEST SWAP6 POP POP PUSH1 0x20 DUP7 ADD CALLDATALOAD PUSH8 0xFFFFFFFFFFFFFFFF DUP2 GT ISZERO PUSH3 0xE8D JUMPI PUSH3 0xE8C PUSH3 0xA8F JUMP JUMPDEST JUMPDEST PUSH3 0xE9B DUP9 DUP3 DUP10 ADD PUSH3 0xDE8 JUMP JUMPDEST SWAP5 POP POP PUSH1 0x40 PUSH3 0xEAE DUP9 DUP3 DUP10 ADD PUSH3 0xB1D JUMP JUMPDEST SWAP4 POP POP PUSH1 0x60 PUSH3 0xEC1 DUP9 DUP3 DUP10 ADD PUSH3 0xB1D JUMP JUMPDEST SWAP3 POP POP PUSH1 0x80 DUP7 ADD CALLDATALOAD PUSH8 0xFFFFFFFFFFFFFFFF DUP2 GT ISZERO PUSH3 0xEE5 JUMPI PUSH3 0xEE4 PUSH3 0xA8F JUMP JUMPDEST JUMPDEST PUSH3 0xEF3 DUP9 DUP3 DUP10 ADD PUSH3 0xDE8 JUMP JUMPDEST SWAP2 POP POP SWAP3 SWAP6 POP SWAP3 SWAP6 SWAP1 SWAP4 POP JUMP JUMPDEST PUSH32 0x4E487B7100000000000000000000000000000000000000000000000000000000 PUSH1 0x0 MSTORE PUSH1 0x22 PUSH1 0x4 MSTORE PUSH1 0x24 PUSH1 0x0 REVERT JUMPDEST PUSH1 0x0 PUSH1 0x2 DUP3 DIV SWAP1 POP PUSH1 0x1 DUP3 AND DUP1 PUSH3 0xF48 JUMPI PUSH1 0x7F DUP3 AND SWAP2 POP JUMPDEST PUSH1 0x20 DUP3 LT DUP2 SUB PUSH3 0xF5E JUMPI PUSH3 0xF5D PUSH3 0xF00 JUMP JUMPDEST JUMPDEST POP SWAP2 SWAP1 POP JUMP JUMPDEST PUSH32 0x4E487B7100000000000000000000000000000000000000000000000000000000 PUSH1 0x0 MSTORE PUSH1 0x32 PUSH1 0x4 MSTORE PUSH1 0x24 PUSH1 0x0 REVERT JUMPDEST PUSH32 0x417373657420646F6573206E6F7420657869737420666F722074686520757365 PUSH1 0x0 DUP3 ADD MSTORE PUSH32 0x7200000000000000000000000000000000000000000000000000000000000000 PUSH1 0x20 DUP3 ADD MSTORE POP JUMP JUMPDEST PUSH1 0x0 PUSH3 0xFF1 PUSH1 0x21 DUP4 PUSH3 0xB97 JUMP JUMPDEST SWAP2 POP PUSH3 0xFFE DUP3 PUSH3 0xF93 JUMP JUMPDEST PUSH1 0x40 DUP3 ADD SWAP1 POP SWAP2 SWAP1 POP JUMP JUMPDEST PUSH1 0x0 PUSH1 0x20 DUP3 ADD SWAP1 POP DUP2 DUP2 SUB PUSH1 0x0 DUP4 ADD MSTORE PUSH3 0x1024 DUP2 PUSH3 0xFE2 JUMP JUMPDEST SWAP1 POP SWAP2 SWAP1 POP JUMP JUMPDEST PUSH32 0x496E76616C6964204554482F5553442070726963650000000000000000000000 PUSH1 0x0 DUP3 ADD MSTORE POP JUMP JUMPDEST PUSH1 0x0 PUSH3 0x1063 PUSH1 0x15 DUP4 PUSH3 0xB97 JUMP JUMPDEST SWAP2 POP PUSH3 0x1070 DUP3 PUSH3 0x102B JUMP JUMPDEST PUSH1 0x20 DUP3 ADD SWAP1 POP SWAP2 SWAP1 POP JUMP JUMPDEST PUSH1 0x0 PUSH1 0x20 DUP3 ADD SWAP1 POP DUP2 DUP2 SUB PUSH1 0x0 DUP4 ADD MSTORE PUSH3 0x1096 DUP2 PUSH3 0x1054 JUMP JUMPDEST SWAP1 POP SWAP2 SWAP1 POP JUMP JUMPDEST PUSH32 0x4E487B7100000000000000000000000000000000000000000000000000000000 PUSH1 0x0 MSTORE PUSH1 0x11 PUSH1 0x4 MSTORE PUSH1 0x24 PUSH1 0x0 REVERT JUMPDEST PUSH1 0x0 PUSH3 0x10D9 DUP3 PUSH3 0xAF9 JUMP JUMPDEST SWAP2 POP PUSH3 0x10E6 DUP4 PUSH3 0xAF9 JUMP JUMPDEST SWAP3 POP DUP3 DUP3 MUL PUSH3 0x10F6 DUP2 PUSH3 0xAF9 JUMP JUMPDEST SWAP2 POP DUP3 DUP3 DIV DUP5 EQ DUP4 ISZERO OR PUSH3 0x1110 JUMPI PUSH3 0x110F PUSH3 0x109D JUMP JUMPDEST JUMPDEST POP SWAP3 SWAP2 POP POP JUMP JUMPDEST PUSH32 0x4E487B7100000000000000000000000000000000000000000000000000000000 PUSH1 0x0 MSTORE PUSH1 0x12 PUSH1 0x4 MSTORE PUSH1 0x24 PUSH1 0x0 REVERT JUMPDEST PUSH1 0x0 PUSH3 0x1153 DUP3 PUSH3 0xAF9 JUMP JUMPDEST SWAP2 POP PUSH3 0x1160 DUP4 PUSH3 0xAF9 JUMP JUMPDEST SWAP3 POP DUP3 PUSH3 0x1173 JUMPI PUSH3 0x1172 PUSH3 0x1117 JUMP JUMPDEST JUMPDEST DUP3 DUP3 DIV SWAP1 POP SWAP3 SWAP2 POP POP JUMP JUMPDEST PUSH32 0x496E73756666696369656E74207061796D656E74000000000000000000000000 PUSH1 0x0 DUP3 ADD MSTORE POP JUMP JUMPDEST PUSH1 0x0 PUSH3 0x11B6 PUSH1 0x14 DUP4 PUSH3 0xB97 JUMP JUMPDEST SWAP2 POP PUSH3 0x11C3 DUP3 PUSH3 0x117E JUMP JUMPDEST PUSH1 0x20 DUP3 ADD SWAP1 POP SWAP2 SWAP1 POP JUMP JUMPDEST PUSH1 0x0 PUSH1 0x20 DUP3 ADD SWAP1 POP DUP2 DUP2 SUB PUSH1 0x0 DUP4 ADD MSTORE PUSH3 0x11E9 DUP2 PUSH3 0x11A7 JUMP JUMPDEST SWAP1 POP SWAP2 SWAP1 POP JUMP JUMPDEST PUSH1 0x0 DUP2 MLOAD SWAP1 POP PUSH3 0x1201 DUP2 PUSH3 0xB03 JUMP JUMPDEST SWAP3 SWAP2 POP POP JUMP JUMPDEST PUSH1 0x0 PUSH1 0x20 DUP3 DUP5 SUB SLT ISZERO PUSH3 0x1220 JUMPI PUSH3 0x121F PUSH3 0xA8A JUMP JUMPDEST JUMPDEST PUSH1 0x0 PUSH3 0x1230 DUP5 DUP3 DUP6 ADD PUSH3 0x11F0 JUMP JUMPDEST SWAP2 POP POP SWAP3 SWAP2 POP POP JUMP JUMPDEST PUSH32 0x4E6F7420656E6F75676820746F6B656E7320617661696C61626C650000000000 PUSH1 0x0 DUP3 ADD MSTORE POP JUMP JUMPDEST PUSH1 0x0 PUSH3 0x1271 PUSH1 0x1B DUP4 PUSH3 0xB97 JUMP JUMPDEST SWAP2 POP PUSH3 0x127E DUP3 PUSH3 0x1239 JUMP JUMPDEST PUSH1 0x20 DUP3 ADD SWAP1 POP SWAP2 SWAP1 POP JUMP JUMPDEST PUSH1 0x0 PUSH1 0x20 DUP3 ADD SWAP1 POP DUP2 DUP2 SUB PUSH1 0x0 DUP4 ADD MSTORE PUSH3 0x12A4 DUP2 PUSH3 0x1262 JUMP JUMPDEST SWAP1 POP SWAP2 SWAP1 POP JUMP JUMPDEST PUSH1 0x0 PUSH1 0x40 DUP3 ADD SWAP1 POP PUSH3 0x12C2 PUSH1 0x0 DUP4 ADD DUP6 PUSH3 0xB7B JUMP JUMPDEST PUSH3 0x12D1 PUSH1 0x20 DUP4 ADD DUP5 PUSH3 0xC26 JUMP JUMPDEST SWAP4 SWAP3 POP POP POP JUMP JUMPDEST PUSH1 0x0 DUP2 ISZERO ISZERO SWAP1 POP SWAP2 SWAP1 POP JUMP JUMPDEST PUSH3 0x12EF DUP2 PUSH3 0x12D8 JUMP JUMPDEST DUP2 EQ PUSH3 0x12FB JUMPI PUSH1 0x0 DUP1 REVERT JUMPDEST POP JUMP JUMPDEST PUSH1 0x0 DUP2 MLOAD SWAP1 POP PUSH3 0x130F DUP2 PUSH3 0x12E4 JUMP JUMPDEST SWAP3 SWAP2 POP POP JUMP JUMPDEST PUSH1 0x0 PUSH1 0x20 DUP3 DUP5 SUB SLT ISZERO PUSH3 0x132E JUMPI PUSH3 0x132D PUSH3 0xA8A JUMP JUMPDEST JUMPDEST PUSH1 0x0 PUSH3 0x133E DUP5 DUP3 DUP6 ADD PUSH3 0x12FE JUMP JUMPDEST SWAP2 POP POP SWAP3 SWAP2 POP POP JUMP JUMPDEST PUSH1 0x0 PUSH1 0x20 DUP3 ADD SWAP1 POP PUSH3 0x135E PUSH1 0x0 DUP4 ADD DUP5 PUSH3 0xC26 JUMP JUMPDEST SWAP3 SWAP2 POP POP JUMP JUMPDEST PUSH32 0x4F6E6C7920746865206F776E65722063616E2063616C6C20746869732066756E PUSH1 0x0 DUP3 ADD MSTORE PUSH32 0x6374696F6E000000000000000000000000000000000000000000000000000000 PUSH1 0x20 DUP3 ADD MSTORE POP JUMP JUMPDEST PUSH1 0x0 PUSH3 0x13C2 PUSH1 0x25 DUP4 PUSH3 0xB97 JUMP JUMPDEST SWAP2 POP PUSH3 0x13CF DUP3 PUSH3 0x1364 JUMP JUMPDEST PUSH1 0x40 DUP3 ADD SWAP1 POP SWAP2 SWAP1 POP JUMP JUMPDEST PUSH1 0x0 PUSH1 0x20 DUP3 ADD SWAP1 POP DUP2 DUP2 SUB PUSH1 0x0 DUP4 ADD MSTORE PUSH3 0x13F5 DUP2 PUSH3 0x13B3 JUMP JUMPDEST SWAP1 POP SWAP2 SWAP1 POP JUMP JUMPDEST PUSH1 0x0 PUSH1 0x80 DUP3 ADD SWAP1 POP DUP2 DUP2 SUB PUSH1 0x0 DUP4 ADD MSTORE PUSH3 0x1418 DUP2 DUP8 PUSH3 0xBE5 JUMP JUMPDEST SWAP1 POP DUP2 DUP2 SUB PUSH1 0x20 DUP4 ADD MSTORE PUSH3 0x142E DUP2 DUP7 PUSH3 0xBE5 JUMP JUMPDEST SWAP1 POP PUSH3 0x143F PUSH1 0x40 DUP4 ADD DUP6 PUSH3 0xC26 JUMP JUMPDEST PUSH3 0x144E PUSH1 0x60 DUP4 ADD DUP5 PUSH3 0xB7B JUMP JUMPDEST SWAP6 SWAP5 POP POP POP POP POP JUMP JUMPDEST PUSH1 0x0 DUP2 SWAP1 POP DUP2 PUSH1 0x0 MSTORE PUSH1 0x20 PUSH1 0x0 KECCAK256 SWAP1 POP SWAP2 SWAP1 POP JUMP JUMPDEST PUSH1 0x0 PUSH1 0x20 PUSH1 0x1F DUP4 ADD DIV SWAP1 POP SWAP2 SWAP1 POP JUMP JUMPDEST PUSH1 0x0 DUP3 DUP3 SHL SWAP1 POP SWAP3 SWAP2 POP POP JUMP JUMPDEST PUSH1 0x0 PUSH1 0x8 DUP4 MUL PUSH3 0x14BB PUSH32 0xFFFFFFFFFFFFFFFFFFFFFFFFFFFFFFFFFFFFFFFFFFFFFFFFFFFFFFFFFFFFFFFF DUP3 PUSH3 0x147C JUMP JUMPDEST PUSH3 0x14C7 DUP7 DUP4 PUSH3 0x147C JUMP JUMPDEST SWAP6 POP DUP1 NOT DUP5 AND SWAP4 POP DUP1 DUP7 AND DUP5 OR SWAP3 POP POP POP SWAP4 SWAP3 POP POP POP JUMP JUMPDEST PUSH1 0x0 DUP2 SWAP1 POP SWAP2 SWAP1 POP JUMP JUMPDEST PUSH1 0x0 PUSH3 0x150A PUSH3 0x1504 PUSH3 0x14FE DUP5 PUSH3 0xAF9 JUMP JUMPDEST PUSH3 0x14DF JUMP JUMPDEST PUSH3 0xAF9 JUMP JUMPDEST SWAP1 POP SWAP2 SWAP1 POP JUMP JUMPDEST PUSH1 0x0 DUP2 SWAP1 POP SWAP2 SWAP1 POP JUMP JUMPDEST PUSH3 0x1526 DUP4 PUSH3 0x14E9 JUMP JUMPDEST PUSH3 0x153E PUSH3 0x1535 DUP3 PUSH3 0x1511 JUMP JUMPDEST DUP5 DUP5 SLOAD PUSH3 0x1489 JUMP JUMPDEST DUP3 SSTORE POP POP POP POP JUMP JUMPDEST PUSH1 0x0 SWAP1 JUMP JUMPDEST PUSH3 0x1555 PUSH3 0x1546 JUMP JUMPDEST PUSH3 0x1562 DUP2 DUP5 DUP5 PUSH3 0x151B JUMP JUMPDEST POP POP POP JUMP JUMPDEST JUMPDEST DUP2 DUP2 LT ISZERO PUSH3 0x158A JUMPI PUSH3 0x157E PUSH1 0x0 DUP3 PUSH3 0x154B JUMP JUMPDEST PUSH1 0x1 DUP2 ADD SWAP1 POP PUSH3 0x1568 JUMP JUMPDEST POP POP JUMP JUMPDEST PUSH1 0x1F DUP3 GT ISZERO PUSH3 0x15D9 JUMPI PUSH3 0x15A3 DUP2 PUSH3 0x1457 JUMP JUMPDEST PUSH3 0x15AE DUP5 PUSH3 0x146C JUMP JUMPDEST DUP2 ADD PUSH1 0x20 DUP6 LT ISZERO PUSH3 0x15BE JUMPI DUP2 SWAP1 POP JUMPDEST PUSH3 0x15D6 PUSH3 0x15CD DUP6 PUSH3 0x146C JUMP JUMPDEST DUP4 ADD DUP3 PUSH3 0x1567 JUMP JUMPDEST POP POP JUMPDEST POP POP POP JUMP JUMPDEST PUSH1 0x0 DUP3 DUP3 SHR SWAP1 POP SWAP3 SWAP2 POP POP JUMP JUMPDEST PUSH1 0x0 PUSH3 0x15FE PUSH1 0x0 NOT DUP5 PUSH1 0x8 MUL PUSH3 0x15DE JUMP JUMPDEST NOT DUP1 DUP4 AND SWAP2 POP POP SWAP3 SWAP2 POP POP JUMP JUMPDEST PUSH1 0x0 PUSH3 0x1619 DUP4 DUP4 PUSH3 0x15EB JUMP JUMPDEST SWAP2 POP DUP3 PUSH1 0x2 MUL DUP3 OR SWAP1 POP SWAP3 SWAP2 POP POP JUMP JUMPDEST PUSH3 0x1634 DUP3 PUSH3 0xB8C JUMP JUMPDEST PUSH8 0xFFFFFFFFFFFFFFFF DUP2 GT ISZERO PUSH3 0x1650 JUMPI PUSH3 0x164F PUSH3 0xCD4 JUMP JUMPDEST JUMPDEST PUSH3 0x165C DUP3 SLOAD PUSH3 0xF2F JUMP JUMPDEST PUSH3 0x1669 DUP3 DUP3 DUP6 PUSH3 0x158E JUMP JUMPDEST PUSH1 0x0 PUSH1 0x20 SWAP1 POP PUSH1 0x1F DUP4 GT PUSH1 0x1 DUP2 EQ PUSH3 0x16A1 JUMPI PUSH1 0x0 DUP5 ISZERO PUSH3 0x168C JUMPI DUP3 DUP8 ADD MLOAD SWAP1 POP JUMPDEST PUSH3 0x1698 DUP6 DUP3 PUSH3 0x160B JUMP JUMPDEST DUP7 SSTORE POP PUSH3 0x1708 JUMP JUMPDEST PUSH1 0x1F NOT DUP5 AND PUSH3 0x16B1 DUP7 PUSH3 0x1457 JUMP JUMPDEST PUSH1 0x0 JUMPDEST DUP3 DUP2 LT ISZERO PUSH3 0x16DB JUMPI DUP5 DUP10 ADD MLOAD DUP3 SSTORE PUSH1 0x1 DUP3 ADD SWAP2 POP PUSH1 0x20 DUP6 ADD SWAP5 POP PUSH1 0x20 DUP2 ADD SWAP1 POP PUSH3 0x16B4 JUMP JUMPDEST DUP7 DUP4 LT ISZERO PUSH3 0x16FB JUMPI DUP5 DUP10 ADD MLOAD PUSH3 0x16F7 PUSH1 0x1F DUP10 AND DUP3 PUSH3 0x15EB JUMP JUMPDEST DUP4 SSTORE POP JUMPDEST PUSH1 0x1 PUSH1 0x2 DUP9 MUL ADD DUP9 SSTORE POP POP POP JUMPDEST POP POP POP POP POP POP JUMP JUMPDEST PUSH1 0x0 PUSH1 0x40 DUP3 ADD SWAP1 POP DUP2 DUP2 SUB PUSH1 0x0 DUP4 ADD MSTORE PUSH3 0x172C DUP2 DUP6 PUSH3 0xBE5 JUMP JUMPDEST SWAP1 POP PUSH3 0x173D PUSH1 0x20 DUP4 ADD DUP5 PUSH3 0xC26 JUMP JUMPDEST SWAP4 SWAP3 POP POP POP JUMP JUMPDEST PUSH1 0x0 PUSH10 0xFFFFFFFFFFFFFFFFFFFF DUP3 AND SWAP1 POP SWAP2 SWAP1 POP JUMP JUMPDEST PUSH3 0x1765 DUP2 PUSH3 0x1744 JUMP JUMPDEST DUP2 EQ PUSH3 0x1771 JUMPI PUSH1 0x0 DUP1 REVERT JUMPDEST POP JUMP JUMPDEST PUSH1 0x0 DUP2 MLOAD SWAP1 POP PUSH3 0x1785 DUP2 PUSH3 0x175A JUMP JUMPDEST SWAP3 SWAP2 POP POP JUMP JUMPDEST PUSH1 0x0 DUP2 SWAP1 POP SWAP2 SWAP1 POP JUMP JUMPDEST PUSH3 0x17A0 DUP2 PUSH3 0x178B JUMP JUMPDEST DUP2 EQ PUSH3 0x17AC JUMPI PUSH1 0x0 DUP1 REVERT JUMPDEST POP JUMP JUMPDEST PUSH1 0x0 DUP2 MLOAD SWAP1 POP PUSH3 0x17C0 DUP2 PUSH3 0x1795 JUMP JUMPDEST SWAP3 SWAP2 POP POP JUMP JUMPDEST PUSH1 0x0 DUP1 PUSH1 0x0 DUP1 PUSH1 0x0 PUSH1 0xA0 DUP7 DUP9 SUB SLT ISZERO PUSH3 0x17E5 JUMPI PUSH3 0x17E4 PUSH3 0xA8A JUMP JUMPDEST JUMPDEST PUSH1 0x0 PUSH3 0x17F5 DUP9 DUP3 DUP10 ADD PUSH3 0x1774 JUMP JUMPDEST SWAP6 POP POP PUSH1 0x20 PUSH3 0x1808 DUP9 DUP3 DUP10 ADD PUSH3 0x17AF JUMP JUMPDEST SWAP5 POP POP PUSH1 0x40 PUSH3 0x181B DUP9 DUP3 DUP10 ADD PUSH3 0x11F0 JUMP JUMPDEST SWAP4 POP POP PUSH1 0x60 PUSH3 0x182E DUP9 DUP3 DUP10 ADD PUSH3 0x11F0 JUMP JUMPDEST SWAP3 POP POP PUSH1 0x80 PUSH3 0x1841 DUP9 DUP3 DUP10 ADD PUSH3 0x1774 JUMP JUMPDEST SWAP2 POP POP SWAP3 SWAP6 POP SWAP3 SWAP6 SWAP1 SWAP4 POP JUMP INVALID PUSH1 0xA0 PUSH1 0x40 MSTORE CALLVALUE DUP1 ISZERO PUSH3 0x11 JUMPI PUSH1 0x0 DUP1 REVERT JUMPDEST POP PUSH1 0x40 MLOAD PUSH3 0x257B CODESIZE SUB DUP1 PUSH3 0x257B DUP4 CODECOPY DUP2 DUP2 ADD PUSH1 0x40 MSTORE DUP2 ADD SWAP1 PUSH3 0x37 SWAP2 SWAP1 PUSH3 0x80D JUMP JUMPDEST DUP4 DUP4 DUP2 PUSH1 0x3 SWAP1 DUP2 PUSH3 0x4A SWAP2 SWAP1 PUSH3 0xAFE JUMP JUMPDEST POP DUP1 PUSH1 0x4 SWAP1 DUP2 PUSH3 0x5C SWAP2 SWAP1 PUSH3 0xAFE JUMP JUMPDEST POP POP POP PUSH3 0x91 PUSH32 0x9F2DF0FED2C77648DE5860A4CC508CD0818C85B8B8A1AB4CEEEF8D981C8956A6 DUP3 PUSH3 0xCC PUSH1 0x20 SHL PUSH1 0x20 SHR JUMP JUMPDEST PUSH8 0xDE0B6B3A7640000 DUP3 PUSH3 0xA7 SWAP2 SWAP1 PUSH3 0xC14 JUMP JUMPDEST PUSH1 0x80 DUP2 DUP2 MSTORE POP POP PUSH3 0xC2 DUP2 PUSH1 0x80 MLOAD PUSH3 0x106 PUSH1 0x20 SHL PUSH1 0x20 SHR JUMP JUMPDEST POP POP POP POP PUSH3 0xD7B JUMP JUMPDEST PUSH3 0xDD DUP3 PUSH3 0x193 PUSH1 0x20 SHL PUSH1 0x20 SHR JUMP JUMPDEST PUSH3 0xEE DUP2 PUSH3 0x1B3 PUSH1 0x20 SHL PUSH1 0x20 SHR JUMP JUMPDEST PUSH3 0x100 DUP4 DUP4 PUSH3 0x1D7 PUSH1 0x20 SHL PUSH1 0x20 SHR JUMP JUMPDEST POP POP POP POP JUMP JUMPDEST PUSH1 0x0 PUSH20 0xFFFFFFFFFFFFFFFFFFFFFFFFFFFFFFFFFFFFFFFF AND DUP3 PUSH20 0xFFFFFFFFFFFFFFFFFFFFFFFFFFFFFFFFFFFFFFFF AND SUB PUSH3 0x17B JUMPI PUSH1 0x0 PUSH1 0x40 MLOAD PUSH32 0xEC442F0500000000000000000000000000000000000000000000000000000000 DUP2 MSTORE PUSH1 0x4 ADD PUSH3 0x172 SWAP2 SWAP1 PUSH3 0xC70 JUMP JUMPDEST PUSH1 0x40 MLOAD DUP1 SWAP2 SUB SWAP1 REVERT JUMPDEST PUSH3 0x18F PUSH1 0x0 DUP4 DUP4 PUSH3 0x2DB PUSH1 0x20 SHL PUSH1 0x20 SHR JUMP JUMPDEST POP POP JUMP JUMPDEST PUSH1 0x0 PUSH1 0x5 PUSH1 0x0 DUP4 DUP2 MSTORE PUSH1 0x20 ADD SWAP1 DUP2 MSTORE PUSH1 0x20 ADD PUSH1 0x0 KECCAK256 PUSH1 0x1 ADD SLOAD SWAP1 POP SWAP2 SWAP1 POP JUMP JUMPDEST PUSH3 0x1D4 DUP2 PUSH3 0x1C8 PUSH3 0x50B PUSH1 0x20 SHL PUSH1 0x20 SHR JUMP JUMPDEST PUSH3 0x513 PUSH1 0x20 SHL PUSH1 0x20 SHR JUMP JUMPDEST POP JUMP JUMPDEST PUSH1 0x0 PUSH3 0x1EB DUP4 DUP4 PUSH3 0x56F PUSH1 0x20 SHL PUSH1 0x20 SHR JUMP JUMPDEST PUSH3 0x2D0 JUMPI PUSH1 0x1 PUSH1 0x5 PUSH1 0x0 DUP6 DUP2 MSTORE PUSH1 0x20 ADD SWAP1 DUP2 MSTORE PUSH1 0x20 ADD PUSH1 0x0 KECCAK256 PUSH1 0x0 ADD PUSH1 0x0 DUP5 PUSH20 0xFFFFFFFFFFFFFFFFFFFFFFFFFFFFFFFFFFFFFFFF AND PUSH20 0xFFFFFFFFFFFFFFFFFFFFFFFFFFFFFFFFFFFFFFFF AND DUP2 MSTORE PUSH1 0x20 ADD SWAP1 DUP2 MSTORE PUSH1 0x20 ADD PUSH1 0x0 KECCAK256 PUSH1 0x0 PUSH2 0x100 EXP DUP2 SLOAD DUP2 PUSH1 0xFF MUL NOT AND SWAP1 DUP4 ISZERO ISZERO MUL OR SWAP1 SSTORE POP PUSH3 0x26C PUSH3 0x50B PUSH1 0x20 SHL PUSH1 0x20 SHR JUMP JUMPDEST PUSH20 0xFFFFFFFFFFFFFFFFFFFFFFFFFFFFFFFFFFFFFFFF AND DUP3 PUSH20 0xFFFFFFFFFFFFFFFFFFFFFFFFFFFFFFFFFFFFFFFF AND DUP5 PUSH32 0x2F8788117E7EFF1D82E926EC794901D17C78024A50270940304540A733656F0D PUSH1 0x40 MLOAD PUSH1 0x40 MLOAD DUP1 SWAP2 SUB SWAP1 LOG4 PUSH1 0x1 SWAP1 POP PUSH3 0x2D5 JUMP JUMPDEST PUSH1 0x0 SWAP1 POP JUMPDEST SWAP3 SWAP2 POP POP JUMP JUMPDEST PUSH1 0x0 PUSH20 0xFFFFFFFFFFFFFFFFFFFFFFFFFFFFFFFFFFFFFFFF AND DUP4 PUSH20 0xFFFFFFFFFFFFFFFFFFFFFFFFFFFFFFFFFFFFFFFF AND SUB PUSH3 0x331 JUMPI DUP1 PUSH1 0x2 PUSH1 0x0 DUP3 DUP3 SLOAD PUSH3 0x324 SWAP2 SWAP1 PUSH3 0xC8D JUMP JUMPDEST SWAP3 POP POP DUP2 SWAP1 SSTORE POP PUSH3 0x407 JUMP JUMPDEST PUSH1 0x0 DUP1 PUSH1 0x0 DUP6 PUSH20 0xFFFFFFFFFFFFFFFFFFFFFFFFFFFFFFFFFFFFFFFF AND PUSH20 0xFFFFFFFFFFFFFFFFFFFFFFFFFFFFFFFFFFFFFFFF AND DUP2 MSTORE PUSH1 0x20 ADD SWAP1 DUP2 MSTORE PUSH1 0x20 ADD PUSH1 0x0 KECCAK256 SLOAD SWAP1 POP DUP2 DUP2 LT ISZERO PUSH3 0x3C0 JUMPI DUP4 DUP2 DUP4 PUSH1 0x40 MLOAD PUSH32 0xE450D38C00000000000000000000000000000000000000000000000000000000 DUP2 MSTORE PUSH1 0x4 ADD PUSH3 0x3B7 SWAP4 SWAP3 SWAP2 SWAP1 PUSH3 0xCD9 JUMP JUMPDEST PUSH1 0x40 MLOAD DUP1 SWAP2 SUB SWAP1 REVERT JUMPDEST DUP2 DUP2 SUB PUSH1 0x0 DUP1 DUP7 PUSH20 0xFFFFFFFFFFFFFFFFFFFFFFFFFFFFFFFFFFFFFFFF AND PUSH20 0xFFFFFFFFFFFFFFFFFFFFFFFFFFFFFFFFFFFFFFFF AND DUP2 MSTORE PUSH1 0x20 ADD SWAP1 DUP2 MSTORE PUSH1 0x20 ADD PUSH1 0x0 KECCAK256 DUP2 SWAP1 SSTORE POP POP JUMPDEST PUSH1 0x0 PUSH20 0xFFFFFFFFFFFFFFFFFFFFFFFFFFFFFFFFFFFFFFFF AND DUP3 PUSH20 0xFFFFFFFFFFFFFFFFFFFFFFFFFFFFFFFFFFFFFFFF AND SUB PUSH3 0x452 JUMPI DUP1 PUSH1 0x2 PUSH1 0x0 DUP3 DUP3 SLOAD SUB SWAP3 POP POP DUP2 SWAP1 SSTORE POP PUSH3 0x49F JUMP JUMPDEST DUP1 PUSH1 0x0 DUP1 DUP5 PUSH20 0xFFFFFFFFFFFFFFFFFFFFFFFFFFFFFFFFFFFFFFFF AND PUSH20 0xFFFFFFFFFFFFFFFFFFFFFFFFFFFFFFFFFFFFFFFF AND DUP2 MSTORE PUSH1 0x20 ADD SWAP1 DUP2 MSTORE PUSH1 0x20 ADD PUSH1 0x0 KECCAK256 PUSH1 0x0 DUP3 DUP3 SLOAD ADD SWAP3 POP POP DUP2 SWAP1 SSTORE POP JUMPDEST DUP2 PUSH20 0xFFFFFFFFFFFFFFFFFFFFFFFFFFFFFFFFFFFFFFFF AND DUP4 PUSH20 0xFFFFFFFFFFFFFFFFFFFFFFFFFFFFFFFFFFFFFFFF AND PUSH32 0xDDF252AD1BE2C89B69C2B068FC378DAA952BA7F163C4A11628F55A4DF523B3EF DUP4 PUSH1 0x40 MLOAD PUSH3 0x4FE SWAP2 SWAP1 PUSH3 0xD16 JUMP JUMPDEST PUSH1 0x40 MLOAD DUP1 SWAP2 SUB SWAP1 LOG3 POP POP POP JUMP JUMPDEST PUSH1 0x0 CALLER SWAP1 POP SWAP1 JUMP JUMPDEST PUSH3 0x525 DUP3 DUP3 PUSH3 0x56F PUSH1 0x20 SHL PUSH1 0x20 SHR JUMP JUMPDEST PUSH3 0x56B JUMPI DUP1 DUP3 PUSH1 0x40 MLOAD PUSH32 0xE2517D3F00000000000000000000000000000000000000000000000000000000 DUP2 MSTORE PUSH1 0x4 ADD PUSH3 0x562 SWAP3 SWAP2 SWAP1 PUSH3 0xD4E JUMP JUMPDEST PUSH1 0x40 MLOAD DUP1 SWAP2 SUB SWAP1 REVERT JUMPDEST POP POP JUMP JUMPDEST PUSH1 0x0 PUSH1 0x5 PUSH1 0x0 DUP5 DUP2 MSTORE PUSH1 0x20 ADD SWAP1 DUP2 MSTORE PUSH1 0x20 ADD PUSH1 0x0 KECCAK256 PUSH1 0x0 ADD PUSH1 0x0 DUP4 PUSH20 0xFFFFFFFFFFFFFFFFFFFFFFFFFFFFFFFFFFFFFFFF AND PUSH20 0xFFFFFFFFFFFFFFFFFFFFFFFFFFFFFFFFFFFFFFFF AND DUP2 MSTORE PUSH1 0x20 ADD SWAP1 DUP2 MSTORE PUSH1 0x20 ADD PUSH1 0x0 KECCAK256 PUSH1 0x0 SWAP1 SLOAD SWAP1 PUSH2 0x100 EXP SWAP1 DIV PUSH1 0xFF AND SWAP1 POP SWAP3 SWAP2 POP POP JUMP JUMPDEST PUSH1 0x0 PUSH1 0x40 MLOAD SWAP1 POP SWAP1 JUMP JUMPDEST PUSH1 0x0 DUP1 REVERT JUMPDEST PUSH1 0x0 DUP1 REVERT JUMPDEST PUSH1 0x0 DUP1 REVERT JUMPDEST PUSH1 0x0 DUP1 REVERT JUMPDEST PUSH1 0x0 PUSH1 0x1F NOT PUSH1 0x1F DUP4 ADD AND SWAP1 POP SWAP2 SWAP1 POP JUMP JUMPDEST PUSH32 0x4E487B7100000000000000000000000000000000000000000000000000000000 PUSH1 0x0 MSTORE PUSH1 0x41 PUSH1 0x4 MSTORE PUSH1 0x24 PUSH1 0x0 REVERT JUMPDEST PUSH3 0x643 DUP3 PUSH3 0x5F8 JUMP JUMPDEST DUP2 ADD DUP2 DUP2 LT PUSH8 0xFFFFFFFFFFFFFFFF DUP3 GT OR ISZERO PUSH3 0x665 JUMPI PUSH3 0x664 PUSH3 0x609 JUMP JUMPDEST JUMPDEST DUP1 PUSH1 0x40 MSTORE POP POP POP JUMP JUMPDEST PUSH1 0x0 PUSH3 0x67A PUSH3 0x5DA JUMP JUMPDEST SWAP1 POP PUSH3 0x688 DUP3 DUP3 PUSH3 0x638 JUMP JUMPDEST SWAP2 SWAP1 POP JUMP JUMPDEST PUSH1 0x0 PUSH8 0xFFFFFFFFFFFFFFFF DUP3 GT ISZERO PUSH3 0x6AB JUMPI PUSH3 0x6AA PUSH3 0x609 JUMP JUMPDEST JUMPDEST PUSH3 0x6B6 DUP3 PUSH3 0x5F8 JUMP JUMPDEST SWAP1 POP PUSH1 0x20 DUP2 ADD SWAP1 POP SWAP2 SWAP1 POP JUMP JUMPDEST PUSH1 0x0 JUMPDEST DUP4 DUP2 LT ISZERO PUSH3 0x6E3 JUMPI DUP1 DUP3 ADD MLOAD DUP2 DUP5 ADD MSTORE PUSH1 0x20 DUP2 ADD SWAP1 POP PUSH3 0x6C6 JUMP JUMPDEST PUSH1 0x0 DUP5 DUP5 ADD MSTORE POP POP POP POP JUMP JUMPDEST PUSH1 0x0 PUSH3 0x706 PUSH3 0x700 DUP5 PUSH3 0x68D JUMP JUMPDEST PUSH3 0x66E JUMP JUMPDEST SWAP1 POP DUP3 DUP2 MSTORE PUSH1 0x20 DUP2 ADD DUP5 DUP5 DUP5 ADD GT ISZERO PUSH3 0x725 JUMPI PUSH3 0x724 PUSH3 0x5F3 JUMP JUMPDEST JUMPDEST PUSH3 0x732 DUP5 DUP3 DUP6 PUSH3 0x6C3 JUMP JUMPDEST POP SWAP4 SWAP3 POP POP POP JUMP JUMPDEST PUSH1 0x0 DUP3 PUSH1 0x1F DUP4 ADD SLT PUSH3 0x752 JUMPI PUSH3 0x751 PUSH3 0x5EE JUMP JUMPDEST JUMPDEST DUP2 MLOAD PUSH3 0x764 DUP5 DUP3 PUSH1 0x20 DUP7 ADD PUSH3 0x6EF JUMP JUMPDEST SWAP2 POP POP SWAP3 SWAP2 POP POP JUMP JUMPDEST PUSH1 0x0 DUP2 SWAP1 POP SWAP2 SWAP1 POP JUMP JUMPDEST PUSH3 0x782 DUP2 PUSH3 0x76D JUMP JUMPDEST DUP2 EQ PUSH3 0x78E JUMPI PUSH1 0x0 DUP1 REVERT JUMPDEST POP JUMP JUMPDEST PUSH1 0x0 DUP2 MLOAD SWAP1 POP PUSH3 0x7A2 DUP2 PUSH3 0x777 JUMP JUMPDEST SWAP3 SWAP2 POP POP JUMP JUMPDEST PUSH1 0x0 PUSH20 0xFFFFFFFFFFFFFFFFFFFFFFFFFFFFFFFFFFFFFFFF DUP3 AND SWAP1 POP SWAP2 SWAP1 POP JUMP JUMPDEST PUSH1 0x0 PUSH3 0x7D5 DUP3 PUSH3 0x7A8 JUMP JUMPDEST SWAP1 POP SWAP2 SWAP1 POP JUMP JUMPDEST PUSH3 0x7E7 DUP2 PUSH3 0x7C8 JUMP JUMPDEST DUP2 EQ PUSH3 0x7F3 JUMPI PUSH1 0x0 DUP1 REVERT JUMPDEST POP JUMP JUMPDEST PUSH1 0x0 DUP2 MLOAD SWAP1 POP PUSH3 0x807 DUP2 PUSH3 0x7DC JUMP JUMPDEST SWAP3 SWAP2 POP POP JUMP JUMPDEST PUSH1 0x0 DUP1 PUSH1 0x0 DUP1 PUSH1 0x80 DUP6 DUP8 SUB SLT ISZERO PUSH3 0x82A JUMPI PUSH3 0x829 PUSH3 0x5E4 JUMP JUMPDEST JUMPDEST PUSH1 0x0 DUP6 ADD MLOAD PUSH8 0xFFFFFFFFFFFFFFFF DUP2 GT ISZERO PUSH3 0x84B JUMPI PUSH3 0x84A PUSH3 0x5E9 JUMP JUMPDEST JUMPDEST PUSH3 0x859 DUP8 DUP3 DUP9 ADD PUSH3 0x73A JUMP JUMPDEST SWAP5 POP POP PUSH1 0x20 DUP6 ADD MLOAD PUSH8 0xFFFFFFFFFFFFFFFF DUP2 GT ISZERO PUSH3 0x87D JUMPI PUSH3 0x87C PUSH3 0x5E9 JUMP JUMPDEST JUMPDEST PUSH3 0x88B DUP8 DUP3 DUP9 ADD PUSH3 0x73A JUMP JUMPDEST SWAP4 POP POP PUSH1 0x40 PUSH3 0x89E DUP8 DUP3 DUP9 ADD PUSH3 0x791 JUMP JUMPDEST SWAP3 POP POP PUSH1 0x60 PUSH3 0x8B1 DUP8 DUP3 DUP9 ADD PUSH3 0x7F6 JUMP JUMPDEST SWAP2 POP POP SWAP3 SWAP6 SWAP2 SWAP5 POP SWAP3 POP JUMP JUMPDEST PUSH1 0x0 DUP2 MLOAD SWAP1 POP SWAP2 SWAP1 POP JUMP JUMPDEST PUSH32 0x4E487B7100000000000000000000000000000000000000000000000000000000 PUSH1 0x0 MSTORE PUSH1 0x22 PUSH1 0x4 MSTORE PUSH1 0x24 PUSH1 0x0 REVERT JUMPDEST PUSH1 0x0 PUSH1 0x2 DUP3 DIV SWAP1 POP PUSH1 0x1 DUP3 AND DUP1 PUSH3 0x910 JUMPI PUSH1 0x7F DUP3 AND SWAP2 POP JUMPDEST PUSH1 0x20 DUP3 LT DUP2 SUB PUSH3 0x926 JUMPI PUSH3 0x925 PUSH3 0x8C8 JUMP JUMPDEST JUMPDEST POP SWAP2 SWAP1 POP JUMP JUMPDEST PUSH1 0x0 DUP2 SWAP1 POP DUP2 PUSH1 0x0 MSTORE PUSH1 0x20 PUSH1 0x0 KECCAK256 SWAP1 POP SWAP2 SWAP1 POP JUMP JUMPDEST PUSH1 0x0 PUSH1 0x20 PUSH1 0x1F DUP4 ADD DIV SWAP1 POP SWAP2 SWAP1 POP JUMP JUMPDEST PUSH1 0x0 DUP3 DUP3 SHL SWAP1 POP SWAP3 SWAP2 POP POP JUMP JUMPDEST PUSH1 0x0 PUSH1 0x8 DUP4 MUL PUSH3 0x990 PUSH32 0xFFFFFFFFFFFFFFFFFFFFFFFFFFFFFFFFFFFFFFFFFFFFFFFFFFFFFFFFFFFFFFFF DUP3 PUSH3 0x951 JUMP JUMPDEST PUSH3 0x99C DUP7 DUP4 PUSH3 0x951 JUMP JUMPDEST SWAP6 POP DUP1 NOT DUP5 AND SWAP4 POP DUP1 DUP7 AND DUP5 OR SWAP3 POP POP POP SWAP4 SWAP3 POP POP POP JUMP JUMPDEST PUSH1 0x0 DUP2 SWAP1 POP SWAP2 SWAP1 POP JUMP JUMPDEST PUSH1 0x0 PUSH3 0x9DF PUSH3 0x9D9 PUSH3 0x9D3 DUP5 PUSH3 0x76D JUMP JUMPDEST PUSH3 0x9B4 JUMP JUMPDEST PUSH3 0x76D JUMP JUMPDEST SWAP1 POP SWAP2 SWAP1 POP JUMP JUMPDEST PUSH1 0x0 DUP2 SWAP1 POP SWAP2 SWAP1 POP JUMP JUMPDEST PUSH3 0x9FB DUP4 PUSH3 0x9BE JUMP JUMPDEST PUSH3 0xA13 PUSH3 0xA0A DUP3 PUSH3 0x9E6 JUMP JUMPDEST DUP5 DUP5 SLOAD PUSH3 0x95E JUMP JUMPDEST DUP3 SSTORE POP POP POP POP JUMP JUMPDEST PUSH1 0x0 SWAP1 JUMP JUMPDEST PUSH3 0xA2A PUSH3 0xA1B JUMP JUMPDEST PUSH3 0xA37 DUP2 DUP5 DUP5 PUSH3 0x9F0 JUMP JUMPDEST POP POP POP JUMP JUMPDEST JUMPDEST DUP2 DUP2 LT ISZERO PUSH3 0xA5F JUMPI PUSH3 0xA53 PUSH1 0x0 DUP3 PUSH3 0xA20 JUMP JUMPDEST PUSH1 0x1 DUP2 ADD SWAP1 POP PUSH3 0xA3D JUMP JUMPDEST POP POP JUMP JUMPDEST PUSH1 0x1F DUP3 GT ISZERO PUSH3 0xAAE JUMPI PUSH3 0xA78 DUP2 PUSH3 0x92C JUMP JUMPDEST PUSH3 0xA83 DUP5 PUSH3 0x941 JUMP JUMPDEST DUP2 ADD PUSH1 0x20 DUP6 LT ISZERO PUSH3 0xA93 JUMPI DUP2 SWAP1 POP JUMPDEST PUSH3 0xAAB PUSH3 0xAA2 DUP6 PUSH3 0x941 JUMP JUMPDEST DUP4 ADD DUP3 PUSH3 0xA3C JUMP JUMPDEST POP POP JUMPDEST POP POP POP JUMP JUMPDEST PUSH1 0x0 DUP3 DUP3 SHR SWAP1 POP SWAP3 SWAP2 POP POP JUMP JUMPDEST PUSH1 0x0 PUSH3 0xAD3 PUSH1 0x0 NOT DUP5 PUSH1 0x8 MUL PUSH3 0xAB3 JUMP JUMPDEST NOT DUP1 DUP4 AND SWAP2 POP POP SWAP3 SWAP2 POP POP JUMP JUMPDEST PUSH1 0x0 PUSH3 0xAEE DUP4 DUP4 PUSH3 0xAC0 JUMP JUMPDEST SWAP2 POP DUP3 PUSH1 0x2 MUL DUP3 OR SWAP1 POP SWAP3 SWAP2 POP POP JUMP JUMPDEST PUSH3 0xB09 DUP3 PUSH3 0x8BD JUMP JUMPDEST PUSH8 0xFFFFFFFFFFFFFFFF DUP2 GT ISZERO PUSH3 0xB25 JUMPI PUSH3 0xB24 PUSH3 0x609 JUMP JUMPDEST JUMPDEST PUSH3 0xB31 DUP3 SLOAD PUSH3 0x8F7 JUMP JUMPDEST PUSH3 0xB3E DUP3 DUP3 DUP6 PUSH3 0xA63 JUMP JUMPDEST PUSH1 0x0 PUSH1 0x20 SWAP1 POP PUSH1 0x1F DUP4 GT PUSH1 0x1 DUP2 EQ PUSH3 0xB76 JUMPI PUSH1 0x0 DUP5 ISZERO PUSH3 0xB61 JUMPI DUP3 DUP8 ADD MLOAD SWAP1 POP JUMPDEST PUSH3 0xB6D DUP6 DUP3 PUSH3 0xAE0 JUMP JUMPDEST DUP7 SSTORE POP PUSH3 0xBDD JUMP JUMPDEST PUSH1 0x1F NOT DUP5 AND PUSH3 0xB86 DUP7 PUSH3 0x92C JUMP JUMPDEST PUSH1 0x0 JUMPDEST DUP3 DUP2 LT ISZERO PUSH3 0xBB0 JUMPI DUP5 DUP10 ADD MLOAD DUP3 SSTORE PUSH1 0x1 DUP3 ADD SWAP2 POP PUSH1 0x20 DUP6 ADD SWAP5 POP PUSH1 0x20 DUP2 ADD SWAP1 POP PUSH3 0xB89 JUMP JUMPDEST DUP7 DUP4 LT ISZERO PUSH3 0xBD0 JUMPI DUP5 DUP10 ADD MLOAD PUSH3 0xBCC PUSH1 0x1F DUP10 AND DUP3 PUSH3 0xAC0 JUMP JUMPDEST DUP4 SSTORE POP JUMPDEST PUSH1 0x1 PUSH1 0x2 DUP9 MUL ADD DUP9 SSTORE POP POP POP JUMPDEST POP POP POP POP POP POP JUMP JUMPDEST PUSH32 0x4E487B7100000000000000000000000000000000000000000000000000000000 PUSH1 0x0 MSTORE PUSH1 0x11 PUSH1 0x4 MSTORE PUSH1 0x24 PUSH1 0x0 REVERT JUMPDEST PUSH1 0x0 PUSH3 0xC21 DUP3 PUSH3 0x76D JUMP JUMPDEST SWAP2 POP PUSH3 0xC2E DUP4 PUSH3 0x76D JUMP JUMPDEST SWAP3 POP DUP3 DUP3 MUL PUSH3 0xC3E DUP2 PUSH3 0x76D JUMP JUMPDEST SWAP2 POP DUP3 DUP3 DIV DUP5 EQ DUP4 ISZERO OR PUSH3 0xC58 JUMPI PUSH3 0xC57 PUSH3 0xBE5 JUMP JUMPDEST JUMPDEST POP SWAP3 SWAP2 POP POP JUMP JUMPDEST PUSH3 0xC6A DUP2 PUSH3 0x7C8 JUMP JUMPDEST DUP3 MSTORE POP POP JUMP JUMPDEST PUSH1 0x0 PUSH1 0x20 DUP3 ADD SWAP1 POP PUSH3 0xC87 PUSH1 0x0 DUP4 ADD DUP5 PUSH3 0xC5F JUMP JUMPDEST SWAP3 SWAP2 POP POP JUMP JUMPDEST PUSH1 0x0 PUSH3 0xC9A DUP3 PUSH3 0x76D JUMP JUMPDEST SWAP2 POP PUSH3 0xCA7 DUP4 PUSH3 0x76D JUMP JUMPDEST SWAP3 POP DUP3 DUP3 ADD SWAP1 POP DUP1 DUP3 GT ISZERO PUSH3 0xCC2 JUMPI PUSH3 0xCC1 PUSH3 0xBE5 JUMP JUMPDEST JUMPDEST SWAP3 SWAP2 POP POP JUMP JUMPDEST PUSH3 0xCD3 DUP2 PUSH3 0x76D JUMP JUMPDEST DUP3 MSTORE POP POP JUMP JUMPDEST PUSH1 0x0 PUSH1 0x60 DUP3 ADD SWAP1 POP PUSH3 0xCF0 PUSH1 0x0 DUP4 ADD DUP7 PUSH3 0xC5F JUMP JUMPDEST PUSH3 0xCFF PUSH1 0x20 DUP4 ADD DUP6 PUSH3 0xCC8 JUMP JUMPDEST PUSH3 0xD0E PUSH1 0x40 DUP4 ADD DUP5 PUSH3 0xCC8 JUMP JUMPDEST SWAP5 SWAP4 POP POP POP POP JUMP JUMPDEST PUSH1 0x0 PUSH1 0x20 DUP3 ADD SWAP1 POP PUSH3 0xD2D PUSH1 0x0 DUP4 ADD DUP5 PUSH3 0xCC8 JUMP JUMPDEST SWAP3 SWAP2 POP POP JUMP JUMPDEST PUSH1 0x0 DUP2 SWAP1 POP SWAP2 SWAP1 POP JUMP JUMPDEST PUSH3 0xD48 DUP2 PUSH3 0xD33 JUMP JUMPDEST DUP3 MSTORE POP POP JUMP JUMPDEST PUSH1 0x0 PUSH1 0x40 DUP3 ADD SWAP1 POP PUSH3 0xD65 PUSH1 0x0 DUP4 ADD DUP6 PUSH3 0xC5F JUMP JUMPDEST PUSH3 0xD74 PUSH1 0x20 DUP4 ADD DUP5 PUSH3 0xD3D JUMP JUMPDEST SWAP4 SWAP3 POP POP POP JUMP JUMPDEST PUSH1 0x80 MLOAD PUSH2 0x17E4 PUSH3 0xD97 PUSH1 0x0 CODECOPY PUSH1 0x0 PUSH2 0x844 ADD MSTORE PUSH2 0x17E4 PUSH1 0x0 RETURN INVALID PUSH1 0x80 PUSH1 0x40 MSTORE CALLVALUE DUP1 ISZERO PUSH2 0x10 JUMPI PUSH1 0x0 DUP1 REVERT JUMPDEST POP PUSH1 0x4 CALLDATASIZE LT PUSH2 0x121 JUMPI PUSH1 0x0 CALLDATALOAD PUSH1 0xE0 SHR DUP1 PUSH4 0x40C10F19 GT PUSH2 0xAD JUMPI DUP1 PUSH4 0xA9059CBB GT PUSH2 0x71 JUMPI DUP1 PUSH4 0xA9059CBB EQ PUSH2 0x330 JUMPI DUP1 PUSH4 0xD5391393 EQ PUSH2 0x360 JUMPI DUP1 PUSH4 0xD547741F EQ PUSH2 0x37E JUMPI DUP1 PUSH4 0xD5ABEB01 EQ PUSH2 0x39A JUMPI DUP1 PUSH4 0xDD62ED3E EQ PUSH2 0x3B8 JUMPI PUSH2 0x121 JUMP JUMPDEST DUP1 PUSH4 0x40C10F19 EQ PUSH2 0x278 JUMPI DUP1 PUSH4 0x70A08231 EQ PUSH2 0x294 JUMPI DUP1 PUSH4 0x91D14854 EQ PUSH2 0x2C4 JUMPI DUP1 PUSH4 0x95D89B41 EQ PUSH2 0x2F4 JUMPI DUP1 PUSH4 0xA217FDDF EQ PUSH2 0x312 JUMPI PUSH2 0x121 JUMP JUMPDEST DUP1 PUSH4 0x23B872DD GT PUSH2 0xF4 JUMPI DUP1 PUSH4 0x23B872DD EQ PUSH2 0x1C2 JUMPI DUP1 PUSH4 0x248A9CA3 EQ PUSH2 0x1F2 JUMPI DUP1 PUSH4 0x2F2FF15D EQ PUSH2 0x222 JUMPI DUP1 PUSH4 0x313CE567 EQ PUSH2 0x23E JUMPI DUP1 PUSH4 0x36568ABE EQ PUSH2 0x25C JUMPI PUSH2 0x121 JUMP JUMPDEST DUP1 PUSH4 0x1FFC9A7 EQ PUSH2 0x126 JUMPI DUP1 PUSH4 0x6FDDE03 EQ PUSH2 0x156 JUMPI DUP1 PUSH4 0x95EA7B3 EQ PUSH2 0x174 JUMPI DUP1 PUSH4 0x18160DDD EQ PUSH2 0x1A4 JUMPI JUMPDEST PUSH1 0x0 DUP1 REVERT JUMPDEST PUSH2 0x140 PUSH1 0x4 DUP1 CALLDATASIZE SUB DUP2 ADD SWAP1 PUSH2 0x13B SWAP2 SWAP1 PUSH2 0x121E JUMP JUMPDEST PUSH2 0x3E8 JUMP JUMPDEST PUSH1 0x40 MLOAD PUSH2 0x14D SWAP2 SWAP1 PUSH2 0x1266 JUMP JUMPDEST PUSH1 0x40 MLOAD DUP1 SWAP2 SUB SWAP1 RETURN JUMPDEST PUSH2 0x15E PUSH2 0x462 JUMP JUMPDEST PUSH1 0x40 MLOAD PUSH2 0x16B SWAP2 SWAP1 PUSH2 0x1311 JUMP JUMPDEST PUSH1 0x40 MLOAD DUP1 SWAP2 SUB SWAP1 RETURN JUMPDEST PUSH2 0x18E PUSH1 0x4 DUP1 CALLDATASIZE SUB DUP2 ADD SWAP1 PUSH2 0x189 SWAP2 SWAP1 PUSH2 0x13C7 JUMP JUMPDEST PUSH2 0x4F4 JUMP JUMPDEST PUSH1 0x40 MLOAD PUSH2 0x19B SWAP2 SWAP1 PUSH2 0x1266 JUMP JUMPDEST PUSH1 0x40 MLOAD DUP1 SWAP2 SUB SWAP1 RETURN JUMPDEST PUSH2 0x1AC PUSH2 0x517 JUMP JUMPDEST PUSH1 0x40 MLOAD PUSH2 0x1B9 SWAP2 SWAP1 PUSH2 0x1416 JUMP JUMPDEST PUSH1 0x40 MLOAD DUP1 SWAP2 SUB SWAP1 RETURN JUMPDEST PUSH2 0x1DC PUSH1 0x4 DUP1 CALLDATASIZE SUB DUP2 ADD SWAP1 PUSH2 0x1D7 SWAP2 SWAP1 PUSH2 0x1431 JUMP JUMPDEST PUSH2 0x521 JUMP JUMPDEST PUSH1 0x40 MLOAD PUSH2 0x1E9 SWAP2 SWAP1 PUSH2 0x1266 JUMP JUMPDEST PUSH1 0x40 MLOAD DUP1 SWAP2 SUB SWAP1 RETURN JUMPDEST PUSH2 0x20C PUSH1 0x4 DUP1 CALLDATASIZE SUB DUP2 ADD SWAP1 PUSH2 0x207 SWAP2 SWAP1 PUSH2 0x14BA JUMP JUMPDEST PUSH2 0x550 JUMP JUMPDEST PUSH1 0x40 MLOAD PUSH2 0x219 SWAP2 SWAP1 PUSH2 0x14F6 JUMP JUMPDEST PUSH1 0x40 MLOAD DUP1 SWAP2 SUB SWAP1 RETURN JUMPDEST PUSH2 0x23C PUSH1 0x4 DUP1 CALLDATASIZE SUB DUP2 ADD SWAP1 PUSH2 0x237 SWAP2 SWAP1 PUSH2 0x1511 JUMP JUMPDEST PUSH2 0x570 JUMP JUMPDEST STOP JUMPDEST PUSH2 0x246 PUSH2 0x592 JUMP JUMPDEST PUSH1 0x40 MLOAD PUSH2 0x253 SWAP2 SWAP1 PUSH2 0x156D JUMP JUMPDEST PUSH1 0x40 MLOAD DUP1 SWAP2 SUB SWAP1 RETURN JUMPDEST PUSH2 0x276 PUSH1 0x4 DUP1 CALLDATASIZE SUB DUP2 ADD SWAP1 PUSH2 0x271 SWAP2 SWAP1 PUSH2 0x1511 JUMP JUMPDEST PUSH2 0x59B JUMP JUMPDEST STOP JUMPDEST PUSH2 0x292 PUSH1 0x4 DUP1 CALLDATASIZE SUB DUP2 ADD SWAP1 PUSH2 0x28D SWAP2 SWAP1 PUSH2 0x13C7 JUMP JUMPDEST PUSH2 0x616 JUMP JUMPDEST STOP JUMPDEST PUSH2 0x2AE PUSH1 0x4 DUP1 CALLDATASIZE SUB DUP2 ADD SWAP1 PUSH2 0x2A9 SWAP2 SWAP1 PUSH2 0x1588 JUMP JUMPDEST PUSH2 0x68D JUMP JUMPDEST PUSH1 0x40 MLOAD PUSH2 0x2BB SWAP2 SWAP1 PUSH2 0x1416 JUMP JUMPDEST PUSH1 0x40 MLOAD DUP1 SWAP2 SUB SWAP1 RETURN JUMPDEST PUSH2 0x2DE PUSH1 0x4 DUP1 CALLDATASIZE SUB DUP2 ADD SWAP1 PUSH2 0x2D9 SWAP2 SWAP1 PUSH2 0x1511 JUMP JUMPDEST PUSH2 0x6D5 JUMP JUMPDEST PUSH1 0x40 MLOAD PUSH2 0x2EB SWAP2 SWAP1 PUSH2 0x1266 JUMP JUMPDEST PUSH1 0x40 MLOAD DUP1 SWAP2 SUB SWAP1 RETURN JUMPDEST PUSH2 0x2FC PUSH2 0x740 JUMP JUMPDEST PUSH1 0x40 MLOAD PUSH2 0x309 SWAP2 SWAP1 PUSH2 0x1311 JUMP JUMPDEST PUSH1 0x40 MLOAD DUP1 SWAP2 SUB SWAP1 RETURN JUMPDEST PUSH2 0x31A PUSH2 0x7D2 JUMP JUMPDEST PUSH1 0x40 MLOAD PUSH2 0x327 SWAP2 SWAP1 PUSH2 0x14F6 JUMP JUMPDEST PUSH1 0x40 MLOAD DUP1 SWAP2 SUB SWAP1 RETURN JUMPDEST PUSH2 0x34A PUSH1 0x4 DUP1 CALLDATASIZE SUB DUP2 ADD SWAP1 PUSH2 0x345 SWAP2 SWAP1 PUSH2 0x13C7 JUMP JUMPDEST PUSH2 0x7D9 JUMP JUMPDEST PUSH1 0x40 MLOAD PUSH2 0x357 SWAP2 SWAP1 PUSH2 0x1266 JUMP JUMPDEST PUSH1 0x40 MLOAD DUP1 SWAP2 SUB SWAP1 RETURN JUMPDEST PUSH2 0x368 PUSH2 0x7FC JUMP JUMPDEST PUSH1 0x40 MLOAD PUSH2 0x375 SWAP2 SWAP1 PUSH2 0x14F6 JUMP JUMPDEST PUSH1 0x40 MLOAD DUP1 SWAP2 SUB SWAP1 RETURN JUMPDEST PUSH2 0x398 PUSH1 0x4 DUP1 CALLDATASIZE SUB DUP2 ADD SWAP1 PUSH2 0x393 SWAP2 SWAP1 PUSH2 0x1511 JUMP JUMPDEST PUSH2 0x820 JUMP JUMPDEST STOP JUMPDEST PUSH2 0x3A2 PUSH2 0x842 JUMP JUMPDEST PUSH1 0x40 MLOAD PUSH2 0x3AF SWAP2 SWAP1 PUSH2 0x1416 JUMP JUMPDEST PUSH1 0x40 MLOAD DUP1 SWAP2 SUB SWAP1 RETURN JUMPDEST PUSH2 0x3D2 PUSH1 0x4 DUP1 CALLDATASIZE SUB DUP2 ADD SWAP1 PUSH2 0x3CD SWAP2 SWAP1 PUSH2 0x15B5 JUMP JUMPDEST PUSH2 0x866 JUMP JUMPDEST PUSH1 0x40 MLOAD PUSH2 0x3DF SWAP2 SWAP1 PUSH2 0x1416 JUMP JUMPDEST PUSH1 0x40 MLOAD DUP1 SWAP2 SUB SWAP1 RETURN JUMPDEST PUSH1 0x0 PUSH32 0x7965DB0B00000000000000000000000000000000000000000000000000000000 PUSH28 0xFFFFFFFFFFFFFFFFFFFFFFFFFFFFFFFFFFFFFFFFFFFFFFFFFFFFFFFF NOT AND DUP3 PUSH28 0xFFFFFFFFFFFFFFFFFFFFFFFFFFFFFFFFFFFFFFFFFFFFFFFFFFFFFFFF NOT AND EQ DUP1 PUSH2 0x45B JUMPI POP PUSH2 0x45A DUP3 PUSH2 0x8ED JUMP JUMPDEST JUMPDEST SWAP1 POP SWAP2 SWAP1 POP JUMP JUMPDEST PUSH1 0x60 PUSH1 0x3 DUP1 SLOAD PUSH2 0x471 SWAP1 PUSH2 0x1624 JUMP JUMPDEST DUP1 PUSH1 0x1F ADD PUSH1 0x20 DUP1 SWAP2 DIV MUL PUSH1 0x20 ADD PUSH1 0x40 MLOAD SWAP1 DUP2 ADD PUSH1 0x40 MSTORE DUP1 SWAP3 SWAP2 SWAP1 DUP2 DUP2 MSTORE PUSH1 0x20 ADD DUP3 DUP1 SLOAD PUSH2 0x49D SWAP1 PUSH2 0x1624 JUMP JUMPDEST DUP1 ISZERO PUSH2 0x4EA JUMPI DUP1 PUSH1 0x1F LT PUSH2 0x4BF JUMPI PUSH2 0x100 DUP1 DUP4 SLOAD DIV MUL DUP4 MSTORE SWAP2 PUSH1 0x20 ADD SWAP2 PUSH2 0x4EA JUMP JUMPDEST DUP3 ADD SWAP2 SWAP1 PUSH1 0x0 MSTORE PUSH1 0x20 PUSH1 0x0 KECCAK256 SWAP1 JUMPDEST DUP2 SLOAD DUP2 MSTORE SWAP1 PUSH1 0x1 ADD SWAP1 PUSH1 0x20 ADD DUP1 DUP4 GT PUSH2 0x4CD JUMPI DUP3 SWAP1 SUB PUSH1 0x1F AND DUP3 ADD SWAP2 JUMPDEST POP POP POP POP POP SWAP1 POP SWAP1 JUMP JUMPDEST PUSH1 0x0 DUP1 PUSH2 0x4FF PUSH2 0x957 JUMP JUMPDEST SWAP1 POP PUSH2 0x50C DUP2 DUP6 DUP6 PUSH2 0x95F JUMP JUMPDEST PUSH1 0x1 SWAP2 POP POP SWAP3 SWAP2 POP POP JUMP JUMPDEST PUSH1 0x0 PUSH1 0x2 SLOAD SWAP1 POP SWAP1 JUMP JUMPDEST PUSH1 0x0 DUP1 PUSH2 0x52C PUSH2 0x957 JUMP JUMPDEST SWAP1 POP PUSH2 0x539 DUP6 DUP3 DUP6 PUSH2 0x971 JUMP JUMPDEST PUSH2 0x544 DUP6 DUP6 DUP6 PUSH2 0xA05 JUMP JUMPDEST PUSH1 0x1 SWAP2 POP POP SWAP4 SWAP3 POP POP POP JUMP JUMPDEST PUSH1 0x0 PUSH1 0x5 PUSH1 0x0 DUP4 DUP2 MSTORE PUSH1 0x20 ADD SWAP1 DUP2 MSTORE PUSH1 0x20 ADD PUSH1 0x0 KECCAK256 PUSH1 0x1 ADD SLOAD SWAP1 POP SWAP2 SWAP1 POP JUMP JUMPDEST PUSH2 0x579 DUP3 PUSH2 0x550 JUMP JUMPDEST PUSH2 0x582 DUP2 PUSH2 0xAF9 JUMP JUMPDEST PUSH2 0x58C DUP4 DUP4 PUSH2 0xB0D JUMP JUMPDEST POP POP POP POP JUMP JUMPDEST PUSH1 0x0 PUSH1 0x12 SWAP1 POP SWAP1 JUMP JUMPDEST PUSH2 0x5A3 PUSH2 0x957 JUMP JUMPDEST PUSH20 0xFFFFFFFFFFFFFFFFFFFFFFFFFFFFFFFFFFFFFFFF AND DUP2 PUSH20 0xFFFFFFFFFFFFFFFFFFFFFFFFFFFFFFFFFFFFFFFF AND EQ PUSH2 0x607 JUMPI PUSH1 0x40 MLOAD PUSH32 0x6697B23200000000000000000000000000000000000000000000000000000000 DUP2 MSTORE PUSH1 0x4 ADD PUSH1 0x40 MLOAD DUP1 SWAP2 SUB SWAP1 REVERT JUMPDEST PUSH2 0x611 DUP3 DUP3 PUSH2 0xBFF JUMP JUMPDEST POP POP POP JUMP JUMPDEST PUSH2 0x640 PUSH32 0x9F2DF0FED2C77648DE5860A4CC508CD0818C85B8B8A1AB4CEEEF8D981C8956A6 CALLER PUSH2 0x6D5 JUMP JUMPDEST PUSH2 0x67F JUMPI PUSH1 0x40 MLOAD PUSH32 0x8C379A000000000000000000000000000000000000000000000000000000000 DUP2 MSTORE PUSH1 0x4 ADD PUSH2 0x676 SWAP1 PUSH2 0x16A1 JUMP JUMPDEST PUSH1 0x40 MLOAD DUP1 SWAP2 SUB SWAP1 REVERT JUMPDEST PUSH2 0x689 DUP3 DUP3 PUSH2 0xCF2 JUMP JUMPDEST POP POP JUMP JUMPDEST PUSH1 0x0 DUP1 PUSH1 0x0 DUP4 PUSH20 0xFFFFFFFFFFFFFFFFFFFFFFFFFFFFFFFFFFFFFFFF AND PUSH20 0xFFFFFFFFFFFFFFFFFFFFFFFFFFFFFFFFFFFFFFFF AND DUP2 MSTORE PUSH1 0x20 ADD SWAP1 DUP2 MSTORE PUSH1 0x20 ADD PUSH1 0x0 KECCAK256 SLOAD SWAP1 POP SWAP2 SWAP1 POP JUMP JUMPDEST PUSH1 0x0 PUSH1 0x5 PUSH1 0x0 DUP5 DUP2 MSTORE PUSH1 0x20 ADD SWAP1 DUP2 MSTORE PUSH1 0x20 ADD PUSH1 0x0 KECCAK256 PUSH1 0x0 ADD PUSH1 0x0 DUP4 PUSH20 0xFFFFFFFFFFFFFFFFFFFFFFFFFFFFFFFFFFFFFFFF AND PUSH20 0xFFFFFFFFFFFFFFFFFFFFFFFFFFFFFFFFFFFFFFFF AND DUP2 MSTORE PUSH1 0x20 ADD SWAP1 DUP2 MSTORE PUSH1 0x20 ADD PUSH1 0x0 KECCAK256 PUSH1 0x0 SWAP1 SLOAD SWAP1 PUSH2 0x100 EXP SWAP1 DIV PUSH1 0xFF AND SWAP1 POP SWAP3 SWAP2 POP POP JUMP JUMPDEST PUSH1 0x60 PUSH1 0x4 DUP1 SLOAD PUSH2 0x74F SWAP1 PUSH2 0x1624 JUMP JUMPDEST DUP1 PUSH1 0x1F ADD PUSH1 0x20 DUP1 SWAP2 DIV MUL PUSH1 0x20 ADD PUSH1 0x40 MLOAD SWAP1 DUP2 ADD PUSH1 0x40 MSTORE DUP1 SWAP3 SWAP2 SWAP1 DUP2 DUP2 MSTORE PUSH1 0x20 ADD DUP3 DUP1 SLOAD PUSH2 0x77B SWAP1 PUSH2 0x1624 JUMP JUMPDEST DUP1 ISZERO PUSH2 0x7C8 JUMPI DUP1 PUSH1 0x1F LT PUSH2 0x79D JUMPI PUSH2 0x100 DUP1 DUP4 SLOAD DIV MUL DUP4 MSTORE SWAP2 PUSH1 0x20 ADD SWAP2 PUSH2 0x7C8 JUMP JUMPDEST DUP3 ADD SWAP2 SWAP1 PUSH1 0x0 MSTORE PUSH1 0x20 PUSH1 0x0 KECCAK256 SWAP1 JUMPDEST DUP2 SLOAD DUP2 MSTORE SWAP1 PUSH1 0x1 ADD SWAP1 PUSH1 0x20 ADD DUP1 DUP4 GT PUSH2 0x7AB JUMPI DUP3 SWAP1 SUB PUSH1 0x1F AND DUP3 ADD SWAP2 JUMPDEST POP POP POP POP POP SWAP1 POP SWAP1 JUMP JUMPDEST PUSH1 0x0 DUP1 SHL DUP2 JUMP JUMPDEST PUSH1 0x0 DUP1 PUSH2 0x7E4 PUSH2 0x957 JUMP JUMPDEST SWAP1 POP PUSH2 0x7F1 DUP2 DUP6 DUP6 PUSH2 0xA05 JUMP JUMPDEST PUSH1 0x1 SWAP2 POP POP SWAP3 SWAP2 POP POP JUMP JUMPDEST PUSH32 0x9F2DF0FED2C77648DE5860A4CC508CD0818C85B8B8A1AB4CEEEF8D981C8956A6 DUP2 JUMP JUMPDEST PUSH2 0x829 DUP3 PUSH2 0x550 JUMP JUMPDEST PUSH2 0x832 DUP2 PUSH2 0xAF9 JUMP JUMPDEST PUSH2 0x83C DUP4 DUP4 PUSH2 0xBFF JUMP JUMPDEST POP POP POP POP JUMP JUMPDEST PUSH32 0x0 DUP2 JUMP JUMPDEST PUSH1 0x0 PUSH1 0x1 PUSH1 0x0 DUP5 PUSH20 0xFFFFFFFFFFFFFFFFFFFFFFFFFFFFFFFFFFFFFFFF AND PUSH20 0xFFFFFFFFFFFFFFFFFFFFFFFFFFFFFFFFFFFFFFFF AND DUP2 MSTORE PUSH1 0x20 ADD SWAP1 DUP2 MSTORE PUSH1 0x20 ADD PUSH1 0x0 KECCAK256 PUSH1 0x0 DUP4 PUSH20 0xFFFFFFFFFFFFFFFFFFFFFFFFFFFFFFFFFFFFFFFF AND PUSH20 0xFFFFFFFFFFFFFFFFFFFFFFFFFFFFFFFFFFFFFFFF AND DUP2 MSTORE PUSH1 0x20 ADD SWAP1 DUP2 MSTORE PUSH1 0x20 ADD PUSH1 0x0 KECCAK256 SLOAD SWAP1 POP SWAP3 SWAP2 POP POP JUMP JUMPDEST PUSH1 0x0 PUSH32 0x1FFC9A700000000000000000000000000000000000000000000000000000000 PUSH28 0xFFFFFFFFFFFFFFFFFFFFFFFFFFFFFFFFFFFFFFFFFFFFFFFFFFFFFFFF NOT AND DUP3 PUSH28 0xFFFFFFFFFFFFFFFFFFFFFFFFFFFFFFFFFFFFFFFFFFFFFFFFFFFFFFFF NOT AND EQ SWAP1 POP SWAP2 SWAP1 POP JUMP JUMPDEST PUSH1 0x0 CALLER SWAP1 POP SWAP1 JUMP JUMPDEST PUSH2 0x96C DUP4 DUP4 DUP4 PUSH1 0x1 PUSH2 0xD74 JUMP JUMPDEST POP POP POP JUMP JUMPDEST PUSH1 0x0 PUSH2 0x97D DUP5 DUP5 PUSH2 0x866 JUMP JUMPDEST SWAP1 POP PUSH32 0xFFFFFFFFFFFFFFFFFFFFFFFFFFFFFFFFFFFFFFFFFFFFFFFFFFFFFFFFFFFFFFFF DUP2 EQ PUSH2 0x9FF JUMPI DUP2 DUP2 LT ISZERO PUSH2 0x9EF JUMPI DUP3 DUP2 DUP4 PUSH1 0x40 MLOAD PUSH32 0xFB8F41B200000000000000000000000000000000000000000000000000000000 DUP2 MSTORE PUSH1 0x4 ADD PUSH2 0x9E6 SWAP4 SWAP3 SWAP2 SWAP1 PUSH2 0x16D0 JUMP JUMPDEST PUSH1 0x40 MLOAD DUP1 SWAP2 SUB SWAP1 REVERT JUMPDEST PUSH2 0x9FE DUP5 DUP5 DUP5 DUP5 SUB PUSH1 0x0 PUSH2 0xD74 JUMP JUMPDEST JUMPDEST POP POP POP POP JUMP JUMPDEST PUSH1 0x0 PUSH20 0xFFFFFFFFFFFFFFFFFFFFFFFFFFFFFFFFFFFFFFFF AND DUP4 PUSH20 0xFFFFFFFFFFFFFFFFFFFFFFFFFFFFFFFFFFFFFFFF AND SUB PUSH2 0xA77 JUMPI PUSH1 0x0 PUSH1 0x40 MLOAD PUSH32 0x96C6FD1E00000000000000000000000000000000000000000000000000000000 DUP2 MSTORE PUSH1 0x4 ADD PUSH2 0xA6E SWAP2 SWAP1 PUSH2 0x1707 JUMP JUMPDEST PUSH1 0x40 MLOAD DUP1 SWAP2 SUB SWAP1 REVERT JUMPDEST PUSH1 0x0 PUSH20 0xFFFFFFFFFFFFFFFFFFFFFFFFFFFFFFFFFFFFFFFF AND DUP3 PUSH20 0xFFFFFFFFFFFFFFFFFFFFFFFFFFFFFFFFFFFFFFFF AND SUB PUSH2 0xAE9 JUMPI PUSH1 0x0 PUSH1 0x40 MLOAD PUSH32 0xEC442F0500000000000000000000000000000000000000000000000000000000 DUP2 MSTORE PUSH1 0x4 ADD PUSH2 0xAE0 SWAP2 SWAP1 PUSH2 0x1707 JUMP JUMPDEST PUSH1 0x40 MLOAD DUP1 SWAP2 SUB SWAP1 REVERT JUMPDEST PUSH2 0xAF4 DUP4 DUP4 DUP4 PUSH2 0xF4B JUMP JUMPDEST POP POP POP JUMP JUMPDEST PUSH2 0xB0A DUP2 PUSH2 0xB05 PUSH2 0x957 JUMP JUMPDEST PUSH2 0x1170 JUMP JUMPDEST POP JUMP JUMPDEST PUSH1 0x0 PUSH2 0xB19 DUP4 DUP4 PUSH2 0x6D5 JUMP JUMPDEST PUSH2 0xBF4 JUMPI PUSH1 0x1 PUSH1 0x5 PUSH1 0x0 DUP6 DUP2 MSTORE PUSH1 0x20 ADD SWAP1 DUP2 MSTORE PUSH1 0x20 ADD PUSH1 0x0 KECCAK256 PUSH1 0x0 ADD PUSH1 0x0 DUP5 PUSH20 0xFFFFFFFFFFFFFFFFFFFFFFFFFFFFFFFFFFFFFFFF AND PUSH20 0xFFFFFFFFFFFFFFFFFFFFFFFFFFFFFFFFFFFFFFFF AND DUP2 MSTORE PUSH1 0x20 ADD SWAP1 DUP2 MSTORE PUSH1 0x20 ADD PUSH1 0x0 KECCAK256 PUSH1 0x0 PUSH2 0x100 EXP DUP2 SLOAD DUP2 PUSH1 0xFF MUL NOT AND SWAP1 DUP4 ISZERO ISZERO MUL OR SWAP1 SSTORE POP PUSH2 0xB91 PUSH2 0x957 JUMP JUMPDEST PUSH20 0xFFFFFFFFFFFFFFFFFFFFFFFFFFFFFFFFFFFFFFFF AND DUP3 PUSH20 0xFFFFFFFFFFFFFFFFFFFFFFFFFFFFFFFFFFFFFFFF AND DUP5 PUSH32 0x2F8788117E7EFF1D82E926EC794901D17C78024A50270940304540A733656F0D PUSH1 0x40 MLOAD PUSH1 0x40 MLOAD DUP1 SWAP2 SUB SWAP1 LOG4 PUSH1 0x1 SWAP1 POP PUSH2 0xBF9 JUMP JUMPDEST PUSH1 0x0 SWAP1 POP JUMPDEST SWAP3 SWAP2 POP POP JUMP JUMPDEST PUSH1 0x0 PUSH2 0xC0B DUP4 DUP4 PUSH2 0x6D5 JUMP JUMPDEST ISZERO PUSH2 0xCE7 JUMPI PUSH1 0x0 PUSH1 0x5 PUSH1 0x0 DUP6 DUP2 MSTORE PUSH1 0x20 ADD SWAP1 DUP2 MSTORE PUSH1 0x20 ADD PUSH1 0x0 KECCAK256 PUSH1 0x0 ADD PUSH1 0x0 DUP5 PUSH20 0xFFFFFFFFFFFFFFFFFFFFFFFFFFFFFFFFFFFFFFFF AND PUSH20 0xFFFFFFFFFFFFFFFFFFFFFFFFFFFFFFFFFFFFFFFF AND DUP2 MSTORE PUSH1 0x20 ADD SWAP1 DUP2 MSTORE PUSH1 0x20 ADD PUSH1 0x0 KECCAK256 PUSH1 0x0 PUSH2 0x100 EXP DUP2 SLOAD DUP2 PUSH1 0xFF MUL NOT AND SWAP1 DUP4 ISZERO ISZERO MUL OR SWAP1 SSTORE POP PUSH2 0xC84 PUSH2 0x957 JUMP JUMPDEST PUSH20 0xFFFFFFFFFFFFFFFFFFFFFFFFFFFFFFFFFFFFFFFF AND DUP3 PUSH20 0xFFFFFFFFFFFFFFFFFFFFFFFFFFFFFFFFFFFFFFFF AND DUP5 PUSH32 0xF6391F5C32D9C69D2A47EA670B442974B53935D1EDC7FD64EB21E047A839171B PUSH1 0x40 MLOAD PUSH1 0x40 MLOAD DUP1 SWAP2 SUB SWAP1 LOG4 PUSH1 0x1 SWAP1 POP PUSH2 0xCEC JUMP JUMPDEST PUSH1 0x0 SWAP1 POP JUMPDEST SWAP3 SWAP2 POP POP JUMP JUMPDEST PUSH1 0x0 PUSH20 0xFFFFFFFFFFFFFFFFFFFFFFFFFFFFFFFFFFFFFFFF AND DUP3 PUSH20 0xFFFFFFFFFFFFFFFFFFFFFFFFFFFFFFFFFFFFFFFF AND SUB PUSH2 0xD64 JUMPI PUSH1 0x0 PUSH1 0x40 MLOAD PUSH32 0xEC442F0500000000000000000000000000000000000000000000000000000000 DUP2 MSTORE PUSH1 0x4 ADD PUSH2 0xD5B SWAP2 SWAP1 PUSH2 0x1707 JUMP JUMPDEST PUSH1 0x40 MLOAD DUP1 SWAP2 SUB SWAP1 REVERT JUMPDEST PUSH2 0xD70 PUSH1 0x0 DUP4 DUP4 PUSH2 0xF4B JUMP JUMPDEST POP POP JUMP JUMPDEST PUSH1 0x0 PUSH20 0xFFFFFFFFFFFFFFFFFFFFFFFFFFFFFFFFFFFFFFFF AND DUP5 PUSH20 0xFFFFFFFFFFFFFFFFFFFFFFFFFFFFFFFFFFFFFFFF AND SUB PUSH2 0xDE6 JUMPI PUSH1 0x0 PUSH1 0x40 MLOAD PUSH32 0xE602DF0500000000000000000000000000000000000000000000000000000000 DUP2 MSTORE PUSH1 0x4 ADD PUSH2 0xDDD SWAP2 SWAP1 PUSH2 0x1707 JUMP JUMPDEST PUSH1 0x40 MLOAD DUP1 SWAP2 SUB SWAP1 REVERT JUMPDEST PUSH1 0x0 PUSH20 0xFFFFFFFFFFFFFFFFFFFFFFFFFFFFFFFFFFFFFFFF AND DUP4 PUSH20 0xFFFFFFFFFFFFFFFFFFFFFFFFFFFFFFFFFFFFFFFF AND SUB PUSH2 0xE58 JUMPI PUSH1 0x0 PUSH1 0x40 MLOAD PUSH32 0x94280D6200000000000000000000000000000000000000000000000000000000 DUP2 MSTORE PUSH1 0x4 ADD PUSH2 0xE4F SWAP2 SWAP1 PUSH2 0x1707 JUMP JUMPDEST PUSH1 0x40 MLOAD DUP1 SWAP2 SUB SWAP1 REVERT JUMPDEST DUP2 PUSH1 0x1 PUSH1 0x0 DUP7 PUSH20 0xFFFFFFFFFFFFFFFFFFFFFFFFFFFFFFFFFFFFFFFF AND PUSH20 0xFFFFFFFFFFFFFFFFFFFFFFFFFFFFFFFFFFFFFFFF AND DUP2 MSTORE PUSH1 0x20 ADD SWAP1 DUP2 MSTORE PUSH1 0x20 ADD PUSH1 0x0 KECCAK256 PUSH1 0x0 DUP6 PUSH20 0xFFFFFFFFFFFFFFFFFFFFFFFFFFFFFFFFFFFFFFFF AND PUSH20 0xFFFFFFFFFFFFFFFFFFFFFFFFFFFFFFFFFFFFFFFF AND DUP2 MSTORE PUSH1 0x20 ADD SWAP1 DUP2 MSTORE PUSH1 0x20 ADD PUSH1 0x0 KECCAK256 DUP2 SWAP1 SSTORE POP DUP1 ISZERO PUSH2 0xF45 JUMPI DUP3 PUSH20 0xFFFFFFFFFFFFFFFFFFFFFFFFFFFFFFFFFFFFFFFF AND DUP5 PUSH20 0xFFFFFFFFFFFFFFFFFFFFFFFFFFFFFFFFFFFFFFFF AND PUSH32 0x8C5BE1E5EBEC7D5BD14F71427D1E84F3DD0314C0F7B2291E5B200AC8C7C3B925 DUP5 PUSH1 0x40 MLOAD PUSH2 0xF3C SWAP2 SWAP1 PUSH2 0x1416 JUMP JUMPDEST PUSH1 0x40 MLOAD DUP1 SWAP2 SUB SWAP1 LOG3 JUMPDEST POP POP POP POP JUMP JUMPDEST PUSH1 0x0 PUSH20 0xFFFFFFFFFFFFFFFFFFFFFFFFFFFFFFFFFFFFFFFF AND DUP4 PUSH20 0xFFFFFFFFFFFFFFFFFFFFFFFFFFFFFFFFFFFFFFFF AND SUB PUSH2 0xF9D JUMPI DUP1 PUSH1 0x2 PUSH1 0x0 DUP3 DUP3 SLOAD PUSH2 0xF91 SWAP2 SWAP1 PUSH2 0x1751 JUMP JUMPDEST SWAP3 POP POP DUP2 SWAP1 SSTORE POP PUSH2 0x1070 JUMP JUMPDEST PUSH1 0x0 DUP1 PUSH1 0x0 DUP6 PUSH20 0xFFFFFFFFFFFFFFFFFFFFFFFFFFFFFFFFFFFFFFFF AND PUSH20 0xFFFFFFFFFFFFFFFFFFFFFFFFFFFFFFFFFFFFFFFF AND DUP2 MSTORE PUSH1 0x20 ADD SWAP1 DUP2 MSTORE PUSH1 0x20 ADD PUSH1 0x0 KECCAK256 SLOAD SWAP1 POP DUP2 DUP2 LT ISZERO PUSH2 0x1029 JUMPI DUP4 DUP2 DUP4 PUSH1 0x40 MLOAD PUSH32 0xE450D38C00000000000000000000000000000000000000000000000000000000 DUP2 MSTORE PUSH1 0x4 ADD PUSH2 0x1020 SWAP4 SWAP3 SWAP2 SWAP1 PUSH2 0x16D0 JUMP JUMPDEST PUSH1 0x40 MLOAD DUP1 SWAP2 SUB SWAP1 REVERT JUMPDEST DUP2 DUP2 SUB PUSH1 0x0 DUP1 DUP7 PUSH20 0xFFFFFFFFFFFFFFFFFFFFFFFFFFFFFFFFFFFFFFFF AND PUSH20 0xFFFFFFFFFFFFFFFFFFFFFFFFFFFFFFFFFFFFFFFF AND DUP2 MSTORE PUSH1 0x20 ADD SWAP1 DUP2 MSTORE PUSH1 0x20 ADD PUSH1 0x0 KECCAK256 DUP2 SWAP1 SSTORE POP POP JUMPDEST PUSH1 0x0 PUSH20 0xFFFFFFFFFFFFFFFFFFFFFFFFFFFFFFFFFFFFFFFF AND DUP3 PUSH20 0xFFFFFFFFFFFFFFFFFFFFFFFFFFFFFFFFFFFFFFFF AND SUB PUSH2 0x10B9 JUMPI DUP1 PUSH1 0x2 PUSH1 0x0 DUP3 DUP3 SLOAD SUB SWAP3 POP POP DUP2 SWAP1 SSTORE POP PUSH2 0x1106 JUMP JUMPDEST DUP1 PUSH1 0x0 DUP1 DUP5 PUSH20 0xFFFFFFFFFFFFFFFFFFFFFFFFFFFFFFFFFFFFFFFF AND PUSH20 0xFFFFFFFFFFFFFFFFFFFFFFFFFFFFFFFFFFFFFFFF AND DUP2 MSTORE PUSH1 0x20 ADD SWAP1 DUP2 MSTORE PUSH1 0x20 ADD PUSH1 0x0 KECCAK256 PUSH1 0x0 DUP3 DUP3 SLOAD ADD SWAP3 POP POP DUP2 SWAP1 SSTORE POP JUMPDEST DUP2 PUSH20 0xFFFFFFFFFFFFFFFFFFFFFFFFFFFFFFFFFFFFFFFF AND DUP4 PUSH20 0xFFFFFFFFFFFFFFFFFFFFFFFFFFFFFFFFFFFFFFFF AND PUSH32 0xDDF252AD1BE2C89B69C2B068FC378DAA952BA7F163C4A11628F55A4DF523B3EF DUP4 PUSH1 0x40 MLOAD PUSH2 0x1163 SWAP2 SWAP1 PUSH2 0x1416 JUMP JUMPDEST PUSH1 0x40 MLOAD DUP1 SWAP2 SUB SWAP1 LOG3 POP POP POP JUMP JUMPDEST PUSH2 0x117A DUP3 DUP3 PUSH2 0x6D5 JUMP JUMPDEST PUSH2 0x11BD JUMPI DUP1 DUP3 PUSH1 0x40 MLOAD PUSH32 0xE2517D3F00000000000000000000000000000000000000000000000000000000 DUP2 MSTORE PUSH1 0x4 ADD PUSH2 0x11B4 SWAP3 SWAP2 SWAP1 PUSH2 0x1785 JUMP JUMPDEST PUSH1 0x40 MLOAD DUP1 SWAP2 SUB SWAP1 REVERT JUMPDEST POP POP JUMP JUMPDEST PUSH1 0x0 DUP1 REVERT JUMPDEST PUSH1 0x0 PUSH32 0xFFFFFFFF00000000000000000000000000000000000000000000000000000000 DUP3 AND SWAP1 POP SWAP2 SWAP1 POP JUMP JUMPDEST PUSH2 0x11FB DUP2 PUSH2 0x11C6 JUMP JUMPDEST DUP2 EQ PUSH2 0x1206 JUMPI PUSH1 0x0 DUP1 REVERT JUMPDEST POP JUMP JUMPDEST PUSH1 0x0 DUP2 CALLDATALOAD SWAP1 POP PUSH2 0x1218 DUP2 PUSH2 0x11F2 JUMP JUMPDEST SWAP3 SWAP2 POP POP JUMP JUMPDEST PUSH1 0x0 PUSH1 0x20 DUP3 DUP5 SUB SLT ISZERO PUSH2 0x1234 JUMPI PUSH2 0x1233 PUSH2 0x11C1 JUMP JUMPDEST JUMPDEST PUSH1 0x0 PUSH2 0x1242 DUP5 DUP3 DUP6 ADD PUSH2 0x1209 JUMP JUMPDEST SWAP2 POP POP SWAP3 SWAP2 POP POP JUMP JUMPDEST PUSH1 0x0 DUP2 ISZERO ISZERO SWAP1 POP SWAP2 SWAP1 POP JUMP JUMPDEST PUSH2 0x1260 DUP2 PUSH2 0x124B JUMP JUMPDEST DUP3 MSTORE POP POP JUMP JUMPDEST PUSH1 0x0 PUSH1 0x20 DUP3 ADD SWAP1 POP PUSH2 0x127B PUSH1 0x0 DUP4 ADD DUP5 PUSH2 0x1257 JUMP JUMPDEST SWAP3 SWAP2 POP POP JUMP JUMPDEST PUSH1 0x0 DUP2 MLOAD SWAP1 POP SWAP2 SWAP1 POP JUMP JUMPDEST PUSH1 0x0 DUP3 DUP3 MSTORE PUSH1 0x20 DUP3 ADD SWAP1 POP SWAP3 SWAP2 POP POP JUMP JUMPDEST PUSH1 0x0 JUMPDEST DUP4 DUP2 LT ISZERO PUSH2 0x12BB JUMPI DUP1 DUP3 ADD MLOAD DUP2 DUP5 ADD MSTORE PUSH1 0x20 DUP2 ADD SWAP1 POP PUSH2 0x12A0 JUMP JUMPDEST PUSH1 0x0 DUP5 DUP5 ADD MSTORE POP POP POP POP JUMP JUMPDEST PUSH1 0x0 PUSH1 0x1F NOT PUSH1 0x1F DUP4 ADD AND SWAP1 POP SWAP2 SWAP1 POP JUMP JUMPDEST PUSH1 0x0 PUSH2 0x12E3 DUP3 PUSH2 0x1281 JUMP JUMPDEST PUSH2 0x12ED DUP2 DUP6 PUSH2 0x128C JUMP JUMPDEST SWAP4 POP PUSH2 0x12FD DUP2 DUP6 PUSH1 0x20 DUP7 ADD PUSH2 0x129D JUMP JUMPDEST PUSH2 0x1306 DUP2 PUSH2 0x12C7 JUMP JUMPDEST DUP5 ADD SWAP2 POP POP SWAP3 SWAP2 POP POP JUMP JUMPDEST PUSH1 0x0 PUSH1 0x20 DUP3 ADD SWAP1 POP DUP2 DUP2 SUB PUSH1 0x0 DUP4 ADD MSTORE PUSH2 0x132B DUP2 DUP5 PUSH2 0x12D8 JUMP JUMPDEST SWAP1 POP SWAP3 SWAP2 POP POP JUMP JUMPDEST PUSH1 0x0 PUSH20 0xFFFFFFFFFFFFFFFFFFFFFFFFFFFFFFFFFFFFFFFF DUP3 AND SWAP1 POP SWAP2 SWAP1 POP JUMP JUMPDEST PUSH1 0x0 PUSH2 0x135E DUP3 PUSH2 0x1333 JUMP JUMPDEST SWAP1 POP SWAP2 SWAP1 POP JUMP JUMPDEST PUSH2 0x136E DUP2 PUSH2 0x1353 JUMP JUMPDEST DUP2 EQ PUSH2 0x1379 JUMPI PUSH1 0x0 DUP1 REVERT JUMPDEST POP JUMP JUMPDEST PUSH1 0x0 DUP2 CALLDATALOAD SWAP1 POP PUSH2 0x138B DUP2 PUSH2 0x1365 JUMP JUMPDEST SWAP3 SWAP2 POP POP JUMP JUMPDEST PUSH1 0x0 DUP2 SWAP1 POP SWAP2 SWAP1 POP JUMP JUMPDEST PUSH2 0x13A4 DUP2 PUSH2 0x1391 JUMP JUMPDEST DUP2 EQ PUSH2 0x13AF JUMPI PUSH1 0x0 DUP1 REVERT JUMPDEST POP JUMP JUMPDEST PUSH1 0x0 DUP2 CALLDATALOAD SWAP1 POP PUSH2 0x13C1 DUP2 PUSH2 0x139B JUMP JUMPDEST SWAP3 SWAP2 POP POP JUMP JUMPDEST PUSH1 0x0 DUP1 PUSH1 0x40 DUP4 DUP6 SUB SLT ISZERO PUSH2 0x13DE JUMPI PUSH2 0x13DD PUSH2 0x11C1 JUMP JUMPDEST JUMPDEST PUSH1 0x0 PUSH2 0x13EC DUP6 DUP3 DUP7 ADD PUSH2 0x137C JUMP JUMPDEST SWAP3 POP POP PUSH1 0x20 PUSH2 0x13FD DUP6 DUP3 DUP7 ADD PUSH2 0x13B2 JUMP JUMPDEST SWAP2 POP POP SWAP3 POP SWAP3 SWAP1 POP JUMP JUMPDEST PUSH2 0x1410 DUP2 PUSH2 0x1391 JUMP JUMPDEST DUP3 MSTORE POP POP JUMP JUMPDEST PUSH1 0x0 PUSH1 0x20 DUP3 ADD SWAP1 POP PUSH2 0x142B PUSH1 0x0 DUP4 ADD DUP5 PUSH2 0x1407 JUMP JUMPDEST SWAP3 SWAP2 POP POP JUMP JUMPDEST PUSH1 0x0 DUP1 PUSH1 0x0 PUSH1 0x60 DUP5 DUP7 SUB SLT ISZERO PUSH2 0x144A JUMPI PUSH2 0x1449 PUSH2 0x11C1 JUMP JUMPDEST JUMPDEST PUSH1 0x0 PUSH2 0x1458 DUP7 DUP3 DUP8 ADD PUSH2 0x137C JUMP JUMPDEST SWAP4 POP POP PUSH1 0x20 PUSH2 0x1469 DUP7 DUP3 DUP8 ADD PUSH2 0x137C JUMP JUMPDEST SWAP3 POP POP PUSH1 0x40 PUSH2 0x147A DUP7 DUP3 DUP8 ADD PUSH2 0x13B2 JUMP JUMPDEST SWAP2 POP POP SWAP3 POP SWAP3 POP SWAP3 JUMP JUMPDEST PUSH1 0x0 DUP2 SWAP1 POP SWAP2 SWAP1 POP JUMP JUMPDEST PUSH2 0x1497 DUP2 PUSH2 0x1484 JUMP JUMPDEST DUP2 EQ PUSH2 0x14A2 JUMPI PUSH1 0x0 DUP1 REVERT JUMPDEST POP JUMP JUMPDEST PUSH1 0x0 DUP2 CALLDATALOAD SWAP1 POP PUSH2 0x14B4 DUP2 PUSH2 0x148E JUMP JUMPDEST SWAP3 SWAP2 POP POP JUMP JUMPDEST PUSH1 0x0 PUSH1 0x20 DUP3 DUP5 SUB SLT ISZERO PUSH2 0x14D0 JUMPI PUSH2 0x14CF PUSH2 0x11C1 JUMP JUMPDEST JUMPDEST PUSH1 0x0 PUSH2 0x14DE DUP5 DUP3 DUP6 ADD PUSH2 0x14A5 JUMP JUMPDEST SWAP2 POP POP SWAP3 SWAP2 POP POP JUMP JUMPDEST PUSH2 0x14F0 DUP2 PUSH2 0x1484 JUMP JUMPDEST DUP3 MSTORE POP POP JUMP JUMPDEST PUSH1 0x0 PUSH1 0x20 DUP3 ADD SWAP1 POP PUSH2 0x150B PUSH1 0x0 DUP4 ADD DUP5 PUSH2 0x14E7 JUMP JUMPDEST SWAP3 SWAP2 POP POP JUMP JUMPDEST PUSH1 0x0 DUP1 PUSH1 0x40 DUP4 DUP6 SUB SLT ISZERO PUSH2 0x1528 JUMPI PUSH2 0x1527 PUSH2 0x11C1 JUMP JUMPDEST JUMPDEST PUSH1 0x0 PUSH2 0x1536 DUP6 DUP3 DUP7 ADD PUSH2 0x14A5 JUMP JUMPDEST SWAP3 POP POP PUSH1 0x20 PUSH2 0x1547 DUP6 DUP3 DUP7 ADD PUSH2 0x137C JUMP JUMPDEST SWAP2 POP POP SWAP3 POP SWAP3 SWAP1 POP JUMP JUMPDEST PUSH1 0x0 PUSH1 0xFF DUP3 AND SWAP1 POP SWAP2 SWAP1 POP JUMP JUMPDEST PUSH2 0x1567 DUP2 PUSH2 0x1551 JUMP JUMPDEST DUP3 MSTORE POP POP JUMP JUMPDEST PUSH1 0x0 PUSH1 0x20 DUP3 ADD SWAP1 POP PUSH2 0x1582 PUSH1 0x0 DUP4 ADD DUP5 PUSH2 0x155E JUMP JUMPDEST SWAP3 SWAP2 POP POP JUMP JUMPDEST PUSH1 0x0 PUSH1 0x20 DUP3 DUP5 SUB SLT ISZERO PUSH2 0x159E JUMPI PUSH2 0x159D PUSH2 0x11C1 JUMP JUMPDEST JUMPDEST PUSH1 0x0 PUSH2 0x15AC DUP5 DUP3 DUP6 ADD PUSH2 0x137C JUMP JUMPDEST SWAP2 POP POP SWAP3 SWAP2 POP POP JUMP JUMPDEST PUSH1 0x0 DUP1 PUSH1 0x40 DUP4 DUP6 SUB SLT ISZERO PUSH2 0x15CC JUMPI PUSH2 0x15CB PUSH2 0x11C1 JUMP JUMPDEST JUMPDEST PUSH1 0x0 PUSH2 0x15DA DUP6 DUP3 DUP7 ADD PUSH2 0x137C JUMP JUMPDEST SWAP3 POP POP PUSH1 0x20 PUSH2 0x15EB DUP6 DUP3 DUP7 ADD PUSH2 0x137C JUMP JUMPDEST SWAP2 POP POP SWAP3 POP SWAP3 SWAP1 POP JUMP JUMPDEST PUSH32 0x4E487B7100000000000000000000000000000000000000000000000000000000 PUSH1 0x0 MSTORE PUSH1 0x22 PUSH1 0x4 MSTORE PUSH1 0x24 PUSH1 0x0 REVERT JUMPDEST PUSH1 0x0 PUSH1 0x2 DUP3 DIV SWAP1 POP PUSH1 0x1 DUP3 AND DUP1 PUSH2 0x163C JUMPI PUSH1 0x7F DUP3 AND SWAP2 POP JUMPDEST PUSH1 0x20 DUP3 LT DUP2 SUB PUSH2 0x164F JUMPI PUSH2 0x164E PUSH2 0x15F5 JUMP JUMPDEST JUMPDEST POP SWAP2 SWAP1 POP JUMP JUMPDEST PUSH32 0x43616C6C6572206973206E6F742061206D696E74657200000000000000000000 PUSH1 0x0 DUP3 ADD MSTORE POP JUMP JUMPDEST PUSH1 0x0 PUSH2 0x168B PUSH1 0x16 DUP4 PUSH2 0x128C JUMP JUMPDEST SWAP2 POP PUSH2 0x1696 DUP3 PUSH2 0x1655 JUMP JUMPDEST PUSH1 0x20 DUP3 ADD SWAP1 POP SWAP2 SWAP1 POP JUMP JUMPDEST PUSH1 0x0 PUSH1 0x20 DUP3 ADD SWAP1 POP DUP2 DUP2 SUB PUSH1 0x0 DUP4 ADD MSTORE PUSH2 0x16BA DUP2 PUSH2 0x167E JUMP JUMPDEST SWAP1 POP SWAP2 SWAP1 POP JUMP JUMPDEST PUSH2 0x16CA DUP2 PUSH2 0x1353 JUMP JUMPDEST DUP3 MSTORE POP POP JUMP JUMPDEST PUSH1 0x0 PUSH1 0x60 DUP3 ADD SWAP1 POP PUSH2 0x16E5 PUSH1 0x0 DUP4 ADD DUP7 PUSH2 0x16C1 JUMP JUMPDEST PUSH2 0x16F2 PUSH1 0x20 DUP4 ADD DUP6 PUSH2 0x1407 JUMP JUMPDEST PUSH2 0x16FF PUSH1 0x40 DUP4 ADD DUP5 PUSH2 0x1407 JUMP JUMPDEST SWAP5 SWAP4 POP POP POP POP JUMP JUMPDEST PUSH1 0x0 PUSH1 0x20 DUP3 ADD SWAP1 POP PUSH2 0x171C PUSH1 0x0 DUP4 ADD DUP5 PUSH2 0x16C1 JUMP JUMPDEST SWAP3 SWAP2 POP POP JUMP JUMPDEST PUSH32 0x4E487B7100000000000000000000000000000000000000000000000000000000 PUSH1 0x0 MSTORE PUSH1 0x11 PUSH1 0x4 MSTORE PUSH1 0x24 PUSH1 0x0 REVERT JUMPDEST PUSH1 0x0 PUSH2 0x175C DUP3 PUSH2 0x1391 JUMP JUMPDEST SWAP2 POP PUSH2 0x1767 DUP4 PUSH2 0x1391 JUMP JUMPDEST SWAP3 POP DUP3 DUP3 ADD SWAP1 POP DUP1 DUP3 GT ISZERO PUSH2 0x177F JUMPI PUSH2 0x177E PUSH2 0x1722 JUMP JUMPDEST JUMPDEST SWAP3 SWAP2 POP POP JUMP JUMPDEST PUSH1 0x0 PUSH1 0x40 DUP3 ADD SWAP1 POP PUSH2 0x179A PUSH1 0x0 DUP4 ADD DUP6 PUSH2 0x16C1 JUMP JUMPDEST PUSH2 0x17A7 PUSH1 0x20 DUP4 ADD DUP5 PUSH2 0x14E7 JUMP JUMPDEST SWAP4 SWAP3 POP POP POP JUMP INVALID LOG2 PUSH5 0x6970667358 0x22 SLT KECCAK256 LOG4 DUP6 0xC5 EXTCODEHASH 0xC 0xB9 0xAE SWAP13 KECCAK256 CALLDATASIZE PUSH10 0x40C3FCF996DB368670E2 SWAP16 DUP15 LOG1 0xD8 0xE2 PUSH30 0xEE69F6258E64736F6C63430008180033A2646970667358221220F9BDED45 CALL 0x29 LOG3 POP PUSH9 0x9A50CC7F832EEDE203 PUSH13 0x97B5F6D69B6F2E7C7777F7124E PUSH5 0x736F6C6343 STOP ADDMOD XOR STOP CALLER "
        },
        "methodIdentifiers": {
          "assets(address,uint256)": "51eb27c0",
          "buyAsset(address)": "86bb5a48",
          "createAsset(string,string,uint256,uint256,string)": "c55f4682",
          "owner()": "8da5cb5b"
        }
      }
    }
  }
}