{
  "_format": "hh-sol-artifact-1",
  "contractName": "TokenizedAssetManagement",
  "sourceName": "contracts/TokenizedAssetManagement.sol",
  "abi": [
    {
      "inputs": [
        {
          "internalType": "address",
          "name": "priceFeedAddress",
          "type": "address"
        }
      ],
      "stateMutability": "nonpayable",
      "type": "constructor"
    },
    {
      "anonymous": false,
      "inputs": [
        {
          "indexed": true,
          "internalType": "address",
          "name": "buyer",
          "type": "address"
        },
        {
          "indexed": true,
          "internalType": "address",
          "name": "tokenAddress",
          "type": "address"
        },
        {
          "indexed": false,
          "internalType": "uint256",
          "name": "amount",
          "type": "uint256"
        }
      ],
      "name": "AssetBought",
      "type": "event"
    },
    {
      "anonymous": false,
      "inputs": [
        {
          "indexed": true,
          "internalType": "address",
          "name": "tokenAddress",
          "type": "address"
        },
        {
          "indexed": false,
          "internalType": "string",
          "name": "uri",
          "type": "string"
        },
        {
          "indexed": false,
          "internalType": "uint256",
          "name": "priceUSD",
          "type": "uint256"
        }
      ],
      "name": "AssetCreated",
      "type": "event"
    },
    {
      "inputs": [
        {
          "internalType": "address",
          "name": "",
          "type": "address"
        }
      ],
      "name": "assets",
      "outputs": [
        {
          "internalType": "address",
          "name": "tokenAddress",
          "type": "address"
        },
        {
          "internalType": "string",
          "name": "uri",
          "type": "string"
        },
        {
          "internalType": "uint256",
          "name": "priceUSD",
          "type": "uint256"
        }
      ],
      "stateMutability": "view",
      "type": "function"
    },
    {
      "inputs": [
        {
          "internalType": "address",
          "name": "tokenAddress",
          "type": "address"
        }
      ],
      "name": "buyAsset",
      "outputs": [],
      "stateMutability": "payable",
      "type": "function"
    },
    {
      "inputs": [
        {
          "internalType": "string",
          "name": "name",
          "type": "string"
        },
        {
          "internalType": "string",
          "name": "symbol",
          "type": "string"
        },
        {
          "internalType": "uint256",
          "name": "totalSupply",
          "type": "uint256"
        },
        {
          "internalType": "uint256",
          "name": "priceUSD",
          "type": "uint256"
        },
        {
          "internalType": "string",
          "name": "uri",
          "type": "string"
        }
      ],
      "name": "createAsset",
      "outputs": [],
      "stateMutability": "nonpayable",
      "type": "function"
    },
    {
      "inputs": [],
      "name": "owner",
      "outputs": [
        {
          "internalType": "address",
          "name": "",
          "type": "address"
        }
      ],
      "stateMutability": "view",
      "type": "function"
    }
  ],
  "bytecode": "0x60806040523480156200001157600080fd5b50604051620036bb380380620036bb833981810160405281019062000037919062000129565b336000806101000a81548173ffffffffffffffffffffffffffffffffffffffff021916908373ffffffffffffffffffffffffffffffffffffffff16021790555080600160006101000a81548173ffffffffffffffffffffffffffffffffffffffff021916908373ffffffffffffffffffffffffffffffffffffffff160217905550506200015b565b600080fd5b600073ffffffffffffffffffffffffffffffffffffffff82169050919050565b6000620000f182620000c4565b9050919050565b6200010381620000e4565b81146200010f57600080fd5b50565b6000815190506200012381620000f8565b92915050565b600060208284031215620001425762000141620000bf565b5b6000620001528482850162000112565b91505092915050565b613550806200016b6000396000f3fe608060405260043610620000445760003560e01c806386bb5a4814620000495780638da5cb5b1462000069578063c55f46821462000099578063f11b818814620000c7575b600080fd5b62000067600480360381019062000061919062000911565b6200010d565b005b3480156200007657600080fd5b50620000816200056f565b60405162000090919062000954565b60405180910390f35b348015620000a657600080fd5b50620000c56004803603810190620000bf919062000b0e565b62000593565b005b348015620000d457600080fd5b50620000f36004803603810190620000ed919062000911565b6200070c565b604051620001049392919062000c8d565b60405180910390f35b6000600260008373ffffffffffffffffffffffffffffffffffffffff1673ffffffffffffffffffffffffffffffffffffffff1681526020019081526020016000206040518060600160405290816000820160009054906101000a900473ffffffffffffffffffffffffffffffffffffffff1673ffffffffffffffffffffffffffffffffffffffff1673ffffffffffffffffffffffffffffffffffffffff168152602001600182018054620001c19062000d00565b80601f0160208091040260200160405190810160405280929190818152602001828054620001ef9062000d00565b8015620002405780601f10620002145761010080835404028352916020019162000240565b820191906000526020600020905b8154815290600101906020018083116200022257829003601f168201915b505050505081526020016002820154815250509050600073ffffffffffffffffffffffffffffffffffffffff16816000015173ffffffffffffffffffffffffffffffffffffffff1603620002cb576040517f08c379a0000000000000000000000000000000000000000000000000000000008152600401620002c29062000d85565b60405180910390fd5b6000620002d7620007e6565b9050600081136200031f576040517f08c379a0000000000000000000000000000000000000000000000000000000008152600401620003169062000df7565b60405180910390fd5b60006305f5e100823462000334919062000e48565b62000340919062000ec2565b90506000811162000388576040517f08c379a00000000000000000000000000000000000000000000000000000000081526004016200037f9062000f4a565b60405180910390fd5b60008360400151670de0b6b3a764000083620003a5919062000e48565b620003b1919062000ec2565b90506000859050818173ffffffffffffffffffffffffffffffffffffffff166370a08231306040518263ffffffff1660e01b8152600401620003f4919062000954565b602060405180830381865afa15801562000412573d6000803e3d6000fd5b505050506040513d601f19601f8201168201806040525081019062000438919062000f83565b10156200047c576040517f08c379a0000000000000000000000000000000000000000000000000000000008152600401620004739062001005565b60405180910390fd5b8073ffffffffffffffffffffffffffffffffffffffff1663a9059cbb33846040518363ffffffff1660e01b8152600401620004b992919062001027565b6020604051808303816000875af1158015620004d9573d6000803e3d6000fd5b505050506040513d601f19601f82011682018060405250810190620004ff919062001091565b508573ffffffffffffffffffffffffffffffffffffffff163373ffffffffffffffffffffffffffffffffffffffff167fa5d5e5898103a502fa4b6a25b2afacdc96e4db96d19ab4fb886f767b98eca3fb846040516200055f9190620010c3565b60405180910390a3505050505050565b60008054906101000a900473ffffffffffffffffffffffffffffffffffffffff1681565b600085858533604051620005a7906200088a565b620005b69493929190620010e0565b604051809103906000f080158015620005d3573d6000803e3d6000fd5b50905060405180606001604052808273ffffffffffffffffffffffffffffffffffffffff16815260200183815260200184815250600260008373ffffffffffffffffffffffffffffffffffffffff1673ffffffffffffffffffffffffffffffffffffffff16815260200190815260200160002060008201518160000160006101000a81548173ffffffffffffffffffffffffffffffffffffffff021916908373ffffffffffffffffffffffffffffffffffffffff1602179055506020820151816001019081620006a491906200130d565b50604082015181600201559050508073ffffffffffffffffffffffffffffffffffffffff167f07b2f101177a41d4b67dc75be292324501065ce250ecc2259eeda62d3d75769d8385604051620006fc929190620013f4565b60405180910390a2505050505050565b60026020528060005260406000206000915090508060000160009054906101000a900473ffffffffffffffffffffffffffffffffffffffff1690806001018054620007579062000d00565b80601f0160208091040260200160405190810160405280929190818152602001828054620007859062000d00565b8015620007d65780601f10620007aa57610100808354040283529160200191620007d6565b820191906000526020600020905b815481529060010190602001808311620007b857829003601f168201915b5050505050908060020154905083565b600080600160009054906101000a900473ffffffffffffffffffffffffffffffffffffffff1673ffffffffffffffffffffffffffffffffffffffff1663feaf968c6040518163ffffffff1660e01b815260040160a060405180830381865afa15801562000857573d6000803e3d6000fd5b505050506040513d601f19601f820116820180604052508101906200087d9190620014aa565b5050509150508091505090565b611fe8806200153383390190565b6000604051905090565b600080fd5b600080fd5b600073ffffffffffffffffffffffffffffffffffffffff82169050919050565b6000620008d982620008ac565b9050919050565b620008eb81620008cc565b8114620008f757600080fd5b50565b6000813590506200090b81620008e0565b92915050565b6000602082840312156200092a5762000929620008a2565b5b60006200093a84828501620008fa565b91505092915050565b6200094e81620008cc565b82525050565b60006020820190506200096b600083018462000943565b92915050565b600080fd5b600080fd5b6000601f19601f8301169050919050565b7f4e487b7100000000000000000000000000000000000000000000000000000000600052604160045260246000fd5b620009c6826200097b565b810181811067ffffffffffffffff82111715620009e857620009e76200098c565b5b80604052505050565b6000620009fd62000898565b905062000a0b8282620009bb565b919050565b600067ffffffffffffffff82111562000a2e5762000a2d6200098c565b5b62000a39826200097b565b9050602081019050919050565b82818337600083830152505050565b600062000a6c62000a668462000a10565b620009f1565b90508281526020810184848401111562000a8b5762000a8a62000976565b5b62000a9884828562000a46565b509392505050565b600082601f83011262000ab85762000ab762000971565b5b813562000aca84826020860162000a55565b91505092915050565b6000819050919050565b62000ae88162000ad3565b811462000af457600080fd5b50565b60008135905062000b088162000add565b92915050565b600080600080600060a0868803121562000b2d5762000b2c620008a2565b5b600086013567ffffffffffffffff81111562000b4e5762000b4d620008a7565b5b62000b5c8882890162000aa0565b955050602086013567ffffffffffffffff81111562000b805762000b7f620008a7565b5b62000b8e8882890162000aa0565b945050604062000ba18882890162000af7565b935050606062000bb48882890162000af7565b925050608086013567ffffffffffffffff81111562000bd85762000bd7620008a7565b5b62000be68882890162000aa0565b9150509295509295909350565b600081519050919050565b600082825260208201905092915050565b60005b8381101562000c2f57808201518184015260208101905062000c12565b60008484015250505050565b600062000c488262000bf3565b62000c54818562000bfe565b935062000c6681856020860162000c0f565b62000c71816200097b565b840191505092915050565b62000c878162000ad3565b82525050565b600060608201905062000ca4600083018662000943565b818103602083015262000cb8818562000c3b565b905062000cc9604083018462000c7c565b949350505050565b7f4e487b7100000000000000000000000000000000000000000000000000000000600052602260045260246000fd5b6000600282049050600182168062000d1957607f821691505b60208210810362000d2f5762000d2e62000cd1565b5b50919050565b7f417373657420646f6573206e6f74206578697374000000000000000000000000600082015250565b600062000d6d60148362000bfe565b915062000d7a8262000d35565b602082019050919050565b6000602082019050818103600083015262000da08162000d5e565b9050919050565b7f496e76616c6964204554482f5553442070726963650000000000000000000000600082015250565b600062000ddf60158362000bfe565b915062000dec8262000da7565b602082019050919050565b6000602082019050818103600083015262000e128162000dd0565b9050919050565b7f4e487b7100000000000000000000000000000000000000000000000000000000600052601160045260246000fd5b600062000e558262000ad3565b915062000e628362000ad3565b925082820262000e728162000ad3565b9150828204841483151762000e8c5762000e8b62000e19565b5b5092915050565b7f4e487b7100000000000000000000000000000000000000000000000000000000600052601260045260246000fd5b600062000ecf8262000ad3565b915062000edc8362000ad3565b92508262000eef5762000eee62000e93565b5b828204905092915050565b7f496e73756666696369656e74207061796d656e74000000000000000000000000600082015250565b600062000f3260148362000bfe565b915062000f3f8262000efa565b602082019050919050565b6000602082019050818103600083015262000f658162000f23565b9050919050565b60008151905062000f7d8162000add565b92915050565b60006020828403121562000f9c5762000f9b620008a2565b5b600062000fac8482850162000f6c565b91505092915050565b7f4e6f7420656e6f75676820746f6b656e7320617661696c61626c650000000000600082015250565b600062000fed601b8362000bfe565b915062000ffa8262000fb5565b602082019050919050565b60006020820190508181036000830152620010208162000fde565b9050919050565b60006040820190506200103e600083018562000943565b6200104d602083018462000c7c565b9392505050565b60008115159050919050565b6200106b8162001054565b81146200107757600080fd5b50565b6000815190506200108b8162001060565b92915050565b600060208284031215620010aa57620010a9620008a2565b5b6000620010ba848285016200107a565b91505092915050565b6000602082019050620010da600083018462000c7c565b92915050565b60006080820190508181036000830152620010fc818762000c3b565b9050818103602083015262001112818662000c3b565b905062001123604083018562000c7c565b62001132606083018462000943565b95945050505050565b60008190508160005260206000209050919050565b60006020601f8301049050919050565b600082821b905092915050565b6000600883026200119f7fffffffffffffffffffffffffffffffffffffffffffffffffffffffffffffffff8262001160565b620011ab868362001160565b95508019841693508086168417925050509392505050565b6000819050919050565b6000620011ee620011e8620011e28462000ad3565b620011c3565b62000ad3565b9050919050565b6000819050919050565b6200120a83620011cd565b620012226200121982620011f5565b8484546200116d565b825550505050565b600090565b620012396200122a565b62001246818484620011ff565b505050565b5b818110156200126e57620012626000826200122f565b6001810190506200124c565b5050565b601f821115620012bd5762001287816200113b565b620012928462001150565b81016020851015620012a2578190505b620012ba620012b18562001150565b8301826200124b565b50505b505050565b600082821c905092915050565b6000620012e260001984600802620012c2565b1980831691505092915050565b6000620012fd8383620012cf565b9150826002028217905092915050565b620013188262000bf3565b67ffffffffffffffff8111156200133457620013336200098c565b5b62001340825462000d00565b6200134d82828562001272565b600060209050601f83116001811462001385576000841562001370578287015190505b6200137c8582620012ef565b865550620013ec565b601f19841662001395866200113b565b60005b82811015620013bf5784890151825560018201915060208501945060208101905062001398565b86831015620013df5784890151620013db601f891682620012cf565b8355505b6001600288020188555050505b505050505050565b6000604082019050818103600083015262001410818562000c3b565b905062001421602083018462000c7c565b9392505050565b600069ffffffffffffffffffff82169050919050565b620014498162001428565b81146200145557600080fd5b50565b60008151905062001469816200143e565b92915050565b6000819050919050565b62001484816200146f565b81146200149057600080fd5b50565b600081519050620014a48162001479565b92915050565b600080600080600060a08688031215620014c957620014c8620008a2565b5b6000620014d98882890162001458565b9550506020620014ec8882890162001493565b9450506040620014ff8882890162000f6c565b9350506060620015128882890162000f6c565b9250506080620015258882890162001458565b915050929550929590935056fe60a06040523480156200001157600080fd5b5060405162001fe838038062001fe883398181016040528101906200003791906200071e565b80848481600390816200004b919062000a0f565b5080600490816200005d919062000a0f565b505050600073ffffffffffffffffffffffffffffffffffffffff168173ffffffffffffffffffffffffffffffffffffffff1603620000d55760006040517f1e4fbdf7000000000000000000000000000000000000000000000000000000008152600401620000cc919062000b07565b60405180910390fd5b620000e6816200016860201b60201c565b50600082116200012d576040517f08c379a0000000000000000000000000000000000000000000000000000000008152600401620001249062000bab565b60405180910390fd5b670de0b6b3a76400008262000143919062000bfc565b608081815250506200015e336080516200022e60201b60201c565b5050505062000ced565b6000600560009054906101000a900473ffffffffffffffffffffffffffffffffffffffff16905081600560006101000a81548173ffffffffffffffffffffffffffffffffffffffff021916908373ffffffffffffffffffffffffffffffffffffffff1602179055508173ffffffffffffffffffffffffffffffffffffffff168173ffffffffffffffffffffffffffffffffffffffff167f8be0079c531659141344cd1fd0a4f28419497f9722a3daafe3b4186f6b6457e060405160405180910390a35050565b600073ffffffffffffffffffffffffffffffffffffffff168273ffffffffffffffffffffffffffffffffffffffff1603620002a35760006040517fec442f050000000000000000000000000000000000000000000000000000000081526004016200029a919062000b07565b60405180910390fd5b620002b760008383620002bb60201b60201c565b5050565b600073ffffffffffffffffffffffffffffffffffffffff168373ffffffffffffffffffffffffffffffffffffffff16036200031157806002600082825462000304919062000c47565b92505081905550620003e7565b60008060008573ffffffffffffffffffffffffffffffffffffffff1673ffffffffffffffffffffffffffffffffffffffff16815260200190815260200160002054905081811015620003a0578381836040517fe450d38c000000000000000000000000000000000000000000000000000000008152600401620003979392919062000c93565b60405180910390fd5b8181036000808673ffffffffffffffffffffffffffffffffffffffff1673ffffffffffffffffffffffffffffffffffffffff16815260200190815260200160002081905550505b600073ffffffffffffffffffffffffffffffffffffffff168273ffffffffffffffffffffffffffffffffffffffff16036200043257806002600082825403925050819055506200047f565b806000808473ffffffffffffffffffffffffffffffffffffffff1673ffffffffffffffffffffffffffffffffffffffff168152602001908152602001600020600082825401925050819055505b8173ffffffffffffffffffffffffffffffffffffffff168373ffffffffffffffffffffffffffffffffffffffff167fddf252ad1be2c89b69c2b068fc378daa952ba7f163c4a11628f55a4df523b3ef83604051620004de919062000cd0565b60405180910390a3505050565b6000604051905090565b600080fd5b600080fd5b600080fd5b600080fd5b6000601f19601f8301169050919050565b7f4e487b7100000000000000000000000000000000000000000000000000000000600052604160045260246000fd5b620005548262000509565b810181811067ffffffffffffffff821117156200057657620005756200051a565b5b80604052505050565b60006200058b620004eb565b905062000599828262000549565b919050565b600067ffffffffffffffff821115620005bc57620005bb6200051a565b5b620005c78262000509565b9050602081019050919050565b60005b83811015620005f4578082015181840152602081019050620005d7565b60008484015250505050565b60006200061762000611846200059e565b6200057f565b90508281526020810184848401111562000636576200063562000504565b5b62000643848285620005d4565b509392505050565b600082601f830112620006635762000662620004ff565b5b81516200067584826020860162000600565b91505092915050565b6000819050919050565b62000693816200067e565b81146200069f57600080fd5b50565b600081519050620006b38162000688565b92915050565b600073ffffffffffffffffffffffffffffffffffffffff82169050919050565b6000620006e682620006b9565b9050919050565b620006f881620006d9565b81146200070457600080fd5b50565b6000815190506200071881620006ed565b92915050565b600080600080608085870312156200073b576200073a620004f5565b5b600085015167ffffffffffffffff8111156200075c576200075b620004fa565b5b6200076a878288016200064b565b945050602085015167ffffffffffffffff8111156200078e576200078d620004fa565b5b6200079c878288016200064b565b9350506040620007af87828801620006a2565b9250506060620007c28782880162000707565b91505092959194509250565b600081519050919050565b7f4e487b7100000000000000000000000000000000000000000000000000000000600052602260045260246000fd5b600060028204905060018216806200082157607f821691505b602082108103620008375762000836620007d9565b5b50919050565b60008190508160005260206000209050919050565b60006020601f8301049050919050565b600082821b905092915050565b600060088302620008a17fffffffffffffffffffffffffffffffffffffffffffffffffffffffffffffffff8262000862565b620008ad868362000862565b95508019841693508086168417925050509392505050565b6000819050919050565b6000620008f0620008ea620008e4846200067e565b620008c5565b6200067e565b9050919050565b6000819050919050565b6200090c83620008cf565b620009246200091b82620008f7565b8484546200086f565b825550505050565b600090565b6200093b6200092c565b6200094881848462000901565b505050565b5b8181101562000970576200096460008262000931565b6001810190506200094e565b5050565b601f821115620009bf5762000989816200083d565b620009948462000852565b81016020851015620009a4578190505b620009bc620009b38562000852565b8301826200094d565b50505b505050565b600082821c905092915050565b6000620009e460001984600802620009c4565b1980831691505092915050565b6000620009ff8383620009d1565b9150826002028217905092915050565b62000a1a82620007ce565b67ffffffffffffffff81111562000a365762000a356200051a565b5b62000a42825462000808565b62000a4f82828562000974565b600060209050601f83116001811462000a87576000841562000a72578287015190505b62000a7e8582620009f1565b86555062000aee565b601f19841662000a97866200083d565b60005b8281101562000ac15784890151825560018201915060208501945060208101905062000a9a565b8683101562000ae1578489015162000add601f891682620009d1565b8355505b6001600288020188555050505b505050505050565b62000b0181620006d9565b82525050565b600060208201905062000b1e600083018462000af6565b92915050565b600082825260208201905092915050565b7f4d617820737570706c79206d7573742062652067726561746572207468616e2060008201527f7a65726f00000000000000000000000000000000000000000000000000000000602082015250565b600062000b9360248362000b24565b915062000ba08262000b35565b604082019050919050565b6000602082019050818103600083015262000bc68162000b84565b9050919050565b7f4e487b7100000000000000000000000000000000000000000000000000000000600052601160045260246000fd5b600062000c09826200067e565b915062000c16836200067e565b925082820262000c26816200067e565b9150828204841483151762000c405762000c3f62000bcd565b5b5092915050565b600062000c54826200067e565b915062000c61836200067e565b925082820190508082111562000c7c5762000c7b62000bcd565b5b92915050565b62000c8d816200067e565b82525050565b600060608201905062000caa600083018662000af6565b62000cb9602083018562000c82565b62000cc8604083018462000c82565b949350505050565b600060208201905062000ce7600083018462000c82565b92915050565b6080516112d862000d10600039600081816103d6015261059401526112d86000f3fe608060405234801561001057600080fd5b50600436106100ea5760003560e01c8063715018a61161008c578063a9059cbb11610066578063a9059cbb1461023b578063d5abeb011461026b578063dd62ed3e14610289578063f2fde38b146102b9576100ea565b8063715018a6146101f55780638da5cb5b146101ff57806395d89b411461021d576100ea565b806323b872dd116100c857806323b872dd1461015b578063313ce5671461018b57806340c10f19146101a957806370a08231146101c5576100ea565b806306fdde03146100ef578063095ea7b31461010d57806318160ddd1461013d575b600080fd5b6100f76102d5565b6040516101049190610ec0565b60405180910390f35b61012760048036038101906101229190610f7b565b610367565b6040516101349190610fd6565b60405180910390f35b61014561038a565b6040516101529190611000565b60405180910390f35b6101756004803603810190610170919061101b565b610394565b6040516101829190610fd6565b60405180910390f35b6101936103c3565b6040516101a0919061108a565b60405180910390f35b6101c360048036038101906101be9190610f7b565b6103cc565b005b6101df60048036038101906101da91906110a5565b610457565b6040516101ec9190611000565b60405180910390f35b6101fd61049f565b005b6102076104b3565b60405161021491906110e1565b60405180910390f35b6102256104dd565b6040516102329190610ec0565b60405180910390f35b61025560048036038101906102509190610f7b565b61056f565b6040516102629190610fd6565b60405180910390f35b610273610592565b6040516102809190611000565b60405180910390f35b6102a3600480360381019061029e91906110fc565b6105b6565b6040516102b09190611000565b60405180910390f35b6102d360048036038101906102ce91906110a5565b61063d565b005b6060600380546102e49061116b565b80601f01602080910402602001604051908101604052809291908181526020018280546103109061116b565b801561035d5780601f106103325761010080835404028352916020019161035d565b820191906000526020600020905b81548152906001019060200180831161034057829003601f168201915b5050505050905090565b6000806103726106c3565b905061037f8185856106cb565b600191505092915050565b6000600254905090565b60008061039f6106c3565b90506103ac8582856106dd565b6103b7858585610771565b60019150509392505050565b60006012905090565b6103d4610865565b7f0000000000000000000000000000000000000000000000000000000000000000816103fe61038a565b61040891906111cb565b1115610449576040517f08c379a00000000000000000000000000000000000000000000000000000000081526004016104409061124b565b60405180910390fd5b61045382826108ec565b5050565b60008060008373ffffffffffffffffffffffffffffffffffffffff1673ffffffffffffffffffffffffffffffffffffffff168152602001908152602001600020549050919050565b6104a7610865565b6104b1600061096e565b565b6000600560009054906101000a900473ffffffffffffffffffffffffffffffffffffffff16905090565b6060600480546104ec9061116b565b80601f01602080910402602001604051908101604052809291908181526020018280546105189061116b565b80156105655780601f1061053a57610100808354040283529160200191610565565b820191906000526020600020905b81548152906001019060200180831161054857829003601f168201915b5050505050905090565b60008061057a6106c3565b9050610587818585610771565b600191505092915050565b7f000000000000000000000000000000000000000000000000000000000000000081565b6000600160008473ffffffffffffffffffffffffffffffffffffffff1673ffffffffffffffffffffffffffffffffffffffff16815260200190815260200160002060008373ffffffffffffffffffffffffffffffffffffffff1673ffffffffffffffffffffffffffffffffffffffff16815260200190815260200160002054905092915050565b610645610865565b600073ffffffffffffffffffffffffffffffffffffffff168173ffffffffffffffffffffffffffffffffffffffff16036106b75760006040517f1e4fbdf70000000000000000000000000000000000000000000000000000000081526004016106ae91906110e1565b60405180910390fd5b6106c08161096e565b50565b600033905090565b6106d88383836001610a34565b505050565b60006106e984846105b6565b90507fffffffffffffffffffffffffffffffffffffffffffffffffffffffffffffffff811461076b578181101561075b578281836040517ffb8f41b20000000000000000000000000000000000000000000000000000000081526004016107529392919061126b565b60405180910390fd5b61076a84848484036000610a34565b5b50505050565b600073ffffffffffffffffffffffffffffffffffffffff168373ffffffffffffffffffffffffffffffffffffffff16036107e35760006040517f96c6fd1e0000000000000000000000000000000000000000000000000000000081526004016107da91906110e1565b60405180910390fd5b600073ffffffffffffffffffffffffffffffffffffffff168273ffffffffffffffffffffffffffffffffffffffff16036108555760006040517fec442f0500000000000000000000000000000000000000000000000000000000815260040161084c91906110e1565b60405180910390fd5b610860838383610c0b565b505050565b61086d6106c3565b73ffffffffffffffffffffffffffffffffffffffff1661088b6104b3565b73ffffffffffffffffffffffffffffffffffffffff16146108ea576108ae6106c3565b6040517f118cdaa70000000000000000000000000000000000000000000000000000000081526004016108e191906110e1565b60405180910390fd5b565b600073ffffffffffffffffffffffffffffffffffffffff168273ffffffffffffffffffffffffffffffffffffffff160361095e5760006040517fec442f0500000000000000000000000000000000000000000000000000000000815260040161095591906110e1565b60405180910390fd5b61096a60008383610c0b565b5050565b6000600560009054906101000a900473ffffffffffffffffffffffffffffffffffffffff16905081600560006101000a81548173ffffffffffffffffffffffffffffffffffffffff021916908373ffffffffffffffffffffffffffffffffffffffff1602179055508173ffffffffffffffffffffffffffffffffffffffff168173ffffffffffffffffffffffffffffffffffffffff167f8be0079c531659141344cd1fd0a4f28419497f9722a3daafe3b4186f6b6457e060405160405180910390a35050565b600073ffffffffffffffffffffffffffffffffffffffff168473ffffffffffffffffffffffffffffffffffffffff1603610aa65760006040517fe602df05000000000000000000000000000000000000000000000000000000008152600401610a9d91906110e1565b60405180910390fd5b600073ffffffffffffffffffffffffffffffffffffffff168373ffffffffffffffffffffffffffffffffffffffff1603610b185760006040517f94280d62000000000000000000000000000000000000000000000000000000008152600401610b0f91906110e1565b60405180910390fd5b81600160008673ffffffffffffffffffffffffffffffffffffffff1673ffffffffffffffffffffffffffffffffffffffff16815260200190815260200160002060008573ffffffffffffffffffffffffffffffffffffffff1673ffffffffffffffffffffffffffffffffffffffff168152602001908152602001600020819055508015610c05578273ffffffffffffffffffffffffffffffffffffffff168473ffffffffffffffffffffffffffffffffffffffff167f8c5be1e5ebec7d5bd14f71427d1e84f3dd0314c0f7b2291e5b200ac8c7c3b92584604051610bfc9190611000565b60405180910390a35b50505050565b600073ffffffffffffffffffffffffffffffffffffffff168373ffffffffffffffffffffffffffffffffffffffff1603610c5d578060026000828254610c5191906111cb565b92505081905550610d30565b60008060008573ffffffffffffffffffffffffffffffffffffffff1673ffffffffffffffffffffffffffffffffffffffff16815260200190815260200160002054905081811015610ce9578381836040517fe450d38c000000000000000000000000000000000000000000000000000000008152600401610ce09392919061126b565b60405180910390fd5b8181036000808673ffffffffffffffffffffffffffffffffffffffff1673ffffffffffffffffffffffffffffffffffffffff16815260200190815260200160002081905550505b600073ffffffffffffffffffffffffffffffffffffffff168273ffffffffffffffffffffffffffffffffffffffff1603610d795780600260008282540392505081905550610dc6565b806000808473ffffffffffffffffffffffffffffffffffffffff1673ffffffffffffffffffffffffffffffffffffffff168152602001908152602001600020600082825401925050819055505b8173ffffffffffffffffffffffffffffffffffffffff168373ffffffffffffffffffffffffffffffffffffffff167fddf252ad1be2c89b69c2b068fc378daa952ba7f163c4a11628f55a4df523b3ef83604051610e239190611000565b60405180910390a3505050565b600081519050919050565b600082825260208201905092915050565b60005b83811015610e6a578082015181840152602081019050610e4f565b60008484015250505050565b6000601f19601f8301169050919050565b6000610e9282610e30565b610e9c8185610e3b565b9350610eac818560208601610e4c565b610eb581610e76565b840191505092915050565b60006020820190508181036000830152610eda8184610e87565b905092915050565b600080fd5b600073ffffffffffffffffffffffffffffffffffffffff82169050919050565b6000610f1282610ee7565b9050919050565b610f2281610f07565b8114610f2d57600080fd5b50565b600081359050610f3f81610f19565b92915050565b6000819050919050565b610f5881610f45565b8114610f6357600080fd5b50565b600081359050610f7581610f4f565b92915050565b60008060408385031215610f9257610f91610ee2565b5b6000610fa085828601610f30565b9250506020610fb185828601610f66565b9150509250929050565b60008115159050919050565b610fd081610fbb565b82525050565b6000602082019050610feb6000830184610fc7565b92915050565b610ffa81610f45565b82525050565b60006020820190506110156000830184610ff1565b92915050565b60008060006060848603121561103457611033610ee2565b5b600061104286828701610f30565b935050602061105386828701610f30565b925050604061106486828701610f66565b9150509250925092565b600060ff82169050919050565b6110848161106e565b82525050565b600060208201905061109f600083018461107b565b92915050565b6000602082840312156110bb576110ba610ee2565b5b60006110c984828501610f30565b91505092915050565b6110db81610f07565b82525050565b60006020820190506110f660008301846110d2565b92915050565b6000806040838503121561111357611112610ee2565b5b600061112185828601610f30565b925050602061113285828601610f30565b9150509250929050565b7f4e487b7100000000000000000000000000000000000000000000000000000000600052602260045260246000fd5b6000600282049050600182168061118357607f821691505b6020821081036111965761119561113c565b5b50919050565b7f4e487b7100000000000000000000000000000000000000000000000000000000600052601160045260246000fd5b60006111d682610f45565b91506111e183610f45565b92508282019050808211156111f9576111f861119c565b5b92915050565b7f4d617820737570706c7920657863656564656400000000000000000000000000600082015250565b6000611235601383610e3b565b9150611240826111ff565b602082019050919050565b6000602082019050818103600083015261126481611228565b9050919050565b600060608201905061128060008301866110d2565b61128d6020830185610ff1565b61129a6040830184610ff1565b94935050505056fea2646970667358221220c2a3849293d01b42c854093878b7eab892efff579d18d4552fe6bf20f93cd65164736f6c63430008180033a26469706673582212205199bc6c506415c27a27dd22d1a7f662c5eb269bcfd6d10d47f6dd71d5dc8a4764736f6c63430008180033",
  "linkReferences": {},
  "deployedLinkReferences": {}
}